###############################################################################
#
# IAR ELF Linker V9.40.1.364/W64 for ARM                  24/Jul/2024  18:04:46
# Copyright 2007-2023 IAR Systems AB.
#
#    Output file  =
#        F:\open\stm32cubmx\6.5kw\bldc-control-keil\bldc-contorl2\EWARM\bldc-contorl\Exe\bldc-contorl.out
#    Map file     =
#        F:\open\stm32cubmx\6.5kw\bldc-control-keil\bldc-contorl2\EWARM\bldc-contorl\List\bldc-contorl.map
#    Command line =
#        -f
#        F:\open\stm32cubmx\6.5kw\bldc-control-keil\bldc-contorl2\EWARM\bldc-contorl\Exe\bldc-contorl.out.rsp
#        (F:\open\stm32cubmx\6.5kw\bldc-control-keil\bldc-contorl2\EWARM\bldc-contorl\Obj\Core_13247989168731456611.dir\adc.o
#        F:\open\stm32cubmx\6.5kw\bldc-control-keil\bldc-contorl2\EWARM\bldc-contorl\Obj\Core_13247989168731456611.dir\arm_common_tables.o
#        F:\open\stm32cubmx\6.5kw\bldc-control-keil\bldc-contorl2\EWARM\bldc-contorl\Obj\Core_13247989168731456611.dir\arm_const_structs.o
#        F:\open\stm32cubmx\6.5kw\bldc-control-keil\bldc-contorl2\EWARM\bldc-contorl\Obj\Core_13247989168731456611.dir\arm_cos_f32.o
#        F:\open\stm32cubmx\6.5kw\bldc-control-keil\bldc-contorl2\EWARM\bldc-contorl\Obj\Core_13247989168731456611.dir\arm_pid_init_f32.o
#        F:\open\stm32cubmx\6.5kw\bldc-control-keil\bldc-contorl2\EWARM\bldc-contorl\Obj\Core_13247989168731456611.dir\arm_pid_reset_f32.o
#        F:\open\stm32cubmx\6.5kw\bldc-control-keil\bldc-contorl2\EWARM\bldc-contorl\Obj\Core_13247989168731456611.dir\arm_sin_f32.o
#        F:\open\stm32cubmx\6.5kw\bldc-control-keil\bldc-contorl2\EWARM\bldc-contorl\Obj\Core_13247989168731456611.dir\foc.o
#        F:\open\stm32cubmx\6.5kw\bldc-control-keil\bldc-contorl2\EWARM\bldc-contorl\Obj\Core_13247989168731456611.dir\gpio.o
#        F:\open\stm32cubmx\6.5kw\bldc-control-keil\bldc-contorl2\EWARM\bldc-contorl\Obj\Core_13247989168731456611.dir\lcd.o
#        F:\open\stm32cubmx\6.5kw\bldc-control-keil\bldc-contorl2\EWARM\bldc-contorl\Obj\Core_13247989168731456611.dir\lcd_init.o
#        F:\open\stm32cubmx\6.5kw\bldc-control-keil\bldc-contorl2\EWARM\bldc-contorl\Obj\Core_13247989168731456611.dir\main.o
#        F:\open\stm32cubmx\6.5kw\bldc-control-keil\bldc-contorl2\EWARM\bldc-contorl\Obj\Core_13247989168731456611.dir\motor.o
#        F:\open\stm32cubmx\6.5kw\bldc-control-keil\bldc-contorl2\EWARM\bldc-contorl\Obj\Core_13247989168731456611.dir\pid_control.o
#        F:\open\stm32cubmx\6.5kw\bldc-control-keil\bldc-contorl2\EWARM\bldc-contorl\Obj\EWARM_18443280873093131863.dir\startup_stm32f103xe.o
#        F:\open\stm32cubmx\6.5kw\bldc-control-keil\bldc-contorl2\EWARM\bldc-contorl\Obj\STM32F1xx_HAL_Driver_9701002599162248031.dir\stm32f1xx_hal.o
#        F:\open\stm32cubmx\6.5kw\bldc-control-keil\bldc-contorl2\EWARM\bldc-contorl\Obj\STM32F1xx_HAL_Driver_9701002599162248031.dir\stm32f1xx_hal_adc.o
#        F:\open\stm32cubmx\6.5kw\bldc-control-keil\bldc-contorl2\EWARM\bldc-contorl\Obj\STM32F1xx_HAL_Driver_9701002599162248031.dir\stm32f1xx_hal_adc_ex.o
#        F:\open\stm32cubmx\6.5kw\bldc-control-keil\bldc-contorl2\EWARM\bldc-contorl\Obj\STM32F1xx_HAL_Driver_9701002599162248031.dir\stm32f1xx_hal_cortex.o
#        F:\open\stm32cubmx\6.5kw\bldc-control-keil\bldc-contorl2\EWARM\bldc-contorl\Obj\STM32F1xx_HAL_Driver_9701002599162248031.dir\stm32f1xx_hal_dma.o
#        F:\open\stm32cubmx\6.5kw\bldc-control-keil\bldc-contorl2\EWARM\bldc-contorl\Obj\STM32F1xx_HAL_Driver_9701002599162248031.dir\stm32f1xx_hal_exti.o
#        F:\open\stm32cubmx\6.5kw\bldc-control-keil\bldc-contorl2\EWARM\bldc-contorl\Obj\STM32F1xx_HAL_Driver_9701002599162248031.dir\stm32f1xx_hal_flash.o
#        F:\open\stm32cubmx\6.5kw\bldc-control-keil\bldc-contorl2\EWARM\bldc-contorl\Obj\STM32F1xx_HAL_Driver_9701002599162248031.dir\stm32f1xx_hal_flash_ex.o
#        F:\open\stm32cubmx\6.5kw\bldc-control-keil\bldc-contorl2\EWARM\bldc-contorl\Obj\STM32F1xx_HAL_Driver_9701002599162248031.dir\stm32f1xx_hal_gpio.o
#        F:\open\stm32cubmx\6.5kw\bldc-control-keil\bldc-contorl2\EWARM\bldc-contorl\Obj\STM32F1xx_HAL_Driver_9701002599162248031.dir\stm32f1xx_hal_gpio_ex.o
#        F:\open\stm32cubmx\6.5kw\bldc-control-keil\bldc-contorl2\EWARM\bldc-contorl\Obj\Core_13247989168731456611.dir\stm32f1xx_hal_msp.o
#        F:\open\stm32cubmx\6.5kw\bldc-control-keil\bldc-contorl2\EWARM\bldc-contorl\Obj\STM32F1xx_HAL_Driver_9701002599162248031.dir\stm32f1xx_hal_pwr.o
#        F:\open\stm32cubmx\6.5kw\bldc-control-keil\bldc-contorl2\EWARM\bldc-contorl\Obj\STM32F1xx_HAL_Driver_9701002599162248031.dir\stm32f1xx_hal_rcc.o
#        F:\open\stm32cubmx\6.5kw\bldc-control-keil\bldc-contorl2\EWARM\bldc-contorl\Obj\STM32F1xx_HAL_Driver_9701002599162248031.dir\stm32f1xx_hal_rcc_ex.o
#        F:\open\stm32cubmx\6.5kw\bldc-control-keil\bldc-contorl2\EWARM\bldc-contorl\Obj\STM32F1xx_HAL_Driver_9701002599162248031.dir\stm32f1xx_hal_tim.o
#        F:\open\stm32cubmx\6.5kw\bldc-control-keil\bldc-contorl2\EWARM\bldc-contorl\Obj\STM32F1xx_HAL_Driver_9701002599162248031.dir\stm32f1xx_hal_tim_ex.o
#        F:\open\stm32cubmx\6.5kw\bldc-control-keil\bldc-contorl2\EWARM\bldc-contorl\Obj\STM32F1xx_HAL_Driver_9701002599162248031.dir\stm32f1xx_hal_uart.o
#        F:\open\stm32cubmx\6.5kw\bldc-control-keil\bldc-contorl2\EWARM\bldc-contorl\Obj\Core_13247989168731456611.dir\stm32f1xx_it.o
#        F:\open\stm32cubmx\6.5kw\bldc-control-keil\bldc-contorl2\EWARM\bldc-contorl\Obj\CMSIS_6603591812247902717.dir\system_stm32f1xx.o
#        F:\open\stm32cubmx\6.5kw\bldc-control-keil\bldc-contorl2\EWARM\bldc-contorl\Obj\Core_13247989168731456611.dir\tim.o
#        F:\open\stm32cubmx\6.5kw\bldc-control-keil\bldc-contorl2\EWARM\bldc-contorl\Obj\Core_13247989168731456611.dir\tzmx.o
#        F:\open\stm32cubmx\6.5kw\bldc-control-keil\bldc-contorl2\EWARM\bldc-contorl\Obj\Core_13247989168731456611.dir\usart.o
#        F:\open\stm32cubmx\6.5kw\bldc-control-keil\bldc-contorl2\EWARM\bldc-contorl\Obj\Core_13247989168731456611.dir\user_fcn.o
#        --no_out_extension -o
#        F:\open\stm32cubmx\6.5kw\bldc-control-keil\bldc-contorl2\EWARM\bldc-contorl\Exe\bldc-contorl.out
#        --redirect _Printf=_PrintfFullNoMb --redirect _Scanf=_ScanfFullNoMb
#        --map
#        F:\open\stm32cubmx\6.5kw\bldc-control-keil\bldc-contorl2\EWARM\bldc-contorl\List\bldc-contorl.map
#        --config
#        F:\open\stm32cubmx\6.5kw\bldc-control-keil\bldc-contorl2\EWARM/stm32f103xe_flash.icf
#        --semihosting --entry __iar_program_start --vfe --text_out locale
#        --cpu=Cortex-M4 --fpu=VFPv4_sp) --dependencies=n
#        F:\open\stm32cubmx\6.5kw\bldc-control-keil\bldc-contorl2\EWARM\bldc-contorl\Exe\bldc-contorl.out.iar_deps
#
###############################################################################

*******************************************************************************
*** RUNTIME MODEL ATTRIBUTES
***

CppFlavor       = *
__CPP_Runtime   = 1
__SystemLibrary = DLib
__dlib_version  = 6


*******************************************************************************
*** HEAP SELECTION
***

The basic heap was selected because --advanced_heap
was not specified and the application did not appear to
be primarily optimized for speed.


*******************************************************************************
*** PLACEMENT SUMMARY
***

"A0":  place at address 0x800'0000 { ro section .intvec };
"P1":  place in [from 0x800'0000 to 0x807'ffff] { ro };
define block CSTACK with size = 1K, alignment = 8 { };
define block HEAP with size = 512, alignment = 8 { };
"P2":  place in [from 0x2000'0000 to 0x2000'ffff] {
          rw, block CSTACK, block HEAP };
initialize by copy { rw };

  Section            Kind         Address    Size  Object
  -------            ----         -------    ----  ------
"A0":                                       0x130
  .intvec            ro code   0x800'0000   0x130  startup_stm32f103xe.o [3]
                             - 0x800'0130   0x130

"P1":                                      0x733a
  .text              ro code   0x800'0130   0xeca  xprintffull_nomb.o [5]
  .text              ro code   0x800'0ffa    0x7e  lz77_init_single.o [7]
  .text              ro code   0x800'1078    0x16  strchr.o [7]
  .rodata            const     0x800'108e     0x2  xlocale_c.o [5]
  .text              ro code   0x800'1090    0x40  xfail_s.o [5]
  .text              ro code   0x800'10d0    0x36  strlen.o [7]
  .rodata            const     0x800'1106     0x2  xlocale_c.o [5]
  .text              ro code   0x800'1108    0x58  memchr.o [7]
  .text              ro code   0x800'1160    0xa6  ABImemcpy.o [7]
  .rodata            const     0x800'1206     0x1  xlocale_c.o [5]
  .text              ro code   0x800'1208    0x70  frexp.o [6]
  .text              ro code   0x800'1278    0x34  DblCmpLe.o [6]
  .text              ro code   0x800'12ac    0x34  DblCmpGe.o [6]
  .text              ro code   0x800'12e0   0x13a  ldexp.o [6]
  .text              ro code   0x800'141c    0x36  DblToS32.o [6]
  .text              ro code   0x800'1454    0x22  S32ToDbl.o [6]
  .text              ro code   0x800'1478   0x25e  DblAddSub.o [6]
  .text              ro code   0x800'16d8   0x246  DblDiv.o [6]
  .text              ro code   0x800'1920    0x22  DblToU32.o [6]
  .text              ro code   0x800'1944    0x1c  U32ToDbl.o [6]
  .text              ro code   0x800'1960   0x1aa  DblMul.o [6]
  .text              ro code   0x800'1b0c    0x40  xlocale_c.o [5]
  .text              ro code   0x800'1b4c   0x106  I64DivMod_small.o [7]
  .text              ro code   0x800'1c52     0x6  abort.o [5]
  .text              ro code   0x800'1c58     0x2  I64DivZer.o [7]
  .text              ro code   0x800'1c5c    0x14  exit.o [8]
  .text              ro code   0x800'1c70   0xe54  motor.o [2]
  .text              ro code   0x800'2ac4   0x9f6  stm32f1xx_hal_tim.o [4]
  .text              ro code   0x800'34bc   0x116  stm32f1xx_hal_tim_ex.o [4]
  .text              ro code   0x800'35d4   0x2e0  stm32f1xx_hal_adc_ex.o [4]
  .text              ro code   0x800'38b4    0xe4  pid_control.o [2]
  .text              ro code   0x800'3998    0x68  DblToFlt.o [6]
  .text              ro code   0x800'3a00    0x48  FltToDbl.o [6]
  .text              ro code   0x800'3a48    0x28  printf.o [5]
  .text              ro code   0x800'3a70    0xcc  fmodf.o [6]
  .text              ro code   0x800'3b3c   0x28c  foc.o [2]
  .text              ro code   0x800'3dc8    0x80  arm_cos_f32.o [2]
  .text              ro code   0x800'3e48    0x98  arm_sin_f32.o [2]
  .text              ro code   0x800'3ee0    0x28  stm32f1xx_hal.o [4]
  .text              ro code   0x800'3f08    0x26  math_wrappers64.o [6]
  .text              ro code   0x800'3f30   0x102  sqrt.o [6]
  .text              ro code   0x800'4034   0x480  tim.o [2]
  .text              ro code   0x800'44b4     0x2  stm32f1xx_hal_tim.o [4]
  .text              ro code   0x800'44b6     0x2  stm32f1xx_hal_tim.o [4]
  .text              ro code   0x800'44b8     0x2  stm32f1xx_hal_tim.o [4]
  .text              ro code   0x800'44ba     0x2  stm32f1xx_hal_tim_ex.o [4]
  .text              ro code   0x800'44bc     0x2  stm32f1xx_hal_tim.o [4]
  .text              ro code   0x800'44be     0x2  stm32f1xx_hal_tim_ex.o [4]
  .text              ro code   0x800'44c0     0x2  stm32f1xx_hal_tim.o [4]
  .text              ro code   0x800'44c4   0x3d0  stm32f1xx_hal_adc.o [4]
  .text              ro code   0x800'4894     0xc  stm32f1xx_hal.o [4]
  .text              ro code   0x800'48a0   0x362  strto64.o [6]
  .text              ro code   0x800'4c04   0x408  cos_sin64.o [6]
  .text              ro code   0x800'500c    0x14  memset.o [7]
  .text              ro code   0x800'5020   0x198  main.o [2]
  .text              ro code   0x800'51b8    0xc4  stm32f1xx_hal_cortex.o [4]
  .text              ro code   0x800'527c   0x210  stm32f1xx_hal_gpio.o [4]
  .text              ro code   0x800'548c   0x148  adc.o [2]
  .text              ro code   0x800'55d4     0x2  stm32f1xx_hal_adc.o [4]
  .text              ro code   0x800'55d6     0x2  stm32f1xx_hal_adc.o [4]
  .text              ro code   0x800'55d8   0x122  iar_Stopfx.o [5]
  .text              ro code   0x800'56fc   0x1b8  iar_Stoflt.o [5]
  .text              ro code   0x800'58b4   0x208  iar_Stoxflt.o [5]
  .text              ro code   0x800'5abc    0x66  ABImemset.o [7]
  .text              ro code   0x800'5b24    0x24  stm32f1xx_hal.o [4]
  .text              ro code   0x800'5b48    0x90  gpio.o [2]
  .text              ro code   0x800'5bd8    0xb8  usart.o [2]
  .text              ro code   0x800'5c90   0x4a4  stm32f1xx_hal_uart.o [4]
  .text              ro code   0x800'6134     0x6  ABImemclr4.o [7]
  .text              ro code   0x800'613c   0x4ba  stm32f1xx_hal_rcc.o [4]
  .text              ro code   0x800'65f8    0xe8  stm32f1xx_hal_rcc_ex.o [4]
  .text              ro code   0x800'66e0    0x14  isspace.o [5]
  .text              ro code   0x800'66f4    0x14  isalpha.o [5]
  .text              ro code   0x800'6708    0x40  stm32f1xx_hal.o [4]
  .text              ro code   0x800'6748    0x44  stm32f1xx_hal_msp.o [2]
  .text              ro code   0x800'678c   0x110  stm32f1xx_hal_dma.o [4]
  .text              ro code   0x800'689c     0x2  stm32f1xx_hal_uart.o [4]
  .text              ro code   0x800'689e     0x2  stm32f1xx_hal_uart.o [4]
  .text              ro code   0x800'68a0    0x32  ABImemset48.o [7]
  .rodata            const     0x800'68d4   0x804  arm_common_tables.o [2]
  .text              ro code   0x800'70d8    0x6c  system_stm32f1xx.o [1]
  .text              ro code   0x800'7144    0x50  stm32f1xx_it.o [2]
  .text              ro code   0x800'7194    0x10  stm32f1xx_hal.o [4]
  .rodata            const     0x800'71a8    0x48  strto64.o [6]
  .text              ro code   0x800'71f0    0x38  zero_init3.o [7]
  .text              ro code   0x800'7228    0x28  data_init.o [7]
  .text              ro code   0x800'7250    0x22  fpinit_M.o [6]
  .iar.init_table    const     0x800'7274    0x20  - Linker created -
  .text              ro code   0x800'7294    0x1e  cmain.o [7]
  .text              ro code   0x800'72b2     0x4  low_level_init.o [5]
  .text              ro code   0x800'72b6     0x4  exit.o [5]
  .text              ro code   0x800'72bc     0xa  cexit.o [7]
  .text              ro code   0x800'72c8    0x1c  cstartup_M.o [7]
  .text              ro code   0x800'72e4    0x16  xprout.o [5]
  .text              ro code   0x800'72fc    0x10  startup_stm32f103xe.o [3]
  .rodata            const     0x800'730c     0x8  system_stm32f1xx.o [1]
  .text              ro code   0x800'7314     0x4  startup_stm32f103xe.o [3]
  .text              ro code   0x800'7318     0x4  startup_stm32f103xe.o [3]
  .text              ro code   0x800'731c     0x4  startup_stm32f103xe.o [3]
  .text              ro code   0x800'7320     0x4  startup_stm32f103xe.o [3]
  .text              ro code   0x800'7324     0x4  startup_stm32f103xe.o [3]
  .text              ro code   0x800'7328     0x4  startup_stm32f103xe.o [3]
  .text              ro code   0x800'732c     0x4  startup_stm32f103xe.o [3]
  .text              ro code   0x800'7330     0x4  startup_stm32f103xe.o [3]
  .text              ro code   0x800'7334     0x4  startup_stm32f103xe.o [3]
  .text              ro code   0x800'7338     0x4  startup_stm32f103xe.o [3]
  .text              ro code   0x800'733c     0x4  startup_stm32f103xe.o [3]
  .text              ro code   0x800'7340     0x4  startup_stm32f103xe.o [3]
  .text              ro code   0x800'7344     0x4  startup_stm32f103xe.o [3]
  .text              ro code   0x800'7348     0x4  startup_stm32f103xe.o [3]
  .text              ro code   0x800'734c     0x4  startup_stm32f103xe.o [3]
  .text              ro code   0x800'7350     0x4  startup_stm32f103xe.o [3]
  .text              ro code   0x800'7354     0x4  startup_stm32f103xe.o [3]
  .text              ro code   0x800'7358     0x4  startup_stm32f103xe.o [3]
  .text              ro code   0x800'735c     0x4  startup_stm32f103xe.o [3]
  .text              ro code   0x800'7360     0x4  startup_stm32f103xe.o [3]
  .text              ro code   0x800'7364     0x4  startup_stm32f103xe.o [3]
  .text              ro code   0x800'7368     0x4  startup_stm32f103xe.o [3]
  .text              ro code   0x800'736c     0x4  startup_stm32f103xe.o [3]
  .text              ro code   0x800'7370     0x4  startup_stm32f103xe.o [3]
  .text              ro code   0x800'7374     0x4  startup_stm32f103xe.o [3]
  .text              ro code   0x800'7378     0x4  startup_stm32f103xe.o [3]
  .text              ro code   0x800'737c     0x4  startup_stm32f103xe.o [3]
  .text              ro code   0x800'7380     0x4  startup_stm32f103xe.o [3]
  .text              ro code   0x800'7384     0x4  startup_stm32f103xe.o [3]
  .text              ro code   0x800'7388     0x4  startup_stm32f103xe.o [3]
  .text              ro code   0x800'738c     0x4  startup_stm32f103xe.o [3]
  .text              ro code   0x800'7390     0x4  startup_stm32f103xe.o [3]
  .text              ro code   0x800'7394     0x4  startup_stm32f103xe.o [3]
  .text              ro code   0x800'7398     0x4  startup_stm32f103xe.o [3]
  .text              ro code   0x800'739c     0x4  startup_stm32f103xe.o [3]
  .text              ro code   0x800'73a0     0x4  startup_stm32f103xe.o [3]
  .text              ro code   0x800'73a4     0x4  startup_stm32f103xe.o [3]
  .text              ro code   0x800'73a8     0x4  startup_stm32f103xe.o [3]
  .text              ro code   0x800'73ac     0x4  startup_stm32f103xe.o [3]
  .text              ro code   0x800'73b0     0x4  startup_stm32f103xe.o [3]
  .text              ro code   0x800'73b4     0x4  startup_stm32f103xe.o [3]
  .text              ro code   0x800'73b8     0x4  startup_stm32f103xe.o [3]
  .text              ro code   0x800'73bc     0x4  startup_stm32f103xe.o [3]
  .text              ro code   0x800'73c0     0x4  startup_stm32f103xe.o [3]
  .text              ro code   0x800'73c4     0x4  startup_stm32f103xe.o [3]
  .text              ro code   0x800'73c8     0x4  startup_stm32f103xe.o [3]
  .text              ro code   0x800'73cc     0x4  startup_stm32f103xe.o [3]
  .text              ro code   0x800'73d0     0x4  startup_stm32f103xe.o [3]
  .text              ro code   0x800'73d4     0x4  startup_stm32f103xe.o [3]
  .text              ro code   0x800'73d8     0x4  startup_stm32f103xe.o [3]
  .text              ro code   0x800'73dc     0x4  startup_stm32f103xe.o [3]
  .text              ro code   0x800'73e0     0x4  startup_stm32f103xe.o [3]
  .text              ro code   0x800'73e4     0x4  startup_stm32f103xe.o [3]
  .text              ro code   0x800'73e8     0x4  startup_stm32f103xe.o [3]
  .rodata            const     0x800'73ec     0x0  zero_init3.o [7]
  .rodata            const     0x800'73ec     0x0  lz77_init_single.o [7]
  Initializer bytes  const     0x800'73ec    0x7e  <for P2-1>
                             - 0x800'746a  0x733a

"P2", part 1 of 3:                          0x394
  P2-1                        0x2000'0000   0x394  <Init block>
    .data            inited   0x2000'0000   0x210  main.o [2]
    .data            inited   0x2000'0210    0x84  motor.o [2]
    .data            inited   0x2000'0294    0x58  motor.o [2]
    .data            inited   0x2000'02ec    0x18  motor.o [2]
    .data            inited   0x2000'0304     0xc  stm32f1xx_hal.o [4]
    .data            inited   0x2000'0310     0x4  system_stm32f1xx.o [1]
    .data            inited   0x2000'0314    0x38  xlocale_c.o [5]
    .data            inited   0x2000'034c    0x48  xlocale_c.o [5]
                            - 0x2000'0394   0x394

"P2", part 2 of 3:                          0x3d8
  .bss               zero     0x2000'0394   0x174  pid_control.o [2]
  .bss               zero     0x2000'0508    0x40  tim.o [2]
  .bss               zero     0x2000'0548    0x40  tim.o [2]
  .bss               zero     0x2000'0588    0x40  tim.o [2]
  .bss               zero     0x2000'05c8    0x40  tim.o [2]
  .bss               zero     0x2000'0608    0x40  usart.o [2]
  .bss               zero     0x2000'0648    0x3c  motor.o [2]
  .bss               zero     0x2000'0684    0x30  adc.o [2]
  .bss               zero     0x2000'06b8    0x28  foc.o [2]
  .bss               zero     0x2000'06e0    0x24  motor.o [2]
  .bss               zero     0x2000'0704    0x20  motor.o [2]
  .bss               zero     0x2000'0724    0x20  motor.o [2]
  .bss               zero     0x2000'0744     0x8  motor.o [2]
  .bss               zero     0x2000'074c     0x8  motor.o [2]
  .bss               zero     0x2000'0754     0x8  motor.o [2]
  .bss               zero     0x2000'075c     0x8  motor.o [2]
  .bss               zero     0x2000'0764     0x4  xfail_s.o [5]
  .bss               zero     0x2000'0768     0x1  main.o [2]
                            - 0x2000'0769   0x3d5

"P2", part 3 of 3:                          0x400
  CSTACK                      0x2000'0770   0x400  <Block>
    CSTACK           uninit   0x2000'0770   0x400  <Block tail>
                            - 0x2000'0b70   0x400

Unused ranges:

         From           To      Size
         ----           --      ----
   0x800'746a   0x807'ffff  0x7'8b96
  0x2000'076c  0x2000'076f       0x4
  0x2000'0b70  0x2000'ffff    0xf490


*******************************************************************************
*** INIT TABLE
***

          Address      Size
          -------      ----
Zero (__iar_zero_init3)
    1 destination range, total size 0x3d5:
          0x2000'0394  0x3d5

Copy/lz77 (__iar_lz77_init_single3)
    1 source range, total size 0x7e (13% of destination):
           0x800'73ec   0x7e
    1 destination range, total size 0x394:
          0x2000'0000  0x394



*******************************************************************************
*** MODULE SUMMARY
***

    Module                  ro code  ro data  rw data
    ------                  -------  -------  -------
command line/config:
    -------------------------------------------------
    Total:

F:\open\stm32cubmx\6.5kw\bldc-control-keil\bldc-contorl2\EWARM\bldc-contorl\Obj\CMSIS_6603591812247902717.dir: [1]
    system_stm32f1xx.o          108        9        4
    -------------------------------------------------
    Total:                      108        9        4

F:\open\stm32cubmx\6.5kw\bldc-control-keil\bldc-contorl2\EWARM\bldc-contorl\Obj\Core_13247989168731456611.dir: [2]
    adc.o                       328                48
    arm_common_tables.o                2'052
    arm_cos_f32.o               128
    arm_sin_f32.o               152
    foc.o                       652                40
    gpio.o                      144
    main.o                      408       72      529
    motor.o                   3'668       34      436
    pid_control.o               228               372
    stm32f1xx_hal_msp.o          68
    stm32f1xx_it.o               80
    tim.o                     1'152               256
    usart.o                     184                64
    -------------------------------------------------
    Total:                    7'192    2'158    1'745

F:\open\stm32cubmx\6.5kw\bldc-control-keil\bldc-contorl2\EWARM\bldc-contorl\Obj\EWARM_18443280873093131863.dir: [3]
    startup_stm32f103xe.o       536
    -------------------------------------------------
    Total:                      536

F:\open\stm32cubmx\6.5kw\bldc-control-keil\bldc-contorl2\EWARM\bldc-contorl\Obj\STM32F1xx_HAL_Driver_9701002599162248031.dir: [4]
    stm32f1xx_hal.o             168        1       12
    stm32f1xx_hal_adc.o         980
    stm32f1xx_hal_adc_ex.o      736
    stm32f1xx_hal_cortex.o      196
    stm32f1xx_hal_dma.o         272
    stm32f1xx_hal_gpio.o        528
    stm32f1xx_hal_rcc.o       1'210
    stm32f1xx_hal_rcc_ex.o      232
    stm32f1xx_hal_tim.o       2'560
    stm32f1xx_hal_tim_ex.o      282
    stm32f1xx_hal_uart.o      1'192
    -------------------------------------------------
    Total:                    8'356        1       12

dl7M_tlf.a: [5]
    abort.o                       6
    exit.o                        4
    iar_Stoflt.o                440
    iar_Stopfx.o                290
    iar_Stoxflt.o               520
    isalpha.o                    20
    isspace.o                    20
    low_level_init.o              4
    printf.o                     40
    xfail_s.o                    64                 4
    xlocale_c.o                  64       22      128
    xprintffull_nomb.o        3'786
    xprout.o                     22
    -------------------------------------------------
    Total:                    5'280       22      132

m7M_tls.a: [6]
    DblAddSub.o                 606
    DblCmpGe.o                   52
    DblCmpLe.o                   52
    DblDiv.o                    582
    DblMul.o                    426
    DblToFlt.o                  104
    DblToS32.o                   54
    DblToU32.o                   34
    FltToDbl.o                   72
    S32ToDbl.o                   34
    U32ToDbl.o                   28
    cos_sin64.o               1'032
    fmodf.o                     204
    fpinit_M.o                   34
    frexp.o                     112
    ldexp.o                     314
    math_wrappers64.o            38
    sqrt.o                      258
    strto64.o                   866       72
    -------------------------------------------------
    Total:                    4'902       72

rt7M_tl.a: [7]
    ABImemclr4.o                  6
    ABImemcpy.o                 166
    ABImemset.o                 102
    ABImemset48.o                50
    I64DivMod_small.o           262
    I64DivZer.o                   2
    cexit.o                      10
    cmain.o                      30
    cstartup_M.o                 28
    data_init.o                  40
    lz77_init_single.o          126
    memchr.o                     88
    memset.o                     20
    strchr.o                     22
    strlen.o                     54
    zero_init3.o                 56
    -------------------------------------------------
    Total:                    1'062

shb_l.a: [8]
    exit.o                       20
    -------------------------------------------------
    Total:                       20

    Gaps                         43        8        4
    Linker created                        33    1'024
-----------------------------------------------------
    Grand Total:             27'499    2'303    2'921


*******************************************************************************
*** ENTRY LIST
***

Entry                       Address   Size  Type      Object
-----                       -------   ----  ----      ------
.iar.init_table$$Base    0x800'7274          --   Gb  - Linker created -
.iar.init_table$$Limit   0x800'7294          --   Gb  - Linker created -
?main                    0x800'7295         Code  Gb  cmain.o [7]
ADC1_2_IRQHandler        0x800'7159    0x6  Code  Gb  stm32f1xx_it.o [2]
ADC3_IRQHandler          0x800'73b9         Code  Wk  startup_stm32f103xe.o [3]
ADC_ConversionStop_Disable
                         0x800'4851   0x44  Code  Gb  stm32f1xx_hal_adc.o [4]
ADC_Enable               0x800'47c9   0x6a  Code  Gb  stm32f1xx_hal_adc.o [4]
AHBPrescTable            0x800'7134   0x10  Data  Gb  system_stm32f1xx.o [1]
APBPrescTable            0x800'730c    0x8  Data  Gb  system_stm32f1xx.o [1]
Angle_To_Cos_Sin         0x800'22fd   0x26  Code  Gb  motor.o [2]
ApplyRampFunction        0x800'28e5   0x2c  Code  Gb  motor.o [2]
BusFault_Handler         0x800'714b    0x2  Code  Gb  stm32f1xx_it.o [2]
Bus_current             0x2000'071c    0x4  Data  Gb  motor.o [2]
CAN1_RX1_IRQHandler      0x800'7365         Code  Wk  startup_stm32f103xe.o [3]
CAN1_SCE_IRQHandler      0x800'7369         Code  Wk  startup_stm32f103xe.o [3]
CSTACK$$Base            0x2000'0770          --   Gb  - Linker created -
CSTACK$$Limit           0x2000'0b70          --   Gb  - Linker created -
Clarke_Transf            0x800'2271   0x3e  Code  Gb  motor.o [2]
Current_D_PID           0x2000'021c   0x1c  Data  Gb  motor.o [2]
Current_Iabc            0x2000'06e0    0xc  Data  Gb  motor.o [2]
Current_Ialpha_beta     0x2000'0210    0x8  Data  Gb  motor.o [2]
Current_Idq             0x2000'026c    0x8  Data  Gb  motor.o [2]
Current_Idq1            0x2000'0274    0x8  Data  Gb  motor.o [2]
Current_PID_Calc         0x800'2215   0x4c  Code  Gb  motor.o [2]
Current_Q_PID           0x2000'0238   0x1c  Data  Gb  motor.o [2]
DMA1_Channel1_IRQHandler
                         0x800'7341         Code  Wk  startup_stm32f103xe.o [3]
DMA1_Channel2_IRQHandler
                         0x800'7345         Code  Wk  startup_stm32f103xe.o [3]
DMA1_Channel3_IRQHandler
                         0x800'7349         Code  Wk  startup_stm32f103xe.o [3]
DMA1_Channel4_IRQHandler
                         0x800'734d         Code  Wk  startup_stm32f103xe.o [3]
DMA1_Channel5_IRQHandler
                         0x800'7351         Code  Wk  startup_stm32f103xe.o [3]
DMA1_Channel6_IRQHandler
                         0x800'7355         Code  Wk  startup_stm32f103xe.o [3]
DMA1_Channel7_IRQHandler
                         0x800'7359         Code  Wk  startup_stm32f103xe.o [3]
DMA2_Channel1_IRQHandler
                         0x800'73dd         Code  Wk  startup_stm32f103xe.o [3]
DMA2_Channel2_IRQHandler
                         0x800'73e1         Code  Wk  startup_stm32f103xe.o [3]
DMA2_Channel3_IRQHandler
                         0x800'73e5         Code  Wk  startup_stm32f103xe.o [3]
DMA2_Channel4_5_IRQHandler
                         0x800'73e9         Code  Wk  startup_stm32f103xe.o [3]
D_PI_I                  0x2000'02b0    0x4  Data  Gb  motor.o [2]
D_PI_KB                 0x2000'02b4    0x4  Data  Gb  motor.o [2]
D_PI_LOW_LIMIT          0x2000'02b8    0x4  Data  Gb  motor.o [2]
D_PI_P                  0x2000'02bc    0x4  Data  Gb  motor.o [2]
D_PI_UP_LIMIT           0x2000'02c0    0x4  Data  Gb  motor.o [2]
DebugMon_Handler         0x800'7151    0x2  Code  Gb  stm32f1xx_it.o [2]
Dtentox                  0x800'48a1  0x1d8  Code  Lc  strto64.o [6]
ENC_Calc_Average_Speed::bError_counter
                        0x2000'021b    0x1  Data  Lc  motor.o [2]
ENC_Clear_Speed_Buffer   0x800'210d   0x1c  Code  Gb  motor.o [2]
EXTI0_IRQHandler         0x800'732d         Code  Wk  startup_stm32f103xe.o [3]
EXTI15_10_IRQHandler     0x800'718d    0x8  Code  Gb  stm32f1xx_it.o [2]
EXTI1_IRQHandler         0x800'7331         Code  Wk  startup_stm32f103xe.o [3]
EXTI2_IRQHandler         0x800'7335         Code  Wk  startup_stm32f103xe.o [3]
EXTI3_IRQHandler         0x800'7339         Code  Wk  startup_stm32f103xe.o [3]
EXTI4_IRQHandler         0x800'733d         Code  Wk  startup_stm32f103xe.o [3]
EXTI9_5_IRQHandler       0x800'736d         Code  Wk  startup_stm32f103xe.o [3]
Error_Handler            0x800'51a9    0x4  Code  Gb  main.o [2]
FLASH_IRQHandler         0x800'7325         Code  Wk  startup_stm32f103xe.o [3]
FOC_Init                 0x800'29b1   0x18  Code  Gb  motor.o [2]
FSMC_IRQHandler          0x800'73bd         Code  Wk  startup_stm32f103xe.o [3]
GetCurrentOffset         0x800'2881   0x60  Code  Gb  motor.o [2]
HAL_ADCEx_InjectedConfigChannel
                         0x800'36bf  0x1b0  Code  Gb  stm32f1xx_hal_adc_ex.o [4]
HAL_ADCEx_InjectedConvCpltCallback
                         0x800'1d1f   0x18  Code  Gb  motor.o [2]
HAL_ADCEx_InjectedGetValue
                         0x800'3699   0x26  Code  Gb  stm32f1xx_hal_adc_ex.o [4]
HAL_ADCEx_InjectedStart_IT
                         0x800'35d5   0x3a  Code  Gb  stm32f1xx_hal_adc_ex.o [4]
HAL_ADC_ConfigChannel    0x800'46cb   0xe6  Code  Gb  stm32f1xx_hal_adc.o [4]
HAL_ADC_ConvCpltCallback
                         0x800'55d5    0x2  Code  Wk  stm32f1xx_hal_adc.o [4]
HAL_ADC_IRQHandler       0x800'45d5   0xde  Code  Gb  stm32f1xx_hal_adc.o [4]
HAL_ADC_Init             0x800'44c5  0x110  Code  Gb  stm32f1xx_hal_adc.o [4]
HAL_ADC_LevelOutOfWindowCallback
                         0x800'55d7    0x2  Code  Wk  stm32f1xx_hal_adc.o [4]
HAL_ADC_MspInit          0x800'553d   0x84  Code  Gb  adc.o [2]
HAL_DMA_Abort_IT         0x800'678d   0xdc  Code  Gb  stm32f1xx_hal_dma.o [4]
HAL_Delay                0x800'3ee1   0x28  Code  Wk  stm32f1xx_hal.o [4]
HAL_GPIO_EXTI_Callback   0x800'2129    0x2  Code  Gb  motor.o [2]
HAL_GPIO_EXTI_IRQHandler
                         0x800'5439   0x12  Code  Gb  stm32f1xx_hal_gpio.o [4]
HAL_GPIO_Init            0x800'527d  0x1b4  Code  Gb  stm32f1xx_hal_gpio.o [4]
HAL_GPIO_WritePin        0x800'5431    0x8  Code  Gb  stm32f1xx_hal_gpio.o [4]
HAL_GetTick              0x800'4895    0xc  Code  Wk  stm32f1xx_hal.o [4]
HAL_IncTick              0x800'7195   0x10  Code  Wk  stm32f1xx_hal.o [4]
HAL_Init                 0x800'5b25   0x20  Code  Gb  stm32f1xx_hal.o [4]
HAL_InitTick             0x800'6709   0x40  Code  Wk  stm32f1xx_hal.o [4]
HAL_MspInit              0x800'6749   0x44  Code  Gb  stm32f1xx_hal_msp.o [2]
HAL_NVIC_EnableIRQ       0x800'5227   0x16  Code  Gb  stm32f1xx_hal_cortex.o [4]
HAL_NVIC_SetPriority     0x800'51ed   0x3a  Code  Gb  stm32f1xx_hal_cortex.o [4]
HAL_NVIC_SetPriorityGrouping
                         0x800'51d3   0x1a  Code  Gb  stm32f1xx_hal_cortex.o [4]
HAL_RCCEx_PeriphCLKConfig
                         0x800'65f9   0xda  Code  Gb  stm32f1xx_hal_rcc_ex.o [4]
HAL_RCC_ClockConfig      0x800'6451   0xf4  Code  Gb  stm32f1xx_hal_rcc.o [4]
HAL_RCC_GetPCLK1Freq     0x800'6591   0x10  Code  Gb  stm32f1xx_hal_rcc.o [4]
HAL_RCC_GetPCLK2Freq     0x800'65a1    0xe  Code  Gb  stm32f1xx_hal_rcc.o [4]
HAL_RCC_GetSysClockFreq
                         0x800'6559   0x38  Code  Gb  stm32f1xx_hal_rcc.o [4]
HAL_RCC_GetSysClockFreq::aPLLMULFactorTable
                         0x800'65e4   0x10  Data  Lc  stm32f1xx_hal_rcc.o [4]
HAL_RCC_GetSysClockFreq::aPredivFactorTable
                         0x800'65f4    0x2  Data  Lc  stm32f1xx_hal_rcc.o [4]
HAL_RCC_OscConfig        0x800'613d  0x30c  Code  Gb  stm32f1xx_hal_rcc.o [4]
HAL_SYSTICK_Config       0x800'523d   0x22  Code  Gb  stm32f1xx_hal_cortex.o [4]
HAL_TIMEx_BreakCallback
                         0x800'44bb    0x2  Code  Wk  stm32f1xx_hal_tim_ex.o [4]
HAL_TIMEx_CommutCallback
                         0x800'44bf    0x2  Code  Wk  stm32f1xx_hal_tim_ex.o [4]
HAL_TIMEx_ConfigBreakDeadTime
                         0x800'3563   0x54  Code  Gb  stm32f1xx_hal_tim_ex.o [4]
HAL_TIMEx_MasterConfigSynchronization
                         0x800'3525   0x3e  Code  Gb  stm32f1xx_hal_tim_ex.o [4]
HAL_TIMEx_PWMN_Start     0x800'34bd    0xa  Code  Gb  stm32f1xx_hal_tim_ex.o [4]
HAL_TIM_Base_Init        0x800'2ac5   0x1a  Code  Gb  stm32f1xx_hal_tim.o [4]
HAL_TIM_Base_MspInit     0x800'42e9   0xa2  Code  Gb  tim.o [2]
HAL_TIM_Base_Start_IT    0x800'2adf   0x20  Code  Gb  stm32f1xx_hal_tim.o [4]
HAL_TIM_ConfigClockSource
                         0x800'302b   0x90  Code  Gb  stm32f1xx_hal_tim.o [4]
HAL_TIM_Encoder_Init     0x800'2bf7   0x90  Code  Gb  stm32f1xx_hal_tim.o [4]
HAL_TIM_Encoder_MspInit
                         0x800'438b   0x8e  Code  Gb  tim.o [2]
HAL_TIM_Encoder_Start_IT
                         0x800'2c91   0x3e  Code  Gb  stm32f1xx_hal_tim.o [4]
HAL_TIM_IC_CaptureCallback
                         0x800'1d37   0x6a  Code  Gb  motor.o [2]
HAL_TIM_IC_ConfigChannel
                         0x800'2e47   0xf4  Code  Gb  stm32f1xx_hal_tim.o [4]
HAL_TIM_IC_Init          0x800'2bb9   0x1a  Code  Gb  stm32f1xx_hal_tim.o [4]
HAL_TIM_IC_MspInit       0x800'44b7    0x2  Code  Wk  stm32f1xx_hal_tim.o [4]
HAL_TIM_IC_Start_IT      0x800'2be3    0xa  Code  Gb  stm32f1xx_hal_tim.o [4]
HAL_TIM_IRQHandler       0x800'2cff  0x142  Code  Gb  stm32f1xx_hal_tim.o [4]
HAL_TIM_MspPostInit      0x800'4419   0x5c  Code  Gb  tim.o [2]
HAL_TIM_OC_DelayElapsedCallback
                         0x800'44b9    0x2  Code  Wk  stm32f1xx_hal_tim.o [4]
HAL_TIM_PWM_ConfigChannel
                         0x800'2f3b   0xbc  Code  Gb  stm32f1xx_hal_tim.o [4]
HAL_TIM_PWM_Init         0x800'2b33   0x1a  Code  Gb  stm32f1xx_hal_tim.o [4]
HAL_TIM_PWM_MspInit      0x800'44b5    0x2  Code  Wk  stm32f1xx_hal_tim.o [4]
HAL_TIM_PWM_PulseFinishedCallback
                         0x800'44c1    0x2  Code  Wk  stm32f1xx_hal_tim.o [4]
HAL_TIM_PWM_Start        0x800'2b4d   0x14  Code  Gb  stm32f1xx_hal_tim.o [4]
HAL_TIM_PeriodElapsedCallback
                         0x800'1da1   0xa2  Code  Gb  motor.o [2]
HAL_TIM_PeriodElapsedCallback{4}{5}::ms_100
                        0x2000'028c    0x4  Data  Lc  motor.o [2]
HAL_TIM_ReadCapturedValue
                         0x800'3133   0x2c  Code  Gb  stm32f1xx_hal_tim.o [4]
HAL_TIM_SlaveConfigSynchro
                         0x800'30db   0x1e  Code  Gb  stm32f1xx_hal_tim.o [4]
HAL_TIM_TriggerCallback
                         0x800'44bd    0x2  Code  Wk  stm32f1xx_hal_tim.o [4]
HAL_UART_ErrorCallback   0x800'689d    0x2  Code  Wk  stm32f1xx_hal_uart.o [4]
HAL_UART_GetState        0x800'5f89    0xc  Code  Gb  stm32f1xx_hal_uart.o [4]
HAL_UART_IRQHandler      0x800'5e2d  0x15c  Code  Gb  stm32f1xx_hal_uart.o [4]
HAL_UART_Init            0x800'5c91   0x1e  Code  Gb  stm32f1xx_hal_uart.o [4]
HAL_UART_MspInit         0x800'5c07   0x7a  Code  Gb  usart.o [2]
HAL_UART_Receive_IT      0x800'5dbf   0x56  Code  Gb  stm32f1xx_hal_uart.o [4]
HAL_UART_RxCpltCallback
                         0x800'50e9   0xb2  Code  Gb  main.o [2]
HAL_UART_Transmit        0x800'5d0b   0xaa  Code  Gb  stm32f1xx_hal_uart.o [4]
HAL_UART_TxCpltCallback
                         0x800'689f    0x2  Code  Wk  stm32f1xx_hal_uart.o [4]
HardFault_Handler        0x800'7147    0x2  Code  Gb  stm32f1xx_it.o [2]
I2C1_ER_IRQHandler       0x800'7385         Code  Wk  startup_stm32f103xe.o [3]
I2C1_EV_IRQHandler       0x800'7381         Code  Wk  startup_stm32f103xe.o [3]
I2C2_ER_IRQHandler       0x800'738d         Code  Wk  startup_stm32f103xe.o [3]
I2C2_EV_IRQHandler       0x800'7389         Code  Wk  startup_stm32f103xe.o [3]
ID_REF                  0x2000'027c    0x4  Data  Gb  motor.o [2]
IQ                      0x2000'020c    0x4  Data  Gb  main.o [2]
IQ_REF                  0x2000'0280    0x4  Data  Gb  motor.o [2]
MX_ADC1_Init             0x800'548d   0xa6  Code  Gb  adc.o [2]
MX_GPIO_Init             0x800'5b49   0x90  Code  Gb  gpio.o [2]
MX_TIM1_Init             0x800'4035  0x10e  Code  Gb  tim.o [2]
MX_TIM2_Init             0x800'414b   0x60  Code  Gb  tim.o [2]
MX_TIM3_Init             0x800'41b3   0x48  Code  Gb  tim.o [2]
MX_TIM4_Init             0x800'4209   0xc2  Code  Gb  tim.o [2]
MX_USART2_UART_Init      0x800'5bd9   0x2e  Code  Gb  usart.o [2]
MemManage_Handler        0x800'7149    0x2  Code  Gb  stm32f1xx_it.o [2]
NMI_Handler              0x800'7145    0x2  Code  Gb  stm32f1xx_it.o [2]
PID_Init                 0x800'21c7   0x4e  Code  Gb  motor.o [2]
PID_init                 0x800'38b5   0xb2  Code  Gb  pid_control.o [2]
PVD_IRQHandler           0x800'7319         Code  Wk  startup_stm32f103xe.o [3]
PWM4Direction           0x2000'0744    0x1  Data  Gb  motor.o [2]
Park_Transf              0x800'2323   0x1a  Code  Gb  motor.o [2]
PendSV_Handler           0x800'7153    0x2  Code  Gb  stm32f1xx_it.o [2]
Q_PI_I                  0x2000'02c4    0x4  Data  Gb  motor.o [2]
Q_PI_KB                 0x2000'02c8    0x4  Data  Gb  motor.o [2]
Q_PI_LOW_LIMIT          0x2000'02cc    0x4  Data  Gb  motor.o [2]
Q_PI_P                  0x2000'02d0    0x4  Data  Gb  motor.o [2]
Q_PI_UP_LIMIT           0x2000'02d4    0x4  Data  Gb  motor.o [2]
RCC_IRQHandler           0x800'7329         Code  Wk  startup_stm32f103xe.o [3]
RTC_Alarm_IRQHandler     0x800'73a1         Code  Wk  startup_stm32f103xe.o [3]
RTC_IRQHandler           0x800'7321         Code  Wk  startup_stm32f103xe.o [3]
Region$$Table$$Base      0x800'7274          --   Gb  - Linker created -
Region$$Table$$Limit     0x800'7294          --   Gb  - Linker created -
Reset_Handler            0x800'72fd         Code  Wk  startup_stm32f103xe.o [3]
Rev_Park_Transf          0x800'233d   0x1a  Code  Gb  motor.o [2]
RxBuffer                0x2000'0004  0x100  Data  Gb  main.o [2]
RxBuffer1               0x2000'0104  0x100  Data  Gb  main.o [2]
SDIO_IRQHandler          0x800'73c1         Code  Wk  startup_stm32f103xe.o [3]
SPEED_PI_I              0x2000'02d8    0x4  Data  Gb  motor.o [2]
SPEED_PI_KB             0x2000'02dc    0x4  Data  Gb  motor.o [2]
SPEED_PI_LOW_LIMIT      0x2000'02e0    0x4  Data  Gb  motor.o [2]
SPEED_PI_P              0x2000'02e4    0x4  Data  Gb  motor.o [2]
SPEED_PI_UP_LIMIT       0x2000'02e8    0x4  Data  Gb  motor.o [2]
SPI1_IRQHandler          0x800'7391         Code  Wk  startup_stm32f103xe.o [3]
SPI2_IRQHandler          0x800'7395         Code  Wk  startup_stm32f103xe.o [3]
SPI3_IRQHandler          0x800'73c9         Code  Wk  startup_stm32f103xe.o [3]
SVC_Handler              0x800'714f    0x2  Code  Gb  stm32f1xx_it.o [2]
SVPWM_Calc               0x800'2359  0x3e8  Code  Gb  motor.o [2]
Speed_Pid               0x2000'0294   0x1c  Data  Gb  motor.o [2]
Start_Up                 0x800'1fe9   0xea  Code  Gb  motor.o [2]
Start_Up::wTimebase     0x2000'0290    0x4  Data  Lc  motor.o [2]
State                   0x2000'0218    0x1  Data  Gb  motor.o [2]
SysTick_Handler          0x800'7155    0x4  Code  Gb  stm32f1xx_it.o [2]
SystemClock_Config       0x800'5057   0x7e  Code  Gb  main.o [2]
SystemCoreClock         0x2000'0310    0x4  Data  Gb  system_stm32f1xx.o [1]
SystemInit               0x800'70d9   0x46  Code  Gb  system_stm32f1xx.o [1]
TAMPER_IRQHandler        0x800'731d         Code  Wk  startup_stm32f103xe.o [3]
TIM1_BRK_IRQHandler      0x800'7371         Code  Wk  startup_stm32f103xe.o [3]
TIM1_CC_IRQHandler       0x800'737d         Code  Wk  startup_stm32f103xe.o [3]
TIM1_TRG_COM_IRQHandler
                         0x800'7379         Code  Wk  startup_stm32f103xe.o [3]
TIM1_UP_IRQHandler       0x800'7375         Code  Wk  startup_stm32f103xe.o [3]
TIM2_IRQHandler          0x800'715f    0x6  Code  Gb  stm32f1xx_it.o [2]
TIM3_IRQHandler          0x800'7165    0x6  Code  Gb  stm32f1xx_it.o [2]
TIM4_IRQHandler          0x800'716b    0x6  Code  Gb  stm32f1xx_it.o [2]
TIM5_IRQHandler          0x800'73c5         Code  Wk  startup_stm32f103xe.o [3]
TIM6_IRQHandler          0x800'73d5         Code  Wk  startup_stm32f103xe.o [3]
TIM7_IRQHandler          0x800'73d9         Code  Wk  startup_stm32f103xe.o [3]
TIM8_BRK_IRQHandler      0x800'73a9         Code  Wk  startup_stm32f103xe.o [3]
TIM8_CC_IRQHandler       0x800'73b5         Code  Wk  startup_stm32f103xe.o [3]
TIM8_TRG_COM_IRQHandler
                         0x800'73b1         Code  Wk  startup_stm32f103xe.o [3]
TIM8_UP_IRQHandler       0x800'73ad         Code  Wk  startup_stm32f103xe.o [3]
TIM_Base_SetConfig       0x800'315f   0x74  Code  Gb  stm32f1xx_hal_tim.o [4]
TIM_CCxChannelCmd        0x800'349f   0x16  Code  Gb  stm32f1xx_hal_tim.o [4]
TIM_CCxNChannelCmd       0x800'35b7   0x1c  Code  Lc  stm32f1xx_hal_tim_ex.o [4]
TIM_ETR_SetConfig        0x800'348b   0x14  Code  Gb  stm32f1xx_hal_tim.o [4]
TIM_ITRx_SetConfig       0x800'347b   0x10  Code  Lc  stm32f1xx_hal_tim.o [4]
TIM_OC1_SetConfig        0x800'31d3   0x58  Code  Lc  stm32f1xx_hal_tim.o [4]
TIM_OC2_SetConfig        0x800'322b   0x60  Code  Gb  stm32f1xx_hal_tim.o [4]
TIM_OC3_SetConfig        0x800'328b   0x5e  Code  Lc  stm32f1xx_hal_tim.o [4]
TIM_OC4_SetConfig        0x800'32e9   0x46  Code  Lc  stm32f1xx_hal_tim.o [4]
TIM_SlaveTimer_SetConfig
                         0x800'332f   0x72  Code  Lc  stm32f1xx_hal_tim.o [4]
TIM_TI1_ConfigInputStage
                         0x800'340d   0x1e  Code  Lc  stm32f1xx_hal_tim.o [4]
TIM_TI1_SetConfig        0x800'33a1   0x52  Code  Gb  stm32f1xx_hal_tim.o [4]
TIM_TI2_ConfigInputStage
                         0x800'3457   0x24  Code  Lc  stm32f1xx_hal_tim.o [4]
TIM_TI2_SetConfig        0x800'342b   0x2c  Code  Lc  stm32f1xx_hal_tim.o [4]
Transf_Cos_Sin          0x2000'0754    0x8  Data  Gb  motor.o [2]
UART4_IRQHandler         0x800'73cd         Code  Wk  startup_stm32f103xe.o [3]
UART5_IRQHandler         0x800'73d1         Code  Wk  startup_stm32f103xe.o [3]
UART_DMAAbortOnError     0x800'600d    0xe  Code  Lc  stm32f1xx_hal_uart.o [4]
UART_EndRxTransfer       0x800'5fef   0x1c  Code  Lc  stm32f1xx_hal_uart.o [4]
UART_Receive_IT          0x800'601d   0x92  Code  Lc  stm32f1xx_hal_uart.o [4]
UART_SetConfig           0x800'60af   0x7a  Code  Lc  stm32f1xx_hal_uart.o [4]
UART_WaitOnFlagUntilTimeout
                         0x800'5f95   0x5a  Code  Lc  stm32f1xx_hal_uart.o [4]
USART1_IRQHandler        0x800'7399         Code  Wk  startup_stm32f103xe.o [3]
USART2_IRQHandler        0x800'7171    0x6  Code  Gb  stm32f1xx_it.o [2]
USART3_IRQHandler        0x800'739d         Code  Wk  startup_stm32f103xe.o [3]
USBWakeUp_IRQHandler     0x800'73a5         Code  Wk  startup_stm32f103xe.o [3]
USB_HP_CAN1_TX_IRQHandler
                         0x800'735d         Code  Wk  startup_stm32f103xe.o [3]
USB_LP_CAN1_RX0_IRQHandler
                         0x800'7361         Code  Wk  startup_stm32f103xe.o [3]
Uart1_Rx_Cnt            0x2000'0000    0x1  Data  Gb  main.o [2]
UsageFault_Handler       0x800'714d    0x2  Code  Gb  stm32f1xx_it.o [2]
Voltage_Alpha_Beta      0x2000'074c    0x8  Data  Gb  motor.o [2]
Voltage_DQ              0x2000'075c    0x8  Data  Gb  motor.o [2]
WWDG_IRQHandler          0x800'7315         Code  Wk  startup_stm32f103xe.o [3]
_LC                      0x800'0131    0x6  Code  Lc  xprintffull_nomb.o [5]
_LitobFullNoMb           0x800'0e19  0x114  Code  Lc  xprintffull_nomb.o [5]
_LocaleC_isalpha         0x800'1b13    0xc  Code  Gb  xlocale_c.o [5]
_LocaleC_islower         0x800'1b0d    0x4  Code  Gb  xlocale_c.o [5]
_LocaleC_isspace         0x800'1b29   0x14  Code  Gb  xlocale_c.o [5]
_LocaleC_isupper         0x800'1b11    0x2  Code  Gb  xlocale_c.o [5]
_Locale_lconv           0x2000'0314   0x38  Data  Lc  xlocale_c.o [5]
_PrintfFullNoMb          0x800'0137  0xcb2  Code  Gb  xprintffull_nomb.o [5]
_Prout                   0x800'72e5   0x16  Code  Gb  xprout.o [5]
_PutcharsFullNoMb        0x800'0f85   0x2e  Code  Lc  xprintffull_nomb.o [5]
__NVIC_SetPriority       0x800'51b9   0x1a  Code  Lc  stm32f1xx_hal_cortex.o [4]
__aeabi_cdcmple          0x800'1279         Code  Gb  DblCmpLe.o [6]
__aeabi_cdrcmple         0x800'12ad         Code  Gb  DblCmpGe.o [6]
__aeabi_d2f              0x800'3999         Code  Gb  DblToFlt.o [6]
__aeabi_d2iz             0x800'141d         Code  Gb  DblToS32.o [6]
__aeabi_d2uiz            0x800'1921         Code  Gb  DblToU32.o [6]
__aeabi_dadd             0x800'1479         Code  Gb  DblAddSub.o [6]
__aeabi_ddiv             0x800'16d9         Code  Gb  DblDiv.o [6]
__aeabi_dmul             0x800'1961         Code  Gb  DblMul.o [6]
__aeabi_dsub             0x800'15f5         Code  Gb  DblAddSub.o [6]
__aeabi_f2d              0x800'3a01         Code  Gb  FltToDbl.o [6]
__aeabi_i2d              0x800'1455         Code  Gb  S32ToDbl.o [6]
__aeabi_ldiv0            0x800'1c59         Code  Gb  I64DivZer.o [7]
__aeabi_memclr4          0x800'6135         Code  Gb  ABImemclr4.o [7]
__aeabi_memcpy           0x800'1161         Code  Gb  ABImemcpy.o [7]
__aeabi_memcpy4          0x800'1181         Code  Gb  ABImemcpy.o [7]
__aeabi_memcpy8          0x800'1181         Code  Gb  ABImemcpy.o [7]
__aeabi_memset           0x800'5abd         Code  Gb  ABImemset.o [7]
__aeabi_ui2d             0x800'1945         Code  Gb  U32ToDbl.o [6]
__cmain                  0x800'7295         Code  Gb  cmain.o [7]
__exit                   0x800'1c5d   0x14  Code  Gb  exit.o [8]
__iar_Fail_s             0x800'1091   0x1c  Code  Gb  xfail_s.o [5]
__iar_Memchr             0x800'1109         Code  Gb  memchr.o [7]
__iar_Memset             0x800'5abd         Code  Gb  ABImemset.o [7]
__iar_Memset4_word       0x800'68a1         Code  Gb  ABImemset48.o [7]
__iar_Memset8_word       0x800'68a1         Code  Gb  ABImemset48.o [7]
__iar_Memset_word        0x800'5ac5         Code  Gb  ABImemset.o [7]
__iar_Sin64              0x800'4c05  0x370  Code  Lc  cos_sin64.o [6]
__iar_Sto                0x800'4bf9    0x4  Code  Lc  strto64.o [6]
__iar_Sto64              0x800'4a81  0x140  Code  Gb  strto64.o [6]
__iar_Stoflt             0x800'56fd  0x1b8  Code  Gb  iar_Stoflt.o [5]
__iar_Stopfx             0x800'55d9  0x122  Code  Gb  iar_Stopfx.o [5]
__iar_Stoxflt            0x800'58b5  0x1d2  Code  Gb  iar_Stoxflt.o [5]
__iar_Stoxflt::digits    0x800'5a8c   0x18  Data  Lc  iar_Stoxflt.o [5]
__iar_Stoxflt::vals      0x800'5aa4   0x18  Data  Lc  iar_Stoxflt.o [5]
__iar_Strchr             0x800'1079         Code  Gb  strchr.o [7]
__iar_cos64              0x800'5005    0x4  Code  Gb  cos_sin64.o [6]
__iar_cos_medium         0x800'5005    0x4  Code  Gb  cos_sin64.o [6]
__iar_cos_medium64       0x800'5005    0x4  Code  Gb  cos_sin64.o [6]
__iar_cos_mediuml        0x800'5005    0x4  Code  Gb  cos_sin64.o [6]
__iar_data_init3         0x800'7229   0x28  Code  Gb  data_init.o [7]
__iar_fmod32             0x800'3a81         Code  Gb  fmodf.o [6]
__iar_frexp              0x800'1215         Code  Gb  frexp.o [6]
__iar_frexpl             0x800'1215         Code  Gb  frexp.o [6]
__iar_globLocale        0x2000'034c   0x48  Data  Lc  xlocale_c.o [5]
__iar_global_Locale      0x800'1b3d    0x4  Code  Gb  xlocale_c.o [5]
__iar_init_vfp           0x800'7251         Code  Gb  fpinit_M.o [6]
__iar_ldexp64            0x800'12e1         Code  Gb  ldexp.o [6]
__iar_lz77_init_single3
                         0x800'0ffb   0x7e  Code  Gb  lz77_init_single.o [7]
__iar_program_start      0x800'72c9         Code  Gb  cstartup_M.o [7]
__iar_scalbln64          0x800'12e1         Code  Gb  ldexp.o [6]
__iar_scalbn64           0x800'12e1         Code  Gb  ldexp.o [6]
__iar_sin64              0x800'5009    0x4  Code  Gb  cos_sin64.o [6]
__iar_sin_medium         0x800'5009    0x4  Code  Gb  cos_sin64.o [6]
__iar_sin_medium64       0x800'5009    0x4  Code  Gb  cos_sin64.o [6]
__iar_sin_mediuml        0x800'5009    0x4  Code  Gb  cos_sin64.o [6]
__iar_small_uldivmod     0x800'1b4d         Code  Gb  I64DivMod_small.o [7]
__iar_softfp___iar_frexp64
                         0x800'1209         Code  Gb  frexp.o [6]
__iar_softfp_frexp       0x800'1209         Code  Gb  frexp.o [6]
__iar_softfp_frexpl      0x800'1209         Code  Gb  frexp.o [6]
__iar_sqrt64             0x800'3f41         Code  Gb  sqrt.o [6]
__iar_vfp___iar_fmod32   0x800'3a71         Code  Gb  fmodf.o [6]
__iar_vfp___iar_sqrt64   0x800'3f31         Code  Gb  sqrt.o [6]
__iar_vfp_atof           0x800'3f0f    0x8  Code  Gb  math_wrappers64.o [6]
__iar_vfp_cos            0x800'3f17    0xc  Code  Gb  math_wrappers64.o [6]
__iar_vfp_fmodf          0x800'3a71         Code  Gb  fmodf.o [6]
__iar_vfp_sin            0x800'3f23    0xc  Code  Gb  math_wrappers64.o [6]
__iar_vfp_sqrt           0x800'3f31         Code  Gb  sqrt.o [6]
__iar_vfp_sqrtl          0x800'3f31         Code  Gb  sqrt.o [6]
__iar_zero_init3         0x800'71f1   0x38  Code  Gb  zero_init3.o [7]
__low_level_init         0x800'72b3    0x4  Code  Gb  low_level_init.o [5]
__vector_table           0x800'0000         Data  Gb  startup_stm32f103xe.o [3]
_call_main               0x800'72a1         Code  Gb  cmain.o [7]
_exit                    0x800'72bd         Code  Gb  cexit.o [7]
aRxBuffer               0x2000'0768    0x1  Data  Gb  main.o [2]
abort                    0x800'1c53    0x6  Code  Gb  abort.o [5]
arm_cos_f32              0x800'3dc9   0x80  Code  Gb  arm_cos_f32.o [2]
arm_sin_f32              0x800'3e49   0x98  Code  Gb  arm_sin_f32.o [2]
atof                     0x800'4bfd    0x6  Code  Gb  strto64.o [6]
bIs_First_Measurement   0x2000'02ec    0x1  Data  Lc  motor.o [2]
bSpeed_Buffer_Index     0x2000'0219    0x1  Data  Lc  motor.o [2]
board_config             0x800'1c71   0xae  Code  Gb  motor.o [2]
clarke_transform         0x800'2949    0x4  Code  Gb  motor.o [2]
cnt                     0x2000'0284    0x4  Data  Gb  motor.o [2]
cos                      0x800'5005    0x4  Code  Gb  cos_sin64.o [6]
cosl                     0x800'5005    0x4  Code  Gb  cos_sin64.o [6]
curret_Id_pid           0x2000'0448   0x30  Data  Gb  pid_control.o [2]
curret_Iq_pid           0x2000'0478   0x30  Data  Gb  pid_control.o [2]
enc_over_flag           0x2000'021a    0x1  Data  Gb  motor.o [2]
exit                     0x800'72b7    0x4  Code  Gb  exit.o [5]
fmodf                    0x800'3a81         Code  Gb  fmodf.o [6]
foc                     0x2000'0254   0x18  Data  Gb  motor.o [2]
foc_algorithm_step       0x800'1e51  0x178  Code  Gb  motor.o [2]
foc_step                 0x800'3b3d  0x230  Code  Gb  foc.o [2]
g_encode                0x2000'064c    0xc  Data  Gb  motor.o [2]
g_timx_encode_count     0x2000'0288    0x4  Data  Gb  motor.o [2]
get_Iab                  0x800'2135   0x7e  Code  Gb  motor.o [2]
get_Iab::I_temp         0x2000'0704    0xc  Data  Lc  motor.o [2]
get_Iab::Ib_temp        0x2000'0720    0x4  Data  Lc  motor.o [2]
gtim_get_encode          0x800'2859   0x28  Code  Gb  motor.o [2]
hEncoder_Timer_Overflow
                        0x2000'02f2    0x2  Data  Lc  motor.o [2]
hPhaseA_OffSet          0x2000'0710    0x4  Data  Gb  motor.o [2]
hPhaseB_OffSet          0x2000'0714    0x4  Data  Gb  motor.o [2]
hPhasebus_OffSet        0x2000'0718    0x4  Data  Gb  motor.o [2]
hPrevious_angle         0x2000'02ee    0x2  Data  Gb  motor.o [2]
hRot_Speed              0x2000'02f0    0x2  Data  Gb  motor.o [2]
hSpeed_Buffer           0x2000'02f4   0x10  Data  Gb  motor.o [2]
hadc1                   0x2000'0684   0x30  Data  Gb  adc.o [2]
htim1                   0x2000'0508   0x40  Data  Gb  tim.o [2]
htim2                   0x2000'0548   0x40  Data  Gb  tim.o [2]
htim3                   0x2000'0588   0x40  Data  Gb  tim.o [2]
htim4                   0x2000'05c8   0x40  Data  Gb  tim.o [2]
huart2                  0x2000'0608   0x40  Data  Gb  usart.o [2]
id_pid                  0x2000'0394   0x3c  Data  Gb  pid_control.o [2]
inverseParkTransform     0x800'2a55   0x62  Code  Gb  motor.o [2]
iq_pid                  0x2000'03d0   0x3c  Data  Gb  pid_control.o [2]
isalpha                  0x800'66f5   0x14  Code  Gb  isalpha.o [5]
isspace                  0x800'66e1   0x14  Code  Gb  isspace.o [5]
ldexp                    0x800'12e1         Code  Gb  ldexp.o [6]
ldexpl                   0x800'12e1         Code  Gb  ldexp.o [6]
localeconv               0x800'1b41    0x4  Code  Gb  xlocale_c.o [5]
main                     0x800'5021   0x36  Code  Gb  main.o [2]
memchr                   0x800'1109         Code  Gb  memchr.o [7]
memset                   0x800'500d   0x14  Code  Gb  memset.o [7]
park_transform           0x800'294d   0x4c  Code  Gb  motor.o [2]
position_loop_pid       0x2000'04d8   0x30  Data  Gb  pid_control.o [2]
pows                     0x800'71a8   0x48  Data  Lc  strto64.o [6]
printf                   0x800'3a49   0x28  Code  Gb  printf.o [5]
putchar                  0x800'50d5   0x14  Code  Gb  main.o [2]
pwm_encoder             0x2000'0724   0x20  Data  Gb  motor.o [2]
rtU                     0x2000'06b8   0x18  Data  Gb  foc.o [2]
rtY                     0x2000'06d0   0x10  Data  Gb  foc.o [2]
rxbuffer2               0x2000'0204    0x4  Data  Gb  main.o [2]
scalbln                  0x800'12e1         Code  Gb  ldexp.o [6]
scalblnl                 0x800'12e1         Code  Gb  ldexp.o [6]
scalbn                   0x800'12e1         Code  Gb  ldexp.o [6]
scalbnl                  0x800'12e1         Code  Gb  ldexp.o [6]
scale                    0x800'0f2d   0x46  Code  Lc  xprintffull_nomb.o [5]
sec_hand                0x2000'0764    0x4  Data  Lc  xfail_s.o [5]
sector                  0x2000'0748    0x4  Data  Gb  motor.o [2]
sin                      0x800'5009    0x4  Code  Gb  cos_sin64.o [6]
sinTable_f32             0x800'68d4  0x804  Data  Gb  arm_common_tables.o [2]
sinl                     0x800'5009    0x4  Code  Gb  cos_sin64.o [6]
speed                   0x2000'0208    0x4  Data  Gb  main.o [2]
speed_computer           0x800'2751  0x100  Code  Gb  motor.o [2]
speed_computer::k       0x2000'0649    0x1  Data  Lc  motor.o [2]
speed_computer::sp_count
                        0x2000'0648    0x1  Data  Lc  motor.o [2]
speed_computer::speed_arr
                        0x2000'0658   0x28  Data  Lc  motor.o [2]
speed_loop_pid          0x2000'04a8   0x30  Data  Gb  pid_control.o [2]
speed_motor             0x2000'0680    0x4  Data  Gb  motor.o [2]
speed_pid               0x2000'040c   0x3c  Data  Gb  pid_control.o [2]
sqrt                     0x800'3f41         Code  Gb  sqrt.o [6]
sqrtl                    0x800'3f41         Code  Gb  sqrt.o [6]
strchr                   0x800'1079         Code  Gb  strchr.o [7]
strlen                   0x800'10d1         Code  Gb  strlen.o [7]
ta                      0x2000'06ec    0x2  Data  Gb  motor.o [2]
tb                      0x2000'06ee    0x2  Data  Gb  motor.o [2]
tc                      0x2000'06f0    0x2  Data  Gb  motor.o [2]
test_ab                 0x2000'06f4    0x8  Data  Gb  motor.o [2]
test_dq                 0x2000'06fc    0x8  Data  Gb  motor.o [2]
uwTick                  0x2000'0308    0x4  Data  Gb  stm32f1xx_hal.o [4]
uwTickFreq              0x2000'0304    0x1  Data  Gb  stm32f1xx_hal.o [4]
uwTickPrio              0x2000'030c    0x4  Data  Gb  stm32f1xx_hal.o [4]


[1] = F:\open\stm32cubmx\6.5kw\bldc-control-keil\bldc-contorl2\EWARM\bldc-contorl\Obj\CMSIS_6603591812247902717.dir
[2] = F:\open\stm32cubmx\6.5kw\bldc-control-keil\bldc-contorl2\EWARM\bldc-contorl\Obj\Core_13247989168731456611.dir
[3] = F:\open\stm32cubmx\6.5kw\bldc-control-keil\bldc-contorl2\EWARM\bldc-contorl\Obj\EWARM_18443280873093131863.dir
[4] = F:\open\stm32cubmx\6.5kw\bldc-control-keil\bldc-contorl2\EWARM\bldc-contorl\Obj\STM32F1xx_HAL_Driver_9701002599162248031.dir
[5] = dl7M_tlf.a
[6] = m7M_tls.a
[7] = rt7M_tl.a
[8] = shb_l.a

  27'499 bytes of readonly  code memory
   2'303 bytes of readonly  data memory
   2'921 bytes of readwrite data memory

Errors: none
Warnings: none
