:020000040800F2
:10000000700B0020FD720008457100084771000860
:10001000497100084B7100084D7100080000000094
:100020000000000000000000000000004F71000808
:10003000517100080000000053710008557100085C
:1000400015730008197300081D7300082173000858
:1000500025730008297300082D7300083173000808
:1000600035730008397300083D73000841730008B8
:1000700045730008497300084D7300085173000868
:100080005573000859730008597100085D73000822
:100090006173000865730008697300086D730008D8
:1000A0007173000875730008797300087D73000888
:1000B0005F710008657100086B71000881730008AA
:1000C00085730008897300088D7300089173000818
:1000D0009573000899730008717100089D730008FA
:1000E0008D710008A1730008A5730008A9730008AA
:1000F000AD730008B1730008B5730008B973000848
:10010000BD730008C1730008C5730008C9730008F7
:10011000CD730008D1730008D5730008D9730008A7
:10012000DD730008E1730008E5730008E973000857
:1001300040F0200070472DE9F14FB0B09246049195
:100140000DF142013A9A2B9199464A7000200AE03B
:100150001AF8011B0498309A90470028049000F088
:1001600041860D98401C0D909AF8000050B125284A
:10017000EED1002100220791089209910A920B9179
:100180000C9204E00D9800F02FBE41F001011AF826
:10019000010F2028F9D023280CD02B2804D02D289B
:1001A00005D0302809D00BE041F00201EFE741F023
:1001B0000401ECE741F00801E9E741F01001E6E74E
:1001C0002A280FD1D9F8002052F8040BC9F80020D2
:1001D00000280F9003D540420F9041F004010AF12E
:1001E000010A14E00F92DFF8083C0AE00F989842E9
:1001F00005DA00EB800402EB4402303A0F920AF178
:10020000010A9AF80020A2F130000A28EED39AF8E9
:1002100000002E2803D04FF0FF320E9229E01AF88A
:10022000010F2A2809D1D9F8000050F8042BC9F889
:1002300000000E920AF1010A1BE02D280CBF0AF102
:10024000010A002000220E92DFF8A44B0BE040B917
:100250000E9AA24205DA02EB820503EB4503303B1E
:100260000E930AF1010A9AF80030A3F130020A2A2B
:10027000EDD3ADF840100FF67C309AF8001000F086
:10028000FBFE08B11AF8010B8DF842009DF8420000
:10029000682805D19AF8000068280CD1622106E090
:1002A0006C2804BF9AF800006C2804D171218DF8E5
:1002B00042100AF1010A12A806901AF801BBBBF11C
:1002C00025012CD01C3900F09481091F022940F22D
:1002D0009081133900F0B884093900F08A81891EB1
:1002E00000F04D85491E00F0FA84491E022940F2B3
:1002F0008081091F00F0F384491F00F0EF80491E40
:1003000000F0A284491E00F0D780C91E0CD0891EBF
:1003100000F09A84C91E00F0978400F03BBD0123D1
:100320000793252100F033BDD9F8000050F8044BA5
:10033000C9F80000002C059440F0AB802B99487858
:10034000002800F0A1804FF0FF340FF6B02000F03D
:100350009FFE241A40F0468500F028BD01236A461E
:1003600002A9304600F00EFE002840F03B85641ED6
:10037000F4D13096079C12AF74B1309E17F8011B70
:100380000498B0470028049000F02C850D98401C7C
:10039000641E0D90F2D130960A9C3021002C8DF80D
:1003A00000100CDD309E01236A4602A9304600F0A1
:1003B000E9FD002840F01685641EF4D13096059FB3
:1003C000089C74B1309E17F8011B0498B0470028B0
:1003D000049000F007850D98401C641E0D90F2D12A
:1003E00030960B9C3021002C8DF800100CDD309ED7
:1003F00001236A4602A9304600F0C4FD002840F0FF
:10040000F184641EF4D1309605980899099C471828
:1004100074B1309E17F8011B0498B047002804906F
:1004200000F0E0840D98401C641E0D90F2D13096CF
:100430000C9C3021002C8DF800100CDD309E012327
:100440006A4602A9304600F09DFD002840F0CA84AB
:10045000641EF4D130969DF8400041077FF584AECC
:100460002020002D8DF800007FF77EAE309C012308
:100470006A4602A9204600F085FD002840F0B284BB
:100480006D1EF4D130946FE60FF65830059000F0F1
:100490008DBC0E9D002D04D5204600F019FE0446AB
:1004A00007E02A46204600F02FFE002814BF041B58
:1004B0002C46089400F07ABCD9F8001051F8040BCF
:1004C000C9F8001020F00004002121F0FF35CDE92B
:1004D000024512AB0593782100F04DBC2B9948786A
:1004E00020B14FF0FF340FF6CC2030E79DF84200EA
:1004F000622860D0682817D06A283FD06C2806D0C0
:10050000712847D074282CD07A281DD062E0D9F801
:10051000001051F8040BC9F80010002866D14FF004
:10052000FF340FF6A82012E7D9F8001051F8040B99
:10053000C9F8001020B94FF0FF340FF6902006E7FD
:100540000D99018000F032BCD9F8001051F8040B6D
:10055000C9F80010002849D14FF0FF340FF66C2085
:10056000F5E6D9F8001051F8040BC9F8001000287E
:100570003CD14FF0FF340FF65420E8E6D9F80010D4
:1005800051F8040BC9F8001080B94FF0FF340FF692
:100590003C20DCE6D9F8001051F8040BC9F8001033
:1005A00020B94FF0FF340FF62420D0E60D9AD31770
:1005B000C0E90023FAE3D9F8001051F8040BC9F898
:1005C000001020B94FF0FF340FF60020BFE60D9960
:1005D0000170EBE3D9F8001051F8040BC9F80010D2
:1005E00020B94FF0FF340FF6E410B0E60D9901602A
:1005F000DCE39DF842004C2807BFD9F80010CA1D63
:10060000D9F80000C21D22F00702C9F80020D2E983
:1006100000010832C9F80020CDE90201C80F02D05C
:1006200007982D210AE0BDF84000810702D5079800
:100630002B2103E0C00705D50798202112AA1154E9
:10064000401C079012A807994BF0200300EB010C07
:10065000DDE90201CDE92C01612BCDF814C021ACFC
:100660000BD00E98002848BF062105D404BF4BF0DC
:100670002000672801D101210E91DDE902014F0020
:1006800047EAD0777E15FF174FF0FF32974208BF39
:10069000964210D1090341EA10510003002908BF16
:1006A000002808D0ABF1610503211A2D089118D359
:1006B0000FF6381110E0DDE902014A00521512F17F
:1006C000010F11D108030FD1ABF1610503211A2DE0
:1006D00008911FD30FF61C110322604600F040FD65
:1006E00064E30FF60411F7E7DDE902016A4600F062
:1006F0008BFDCDE902014BF02000612811D1059856
:1007000030210170821C0592BBF1610F0CBF782172
:10071000582102E00FF6D801DEE741700798801CEF
:100720000790DDE9020120F0000231F0004308BF2C
:10073000002A02D10026002542E14BF02008B8F142
:10074000610F40F092800E98002847BF212101914F
:10075000401C0190019FDDE92C017F1C0022002339
:10076000DDE9024500F088FD38BF85F000450099BD
:100770008DF88420091F002F00910DF1850632DDD0
:10078000204629460022002300F090FD2BD21C2297
:1007900000F0A6FD04460D4600F040FEFF1F002FAE
:1007A000804609DD00F056FE02460B4620462946EB
:1007B00000F020FF04460D46F01D0721B8F1000FA0
:1007C0000CDD491E5EBF08F00F0200F8012D4FEA54
:1007D0002818F3D502E0002200F8012D491EFAD5B1
:1007E000C61D002FCCDC0DF18500361A01980DF1E5
:1007F00085048642D8BF304600282FD4B04206DA9E
:100800000DF185010A5C082AA8BF0F2100DA00213A
:10081000024621AB134400E0401E13F80159521E5A
:100820008D42F9D00F2904D10DF185018B5C5B1C41
:100830008B54002A04D50099091D21AC401C00915D
:10084000411E0BD4621813783033DDB23A2DA4BFA9
:100850005B443A3B491E02F80139F4D50E99002950
:1008600040F1AC80421E0E92A8E00099DFF8042708
:1008700047F29750414391FBF2F20092DDE92C459B
:10088000C2F10702002A25F0004504DD2046294672
:1008900000F04CFB0BE052420020DFF8DC1600F0C9
:1008A00045FB02460B462046294600F015FF04464C
:1008B0000D46B8F1660F06BF009F0A3706270E984F
:1008C0003F18142FC8BF142730208DF884000DF175
:1008D0008506002F34DD2046294601F021F8014627
:1008E0000A4606F1080304200A26B2FBF6F606EBD8
:1008F000860EA2EB4E02303203F8012C0A22B6FB20
:10090000F2F202EB820EA6EB4E063036401E03F8E2
:10091000026DE9D1083F002F03F10806D9DD084632
:1009200001F010F802460B462046294600F062FE10
:100930000022DFF8483601F013F804460D46CAE7F6
:100940000DF18500361A0DF1850404E00098401E73
:10095000761E0090641C20783028F7D0B8F1660F1E
:1009600002D10098401C04E0B8F1650F0CBF0120D3
:1009700000200E9940188642B8BF701E00281DD472
:10098000B04204DA215C3429C8BF392100DC3021AF
:100990000246631E9D1800E0401E15F80169521EB4
:1009A0008E42F9D0392902D1A15C491CA154002AF8
:1009B00004D50099491C1C46401C00910646009D28
:1009C00001F0BEF8406A0778DDF8388030B20028C0
:1009D00002DC01260FF220644BF02000662808BFDD
:1009E0006D1C16D0672845D128B210F1040F47DBE3
:1009F000404545DA9DF840006D1C010703D430B234
:100A00004045D8BF804628B2B8EB000848BF4FF039
:100A100000080FFA85FBBBF1000F00F3B4800898C3
:100A2000411C0891302205990A54B8F1000F03DCEB
:100A30009DF84000010704D50898411C08910599CC
:100A40000F5418EB0B0FB8BFC8F100052DB2684268
:100A5000454432B20B909542B8BF2E46059B08988C
:100A600036B2099632462146184400F079FBAD1B98
:100A70000C95D2E0BBF1610F17D14FF0700B19E06C
:100A800030B2404504DA9DF840100A0758BF80464E
:100A9000B8F1010848BF4FF00008BBF1670F14BF61
:100AA0004FF0450B4FF0650B04E0BBF1410F08BF61
:100AB0004FF0500B0898411C0891B8F1000F0599B0
:100AC00014F8012B0A5403DC9DF8400001071AD5E5
:100AD0000898411C0891B8F1000F05990F5412DDD8
:100AE000761E30B28045B8BF46460598089B32B2A4
:100AF0002146184400F034FB089936B27118089169
:100B0000A8EB06000B9005980899084429B2002923
:100B100080F800B003D42B224270821C04E02D2206
:100B200042700D46821C6D4200212CAB28460AE023
:100B300004460A2094FBF0F000EB8005A4EB45048A
:100B400003F8014B491C00B20028F1DC012906DC46
:100B50004BF02000652804BF302002F8010B00296B
:100B60002CAB08D1302002F8010B06E0491E585C7E
:100B7000303002F8010B0029F8DC05990898084488
:100B8000121A099249E030B229B288421CDA05985B
:100B9000089B32B22146184400F0E2FA089936B2B6
:100BA00071180891ABEB0600B8F1000F0B9003DC55
:100BB0009DF84000020704D5059847540999491C3F
:100BC0000991CDF8308028E00598089B2AB221468B
:100BD000184400F0C5FA0898761B5844B8F1000F85
:100BE000089003DC9DF840100A0703D5411C0891CA
:100BF00005990F5430B28045B8BF46460598089B0A
:100C000032B204EB0B01184400F0AAFA089836B28D
:100C100030180890A8EB06000B909DF8400000F0FB
:100C20001400102840F0C280079A08980B99821887
:100C300009988A1882180C980F998018884280F2B7
:100C4000B580081A0A90B1E09DF84200622808D0E9
:100C500068280ED06A2814D06C281FD0712810D0B4
:100C60001CE0D9F8001051F8040BC9F80010C0B20C
:100C70001AE0D9F8001051F8040BC9F8001080B23E
:100C800012E0D9F80000C21D22F00702C9F80020C6
:100C9000D2E900010832C9F8002006E0D9F80010B6
:100CA00051F8040BC9F800100021CDE902019DF8AC
:100CB000400001075AD5DDE90223002B08BF002AB6
:100CC00054D04BF02000782850D1079812A9302238
:100CD0000A54401C431C079301F800B046E09DF8FD
:100CE0004200622808D068280ED06A2814D06C28E8
:100CF0001FD0712810D01CE0D9F8001051F8040B57
:100D0000C9F8001040B21AE0D9F8001051F8040BED
:100D1000C9F8001000B212E0D9F80000C21D22F09C
:100D20000702C9F80020D2E900010832C9F8002002
:100D300006E0D9F8001051F8040BC9F80010C117EB
:100D4000CDE90201002902D507982D210AE0BDF85E
:100D50004000810702D507982B2103E0C00705D585
:100D60000798202112AA1154401C079012A8079935
:100D700001440591594602A800F04EF816E0012002
:100D80000790D9F8000050F8041BC9F800008DF84E
:100D900048100BE001212522BBF1000F07918DF8CF
:100DA000482003D0022207928DF849B00F9D079981
:100DB0000A986D1A08992D1A0B986D1A09992D1A0F
:100DC0000C986D1A9DF840102D1A48073FF5D2AACD
:100DD0002021002D8DF800107FF7CCAA309E2C46E4
:100DE000FFF7BCBA4FF0FF3031B0BDE8F08F000024
:100DF000CBCCCC0C686A6C747A4C00007072696E53
:100E000074665F733A2062616420257320617267A3
:100E1000756D656E740000002DE9FC4707468A4633
:100E20003C6950466F2808BF082505D0FFF780F9B8
:100E3000782814BF0A251025D7E900013C268046F2
:100E40008946BAF1640F18BFBAF1690F05D10029BC
:100E500003D5D8F1000869EB4909B9F1000F08BFC3
:100E6000B8F1000F0CD1386B50B9082D3AD197F872
:100E70003800010736D530223B2684F83B2031E08C
:100E80008DF800A0404649462A46EB1700F05EFE6A
:100E90003032D0B2761E3A2801960EDAA25540467C
:100EA00049462A46EB1700F051FE80465FEA0109E9
:100EB00008BFB8F1000F05D108E09DF80000121836
:100EC000513AEBE7F868A1198842DBD3082D09D124
:100ED00097F83800010705D5A05D302802D0761EAE
:100EE0003020A055C6F13C03BB61A119F960386BF5
:100EF000834208DAC31A3B624FF6EF70398F014024
:100F00003987BDE8F38700280ED597F8380000F040
:100F10001400102808D17A6B7969386A521A121AAB
:100F2000D21A002AC8BF3A62BDE8F3872DE9D04340
:100F300006460F4614464FF00008DFF8449012E0D2
:100F4000E00707D542464B463046394600F008FDDB
:100F500006460F464046494642464B4600F000FDD5
:100F6000641080468946002CEAD130463946BDE8F7
:100F7000D0830000A08601000000F03F84D7974195
:100F800000002440F8B505460E4617461C460020D2
:100F90005CB117F8011BB068A847B06030B1F06AC7
:100FA000401CF0620020641EF3D1F2BD4FF0FF3010
:100FB000F2BD00007072696E74665F733A20256E30
:100FC00020646973616C6C6F776564007072696E20
:100FD00074663A2062616420256E20617267756DC7
:100FE000656E7400000000006E616E004E414E00A0
:100FF000696E6600494E46003000F0B40246106843
:1010000095681318506803EB5004C00748BF4D445F
:10101000A3422DD013F8016B16F0030004BF13F8A0
:10102000010BC01C31090F2907D113F8011B0F3127
:1010300003E013F8017B05F8017B401EF9D100297C
:10104000E6D013F8010BC6F38106032E08BF13F890
:10105000016B00EB0620404228440026B71E8F4259
:101060001EBF10F8017B05F8017B761CF6D1CFE797
:10107000F0BC02F10C007047C9B202788A421AB182
:101080001CBF10F8012FF9E718BF002070472E0091
:1010900080B500B906A005490B681BB122220021CA
:1010A000984701E000F0D5FD222002BD6407002032
:1010B000636F6E73747261696E742068616E646CC4
:1010C00065723A20626164206D65737361676500C3
:1010D00000F10103810704D010F8011B820781B1E0
:1010E000FAD10268A2F10131914311F0803104BFBD
:1010F00050F8042FF6E709BAB1FA81F100EBD100FC
:10110000401CC01A70474300C9B2830706D0521E64
:1011100022D310F8013B9942F7D11FE0083A13D3CC
:1011200002F1040241EA012141EA014150F8043B85
:10113000121F21BF4B40A3F1013C2CEA030C1CF011
:10114000803FF3D0C9B2001F083210F8013B521E95
:1011500028BF91EA030FF8D818BF0120401E70473E
:1011600062B38B0708D0521E11F8013B00F8013B17
:1011700000F024808B07F6D1830740F0208000BF69
:10118000103A07D330B4B1E83810103AA0E838105C
:10119000F9D230BC530724BFB1E80810A0E808100A
:1011A00044BF51F8043B40F8043BD20724BF31F858
:1011B000022B20F8022B44BF0B7803707047121FDC
:1011C00017D35B0009D151F8043B20F8023B1B0CFC
:1011D000121F20F8023BF6D20BE051F8043B00F856
:1011E000013B1B0A20F8023B1B0C121F00F8013BBD
:1011F000F3D238BF121D521E24BF11F8013B00F874
:10120000013BF8D87047000010B5144600F002F812
:10121000226010BDC1F30A5343B14A0012F5001F0A
:1012200028D2A3F2FE32A1EB0251704750EA410CE2
:1012300020D001F0004C31EA0C01B1FA81F204BF78
:10124000B0FA80F3D2180B3AB2F120032CBF00FAA7
:1012500003F1914041EA0C013EBFC2F1200C20FA9B
:101260000CF319439040524240F2FD33D21A01EB85
:10127000035170470022704741EA030C50EA4C0CBE
:1012800052EA0C0C4FF4001C09D307D01CEB410FA1
:101290009CBF1CEB430F8B4208BF824270471CEB84
:1012A000430FFBD8994208BF9042704741EA030CB4
:1012B00050EA4C0C52EA0C0C4FF4001C09D307D036
:1012C0001CEB410F9CBF1CEB430F994208BF90429F
:1012D00070471CEB410FFBD88B4208BF824270471E
:1012E000124254D440F2FF7C1CEA11530FD06345E4
:1012F00031D09B1863453CBF01EB0251704701F0B0
:10130000004141EA0C510020AFF30080704750EAE1
:10131000410320D001F0004C91EA0C011CD0B1FA3D
:1013200081F30B3B9A420DD9D21A994051EA0C0134
:10133000C3F1200C20FA0CFC61449840531C40F28D
:10134000FF7CD7E7914041EA0C01C2F1200C20FA62
:101350000CF3194390407047B0FA80F31533202BFB
:10136000E0D3202AEED3203A203B9A4209D9D21A60
:1013700000FA03F141EA0C010020531C40F2FF7C0B
:10138000B8E700FA02F141EA0C010020704752422E
:1013900040F2FF7C1CEA11530DD06345DBD0B2EB69
:1013A000030C3CBFA1EB025170470CF1010221EA92
:1013B000035141F4801150EA410CCCD001F0004CB3
:1013C000352A27DC30B481EA0C01B2F1200309DAB6
:1013D000C2F12003044601FA03F5D0402843D1406E
:1013E0009C400CE0C3F12002450020FA03F418BF32
:1013F00044F0010421FA03F091400C43002174F100
:10140000004550F1000051EB0C01244230BC7FF448
:101410007BAF70476146002076E70000C1F30A53B6
:1014200040F21E42D31A0CDDCA0283F3070342EADC
:10143000505242F00042DA4002EBE17282EAE1707F
:1014400070476FEAE17203F2E13008B182F00040C8
:101450007047000010F0004160B148BF4042B0FA50
:1014600080F29040D21CC2F5846241EA025202EB43
:10147000D02140057047000070B491EA030F4FF08F
:10148000004540F1BF806B40841A71EB030604D223
:101490006E40001BB141121973414FF4001C1CEB4C
:1014A000410F34BF7CEB430683E00C0DA4EB1356D5
:1014B000362E00F37C80012E45EAC32341DC43EA4B
:1014C000525312BFD20292025B08240545EAC121A1
:1014D00041EA5051D2EBC020994125D407D1B0FA4E
:1014E00080F610FA06F162D00020203608E0B1FA4A
:1014F00081F6B140C6F1200220FA02F21143B04059
:101500004FEAF474B4EB465434F001064FEA740425
:101510000AD8D6F50016760D04F00044F04061FAC2
:1015200006F25040F1404840C00A40EA415021F0E4
:10153000004128BF5FEA500550F1000044EBD12183
:1015400035E0DB0A45EAC121C90AB6F120050EDD06
:1015500042EA0242120CC5F1200603FA06F6EB40FD
:1015600042EA06056D42984161F100010DE062FA20
:1015700006F5F240554063FA06FC82EA0C02F3409D
:101580005A406D42904161EB030111F4801F05D177
:10159000641E620502D06D004041494121F4801172
:1015A000430875F1004350F1000041EB045170BC59
:1015B00070471CEB410F15D223F0004352EA43065B
:1015C0000BD04FEA4C0CBCEB410F04D80C0D661E3F
:1015D000342EB7DDEBE7801A994150EA410608BF87
:1015E0000021E4E708BF1CEB430F28BF6FF00001A8
:1015F000DDE7000070B491EA030F4FF000457FF57E
:1016000043AF6B40841A71EB030603D2001BB14158
:10161000121973414FF4001C1CEB410F34BF7CEBDB
:10162000430442E00C0DA4EB1356352E4FDC45EA83
:10163000C323DB0A45EAC121C912B6F120050DDD3D
:1016400063FA05F6EB4086EA0305124218BF45F03F
:101650000105C01851F100010CD213E062FA06F541
:10166000F2405540F3415A40B340F3405A4080188D
:10167000594107D349085FEA30005FEA350528BFC2
:1016800045F0010501F58011420875F1004250F165
:10169000000041EB04514E0016F5001F70BC38BF2E
:1016A00070470020090D090570471CEB410F10D24F
:1016B00052EA43060BD0BCEB410F05D80C0DAB43EF
:1016C000661E342EB6DD02E0AB438018594170BC73
:1016D000704770BC70470000F0B540F2FF7581EABA
:1016E000030C0CF0004C15EA11541DBF15EA1357FA
:1016F000AC42AF42E5E0BC41C1F31301C3F31303B5
:10170000801A994143F4801304D2641E00184941A1
:1017100080185941C90241EA5051B1FBF3F603FB6D
:101720001611A2FB0675D7EBC020A94102D2761E86
:1017300080185941C90241EA5051B1FBF3FE03FB45
:101740001E11A2FB0E75D7EBC020A94103D2AEF14A
:10175000010E80185941890241EA9051760546EA06
:101760008E2EB1FBF3F603FB1611A2FB0675D7EB29
:101770008020A94102D2761E80185941C90241EA4F
:1017800050514EEA060EB1FBF3F603FB1611A2FB15
:101790000675D7EBC020A94102D2761E80185941A8
:1017A000C90241EA5051B1FBF3F703FB1711A2FB49
:1017B0000735D3EBC020A94167F100070CBF0042F9
:1017C00047F0010766F3D5274FEA1E31B80814F534
:1017D000806412DDBD0775F1004250EB0E5051EBF5
:1017E000045111F5801F5CBF41EA0C01F0BD4CF0C3
:1017F0007F6141F0E0410020F0BDBD076D0840EA87
:101800000E5041F48011D4F10104B4F120060ADA3B
:10181000C4F120060200E04001FA06F3E14018435B
:10182000B24015430EE0342C13DCC6F1200445EA27
:1018300040056D0820FA06F2154321FA06F0A14092
:101840000D43002175F1004250F1000051EB0C01F5
:10185000F0BD00205FEA0C01F0BDCFB992185B41EA
:10186000B3FA83F704BFB2FA82F6BF190B3FB7F1A0
:1018700020062FBF02FA06F3BB40C7F1200622FA6A
:1018800006F638BF3343BA401CB1E419641E33E78F
:101890007F4231F00041B1FA81F404BFB0FA80F622
:1018A000A4190B3CB4F120062FBF00FA06F1A140A9
:1018B000C4F1200620FA06F638BF3143A0403C1B95
:1018C0001AE7AC421ABF05EA1357AF4212E050EADA
:1018D00041061CBF52EA4306BFE750EA41073046C3
:1018E00061461CBF41EA0551F0BD52EA430C08BFF6
:1018F000C143F0BD00204FF4001616EB410F98BF16
:1019000016EB430F08BF16EB410F24BFC14305E0A0
:1019100016EB430F0CBF61464CEA0551F0BD0000C9
:10192000400D40F21E4C40EAC120BCEB115C40F07F
:10193000004003D48CF30701C84070476FEAE170A0
:101940007047000050B1B0FA80F18840C91CC1F561
:101950008461090501EBD0214005704701467047BD
:1019600030B540F2FF7C1CEA11541DBF1CEA135530
:10197000644565453FE0641981EA030C6FF35F53EA
:101980000CF0004C43F48013C90241F0004141EADD
:10199000505EC5021100A5FB020200284FF00000B6
:1019A000EEFB01204FF00001E3FB052118BF42F0E0
:1019B0000102401800214941E3FB0E01A4F58064B7
:1019C0000D0302D292184041494154F1010470DDE7
:1019D000450872F1004250F1000051EB0451A1F5AD
:1019E000801102D441EA0C0130BD40F2FF7E4CEA86
:1019F0000E51002030BD0CEA1355644518BF6545F3
:101A000081EA030C0CF0004C41D050EA410E1CBF9F
:101A100052EA430E02E06146002030BD24422C44CD
:101A20001BD15FEA050EF6D0090302BF0146002074
:101A3000AEF1140EB1FA81F5AEEB050401FA05FE24
:101A40000C35C5F1200100FA05F5C8404EEA000E3C
:101A50006FF35F5343F480139CE733F00043B3FA12
:101A600083F504BFB2FA82FE75440B3D641BB5F1E9
:101A7000200E2FBF02FA0EF3AB40C5F1200E22FA62
:101A80000EFE38BF43EA0E03AA40641C7CE750EA0E
:101A9000410E14BF52EA430E6FF000014FF40015DF
:101AA00015EB430F8EBF194615EB410F9DE7B4D8D8
:101AB00030BDD4F10104B4F120050FDAC4F12005E2
:101AC000520828BF42F0010210FA05FE01FA05F59E
:101AD0007244E2BFE0402843E1400FE0352C9ADC3D
:101AE000C5F1200452EA400220FA05F218BF42F084
:101AF000010231FA05F0A1400A43002172F10042CF
:101B000050F1000051EB0C0130BD0000613807E0DE
:101B100005E0A0F161011A2901D201207047413886
:101B20001A288041C00F7047A0F10901052901D38F
:101B3000202801D1012070470020704701487047DC
:101B4000014870474C03002014030020D3BBD9B1D7
:101B5000B2F5803F5BD2022A1ED98C46B1FBF2F16E
:101B600002FB11C31B0443EA1043B3FBF2FC02FB6C
:101B70001C3380B240EA0343B3FBF2F002FB1032A5
:101B800040EA0C4000237047022A05D98446B0FB86
:101B9000F2F002FB10C270474AB105D100F0010219
:101BA00049085FEA3000704700220023704700F0C8
:101BB00053B80B000200002100207047F7D3002229
:101BC00000237047904271EB030CF2D370B5B1FA69
:101BD00081F4B3FA83F52C1BA340C4F1200532FA3B
:101BE00005F63343A2405FF00046E64002E05B08A2
:101BF0005FEA3202841A71EB030524BF20462946AE
:101C00007641F4D302000B003000002170BD70B5A6
:101C1000B1FA81F4B2FA82F5C4F120046419B4F186
:101C20002006DAD3B2405FF00044F440002502E021
:101C300052085FEA3303C61A71EB020E24BF304626
:101C4000714664416D41F3D302000B00200029006E
:101C500070BD012000F002B87047000080B5AFF3FE
:101C60000080024A11001820ABBEFBE726000200EC
:101C700038B5DFF83C460021204600F067FF04211C
:101C8000204600F063FF0821204600F05FFF00219E
:101C9000204601F013FC0421204601F00FFC08212E
:101CA000204601F00BFC2068DFF8085600F046FEE5
:101CB00020460C2100F04AFF2168DFF8FC4540F285
:101CC000CF700864204601F085FC3C21284600F0D6
:101CD000DFFF284600F003FFDFF8E005DFF8E055FE
:101CE00000F0FDFE284600F0FAFE00F06CFA01F06C
:101CF000E1FD2068416841F08001416000F0C0FDD5
:101D00000021284600F06DFF0421284600F069FFFD
:101D100000F04EFEDFF8B8150220087231BDDFF882
:101D2000B005007A022808BF00F05EB9032808BF9A
:101D300000F08EB8704738B50446DFF88815206883
:101D400088422CD1227FDFF88055012A1CD1002146
:101D5000204601F0EEF900F0C5F985ED000A00F02B
:101D6000E1FDDFF86825DFF8D839FFF7F9FD00F06D
:101D7000C1F901F011FE95ED020AD5ED000A686087
:101D8000C0EE200AC5ED030A207F022807D10421F6
:101D9000204601F0CEF900F0A5F985ED020A31BD2B
:101DA0003EB50168DFF82845B1F1804F17D1DFF863
:101DB0000425136894F90A1094ED1E0A1D68EA06BA
:101DC00005D5FFEE000A30EE200A491E04E0B7EE0A
:101DD000001A30EE010A491C84ED1E0AA172006847
:101DE000DFF8F01488422BD100F036FD052100F019
:101DF000AFFCE06F401C0A2810D10A22E267206E77
:101E000001F0FEFDCDE90001A06E01F0F9FD0246F2
:101E10004FEA01030BA001F017FE0020E067207AD3
:101E200003280DD1DFF8B044DFEDAA1AB0EE001A96
:101E3000D4ED000AB2EE040A00F054FD84ED000A6D
:101E400037BD0000252E31662C252E31660A000094
:101E50002DE9F8432DED028BDFF88084DFF8804414
:101E6000DFF86C54DFF87C74DFF86C64DFF878948A
:101E700000F060F984EC030A291D284600F064FD97
:101E800098ED000AB8EE400A9FED931AB1EE048A6D
:101E9000DFED928A20EE280A00F096F8DFED900A36
:101EA00030EE201A05F1680105F16400D5ED010A54
:101EB00095ED000A00F04AFD284694EC030A00F074
:101EC000D7F9D8F8000040F6FF71091A00EE101A91
:101ED000B8EE400A20EE280A9FED7F1A00F074F851
:101EE000384600F00BFA05F15C0097EC021A95EC0D
:101EF000020A00F016FADFF84C1800200860DFED47
:101F0000750A32684A60484695ED1D0A70EE200A4F
:101F1000C5ED1D0A97EC021A91EC020A00F00EFAC8
:101F20000020DFF82418E06121629FED6B1A98ED24
:101F3000000ADFF8187800F04FF800F047F804F1D5
:101F4000140104F11C0000F085FD6069C9F800006F
:101F50009FED611AA169C9F80410F0EE680A98EDC6
:101F6000000A00F039F821EE080A01F081FD00F0C6
:101F7000D9FCC7E902016D487861002139603268F7
:101F80006B487A60386101F0D9FD0020E8644FF0B9
:101F90008041DFF820232965DFED550A106890EDB8
:101FA000090ADFF80C03B8EE400A20EE280AC0EE5A
:101FB000200AC5ED150A0068A1894163E2898263A0
:101FC000218AC16300F044BC80EE011AF0EE680A79
:101FD00021EE080A01F04CBDB8EE400A20EE280AB6
:101FE00080EE011A7047000070B5DFF8E452DFF8A8
:101FF0005447D5F88000401C41F64171884251D2C7
:10200000C5F880009FED3F0ADFF8D862304600F047
:1020100075F930469FED3B0A00F070F905F15C0060
:1020200096EC021A95EC020A00F07BF995ED200A75
:102030000020B8EE400AF2EE0E0A286760EE200A91
:102040009FED311A80EE810A85ED1B0A05F10C0126
:102050002046D5ED170A00F0DDF805F12801201D16
:10206000D5ED180A95ED1C0A00F0D4F8DFF87008D9
:10207000206000216160304695ED1D0ADFF868524E
:1020800000F03CF9284696EC021A94EC020A00F0A3
:1020900055F995EC020ABDE87040DFED241A9FED7A
:1020A000241A59E100F08FF80020C5F880000021C3
:1020B000616020602867E8660023DFF82022DFF8EF
:1020C000F401116001684B6200F020F803202872CF
:1020D00070BD00006F12833A00F07F45DB0FC940EE
:1020E000DB0F49C000EE100AB8EE400A704700004E
:1020F0000000A04502460B460020DFF83018FFF72D
:10210000EBBA0000000000000000FA4530B5DFF82F
:10211000240800F10801002200230024002581E8A2
:102120003C000122027030BD7047000000007A457B
:102130000000704238B5604D2DED028B012100F09A
:102140003FF8DFF8DC47216900F035F89FED678B39
:1021500053EC182BFFF704FC01F01EFCE06100F0CB
:102160002EF800F027F853EC182BFFF7F9FB01F0DD
:1021700013FC00EE100A84ED000AB1EE400AD4ED23
:10218000070AC4ED010A30EE600A84ED020A00F08D
:1021900016F800F00FF8DFF89827DFF83038FFF76F
:1021A000DFFB01F0F9FBA061BDEC028B94EC030AAC
:1021B00031BD0000E168401A00B2FFF74BB90321BE
:1021C000284601F069BADFF870074149826ACA609F
:1021D000C3690B61026A8A61C36ACB610023426AE8
:1021E0000A624B62C26B8A62036BCB62426B4A63C8
:1021F000036C8B630023826BCA630B648361016D84
:10220000426C01604260816C426DC1600261C16CD0
:102210004161704730EE600A91ED001AD1ED060A77
:1022200041EE000A91ED041AB4EE601AF1EE10FAD4
:102230005FBF91ED051AF4EE410AF1EE10FAB0EE2F
:10224000601A80ED001A71EE600A91ED031AD1ED6B
:10225000011A60EE810A41EE800A9FED260AFFE72F
:1022600091ED061A00EE801A81ED061A7047000003
:1022700030EE812A70EEC10AFEEE002A9FED1E1A92
:10228000F0EE001A02EE220A20EE811A20EE210A58
:10229000B0EE083A21EE211A80EE033AF0EE081A69
:1022A00080ED003AC1EE211AC0ED011A704700001E
:1022B000080500204805002084060020880500202D
:1022C000C805002000080040240700208DEDB5A0BF
:1022D00010020020000400400C02002024000040F6
:1022E000E0060020540700204C07002055DB4DF08D
:1022F0004DD3D13F6F128338D7B35D3F10B52DED6D
:10230000028BB0EE408A044601F05EFD84ED000AC7
:10231000B0EE480A01F098FD84ED010ABDEC028B95
:1023200010BD20EE012A00EEA12A20EE811A80EDD8
:10233000002A00EE611A80ED011A704721EE002A92
:1023400001EEE02A21EE800A80ED002A01EE200A4B
:1023500080ED010A70470000B0EE604A0020B5EE43
:10236000404A9FED7B2ADFED7A2A9FED793AF1EE24
:1023700010FAC8BF01209FED775A60EE054AF6EECD
:10238000003A74EEC44A64EEA34AF5EE404AF1EE18
:1023900010FAC8BF801CDFED704A60EE244A74EE6C
:1023A000C44A64EEA34AF5EE404AF1EE10FAC8BF03
:1023B000001D411E042969D8DFE801F003182D40F3
:1023C0005500DFEDDE4A24EE244ABFEE085AF0EE57
:1023D000445AF7EE080A81EE811A40EE055A00EEE3
:1023E000204A65EE814A24EE010A63E0F7EE084ACE
:1023F00060EE244A9FEDD10A44EE004A81EE810A44
:1024000064EE804A24EE050A20EE210A80EE010ADD
:10241000B1EE400A4EE0FFEE080A60EE200ADFED62
:10242000C74A44EE240A24EE054AC1EE814A24EE4E
:10243000214A60EEE44A84EE010A3BE064EE054A7C
:10244000BFEE085A20EE050ADFEDBC0A64EEA14A91
:1024500004EE200AC4EE814AC1EE810AF1EE644A1C
:1024600020EE200A26E064EE054A64EEA14AF7EE6B
:10247000085AC4EE814A60EE255A9FEDB05A44EEE8
:10248000055A81EE811A25EEC10A13E0DFEDAB4A51
:1024900024EE244AF7EE085AB0EE446AFFEE080A2A
:1024A00081EE811A00EE256A00EE204A66EE414A6E
:1024B00024EE410A74EE800AF4EE601AF1EE10FA8E
:1024C00005D5C4EEA04A74EE800A80EE200A74EEB0
:1024D000800A71EEE00AB5EE001A60EE810A421E33
:1024E000B0EE601A052A04EEA31ADFF820152ED8E4
:1024F000DFE812F0060034005B008400AB00DB0074
:10250000B0EE413AB0EE412A00EE233ABDEEC20AE7
:1025100010EE102AC2F5FA6292B2A42AF0EE602AF6
:1025200015DA32EE620ABDEEC00A10EE103A9BB226
:10253000520000EE103A00EE902AB8EE400AF8EE93
:10254000E00AF4EE400AF1EE10FA40F1D480DDE04A
:1025500000000000D7B3DD3FD7B3DDBFF0EE412A66
:1025600040EE232ABDEEE20A10EE102AC2F5FA620E
:1025700092B2A42AB0EE602AB0EE413A14DA32EEFA
:10258000C20ABDEEC00A10EE103A9BB2520000EE35
:10259000103A00EE902AB8EE400AF8EEE00AF4EEA7
:1025A000400AF1EE10FA26D5B0E0B0EE413AF0EE76
:1025B000412A00EE233ABDEEE20A10EE102AC2F5DF
:1025C000FA6292B2A42AB0EE602AEDDA32EEC30AC1
:1025D000BDEEC00A10EE103A9BB2520000EE103A67
:1025E00000EE902AB8EE400AF8EEE00AF4EE400A57
:1025F000F1EE10FAD8D4BDEEE20A4EE0B0EE412A78
:1026000000EE232AB0EE603ABDEEC30A10EE102AA7
:10261000C2F5FA6292B2A42AF0EE412A76DA33EEDB
:10262000620ABDEEC00A10EE103A9BB2520000EEF4
:10263000103A00EE902AB8EE400AF8EEE00AF4EE06
:10264000400AF1EE10FA26D560E0B0EE412A00EE25
:10265000232AB0EE413ABDEEC30A10EE102AC2F5AD
:10266000FA6292B2A42AF0EE602A4FDA33EE420AFE
:10267000BDEEC00A10EE103A9BB2520000EE103AC6
:1026800000EE902AB8EE400AF8EEE00AF4EE400AB6
:10269000F1EE10FA3AD4BDEEC30A10EE102A2D3234
:1026A00092B2B2F5FA6F31DB2EE0F0EE412AB0EED5
:1026B000412A40EE232ABDEEC20A10EE102AC2F5CE
:1026C000FA6292B2A42AB0EE603A1FDA32EE430AFE
:1026D000BDEEC00A10EE103A9BB2520000EE103A66
:1026E00000EE902AB8EE400AF8EEE00AF4EE400A56
:1026F000F1EE10FA0AD4BDEEC20A10EE102A2D3205
:1027000092B2B2F5FA6F01DB01220A704860BDEEA9
:10271000C20ADFF83403006810EE101AFDEEE20A78
:1027200089B210EE902ABDEEC31A416392B211EE47
:10273000103A82639BB2C363704700BFD7B35D3F5B
:10274000F7C6903E5C07002000004040B80600201D
:102750002DE9F843DFF8DC622DED028B89463178F4
:10276000494571D1756807467D1B08EE905AF8EE11
:10277000E88A757800F059F9884604464FF47A7172
:1027800091FBF9F0FEF766FE0022DFF8AC32FFF7AE
:10279000E7F822464346FFF7E3F80022DFF89C32D1
:1027A000FFF7DEF801F0F8F806F110012C466D1C79
:1027B00041F824007760E8B20A2840D100210FE0F8
:1027C00006EB810292ED040AD2ED050AF4EE400A0E
:1027D000F1EE10FA44BFC2ED040A82ED050A491C6D
:1027E000421E9142ECDB401EC0B20028E6D19FEDB4
:1027F000480A022006F1100101EB8002401CD2EDD4
:10280000000A082830EE200AF6DBF1EE080A80EE16
:10281000200A9FED401A20EE011AD6ED0E1A9FED08
:102820003E0A01EE801ABDEEC10A10EE100A00B297
:1028300000EE100AB8EEC00A86ED0E0A002575708B
:10284000B760C6ED038A0021491C3170B0EE480A1A
:10285000BDEC028BBDE8F183DFF8E4010168DFF82D
:10286000E40191ED090AD0ED1E0AB8EEC00A9FED11
:102870002B1A00EE810ABDEEC00A10EE100A704756
:102880002DE9F0470025002600276424DFF82C827C
:102890000321404600F000FF81460121404600F040
:1028A000FBFE82460221404600F0F6FE17FA80F752
:1028B000012001F015FB641E15FA89F516FA8AF657
:1028C000E6D117486421B5FBF1F1C16064226421AF
:1028D000B6FBF2F2B7FBF1F102614161BDE8F087AE
:1028E0009A99993F30EE602A21EE211AB4EE421AED
:1028F000F1EE10FA02D531EE200A7047F1EE411ADE
:10290000B4EE612AF1EE10FA48BF30EEC10A70470A
:10291000000000008FC2F53EB81E053F00F07F4565
:102920000407002010EE100A01F06AB80000F03F22
:102930003A58FFE7EC020020940200200021416396
:1029400000228263C163704770B541E038B52DED58
:10295000068B0446B0EE408AF0EE608A0D4600F029
:102960005EF800F019F800F01FF80AEE100A00F007
:1029700050F800F019F800EE100A68EE0A0A48EE66
:10298000800AC4ED000A68EE8A0A48EE400AC5EDE6
:10299000000ABDEC068B31BD41EC190BB0EE490AC3
:1029A000F0EE690A01F0B7BA51EC100B00F0F4BF79
:1029B000DFF89000DFF8082182650021416481641E
:1029C000C16401654165704700000000305FC43F8D
:1029D00080ED000AB0EE001A00EE810A0E46FFF705
:1029E000A1FF04460D4600F00DF853EC102B2046D5
:1029F0002946FEF771FE00F0CFFF306070BD000089
:102A000008EE900A9FED110B01F092BA44070020E6
:102A10003060B0EE490AF0EE690A01F082BA11EEB8
:102A2000100A00F0EDBF8046894618EE900A00F0CB
:102A3000E7BF00004806002000004E400000303F85
:102A400048050020100200200805002000000000BA
:102A50000000084038B504462DED048B0D46FFF705
:102A600061FF41EC180BB0EE480AF0EE680A01F085
:102A700052FAFFF799FF09EE100AB0EE480AF0EE9D
:102A8000680A01F04EFAFFF78FFFD4ED000A94EDCB
:102A9000011A00EE100A60EE890A41EE400AC5ED07
:102AA000000AD4ED001AD4ED010A21EE800A00EEEE
:102AB000890A85ED010ABDEC048B31BD8406002036
:102AC0000000704238B5040001D1012032BD00F091
:102AD00084F818B900F07DF801F006FC0FE00068FA
:102AE000C16841F00101C160816801F00701062958
:102AF00003D0016841F0010101600020704702200D
:102B00006870211D206800F02AFB012068700020F9
:102B100032BD03D1416C41F400414164816801F050
:102B20000701062903D0016841F00101016000207E
:102B300010BD38B5040001D1012032BD00F04DF8C0
:102B400018B900F046F801F0B5FCD8E710B500F070
:102B500007F800F00AF81CBFDFF82C219042D8E7F4
:102B600004460122206800F09ABC2068DFF81C119E
:102B7000884270470446080006D0042909D0082975
:102B80000CD00C290FD013E02068C26842F002027A
:102B90000DE02068C26842F0040208E02068C268C4
:102BA00042F0080203E02068C26842F01002C260EE
:102BB0002068012200F073BC38B5040001D1012067
:102BC00032BD00F00AF818B900F003F801F073FC08
:102BD00095E7002129702046704704F13C0568788C
:102BE000704710B5FFF7C6FF206897E720680122FD
:102BF000042100F054BCF8B504000E4601D10120B8
:102C0000F2BDFFF7EAFF18B9FFF7E3FF01F0BDFBE4
:102C1000022068702168DFF8A4048A6802408A6094
:102C2000211D206800F09BFA2268DFF89414936855
:102C3000D2F818C0176AB06801EA0C010843B169FC
:102C400040EA0120DFF87C140140F0680843F16994
:102C500040EA0121306941EA0010316A40EA013C52
:102C60007068716927F0220707433068034347EA19
:102C7000011793602168C1F818C00121206807621C
:102C800069700020F2BD000000340140002C0140BA
:102C900010B5044611B1042909D00EE020680122C4
:102CA00000F0FDFB2068C16841F002010EE02068E1
:102CB000012200F0F4FB206805E000F013F8FFF7B4
:102CC00095FF00F009F8C16841F00401C160206877
:102CD00000F010F8002010BD2068C16841F002012A
:102CE000C160704720680122002100F0D8BBC1609C
:102CF00001223068016841F001010160704710B5A0
:102D00000446206801698A0715D5C1688A0712D56B
:102D10006FF00201016101222277806910F0030F38
:102D2000204602D0FFF707F803E001F0C5FB00F0F2
:102D300087F800202077206801694A0715D5C16807
:102D40004A0712D56FF004010161022222778069DF
:102D500010F4407F204602D0FEF7EDFF03E001F0C3
:102D6000ABFB00F06DF800202077206801690A07AE
:102D700015D5C1680A0712D56FF008010161042258
:102D80002277C06910F0030F204602D0FEF7D3FF70
:102D900003E001F091FB00F053F800202077206859
:102DA0000169CA0615D5C168CA0612D56FF01001AF
:102DB000016108222277C06910F4407F204602D0CA
:102DC000FEF7B9FF03E001F077FB00F039F80020CF
:102DD000207720680169CA0708D5C168CA0705D5E8
:102DE0006FF0010101612046FEF7DAFF20680169FA
:102DF0000A0608D5C1680A0605D56FF08001016191
:102E0000204601F05AFB206801694A0608D5C168CE
:102E10004A0605D56FF040010161204601F04EFBE6
:102E2000206801698A060AD5C1688A0607D56FF04D
:102E3000200101612046BDE8104001F040BB10BDFB
:102E4000204601F03DBBF8B500F0DDF801D10220CD
:102E5000F2BD00F0E5F882B9EB686A68296830686D
:102E600000F09EFA3068816921F00C0181613168BF
:102E70008A69A86802438A615CE0042A10D1EB6881
:102E80006A682968306800F0D0FA3068816921F4F6
:102E9000406100F0B4F8AA6841EA0221816149E08A
:102EA000082AE9686A682B6823D13768386A20F4F1
:102EB000807038621B0207F11C0003F40073D0F825
:102EC00000C0D7F820E04FEA9C0C42EA8C0261F384
:102ED000071202602EF4007003433B623068C16940
:102EE00021F00C01C1613168CA69A8680243CA6156
:102EF00020E030681C301B03476827F48057476088
:102F000003F400530768D0F804C027F4407747EA79
:102F1000022761F30F372CF4005107600B43436025
:102F20003068C16921F4406100F065F8AA6841EA9F
:102F30000221C16100F06EF8F2BD70B500F063F8D7
:102F400001D1022070BD00F06BF832B1042A17D015
:102F5000082A28D00C2A39D04AE03068294600F0E7
:102F600038F93068816941F0080100F048F821F033
:102F70000401816131688A69286902438A6137E006
:102F80003068294600F051F93068816941F40061E8
:102F900000F035F821F4806100F031F82A6941EA47
:102FA0000221816124E03068294600F06EF9306822
:102FB000C16941F0080100F01EF821F00401C1616F
:102FC0003168CA6928690243CA6111E0306829463C
:102FD00000F08AF93068C16941F4006100F00BF833
:102FE00021F4806100F007F82A6941EA0221C161F9
:102FF00000F010F870BDC1613068C169704781612F
:10300000306881697047064606F13C040D46207819
:103010000128704701206070002121700020704756
:103020000120207002216170704738B500F064F80B
:1030300001D1022032BD0120207002226270DFF82F
:10304000B4032A689368034093600868020018BFBD
:1030500010282DD0202818BF302829D0402823D070
:10306000502816D0602818D0702803D0B0F5005F23
:1030700007D021E000F02CF82868816841F0770142
:1030800005E000F025F82868816841F480418160FE
:1030900012E000F019F850210BE0CA68496828686E
:1030A00000F0D9F9602104E000F00EF8402100E0C2
:1030B0000146286800F0E1F935E00000F8BFFFFFA5
:1030C000FCFCFFFF0303FFFFCA68496828689DE115
:1030D000CB684A6889682868D7E138B500F00CF8F1
:1030E00001D1022032BD00F00DF800B110E02868D7
:1030F000C16821F0400110E0054605F13C0420784C
:1031000001287047012020700222627028460EE1DB
:10311000012060700021217032BDC1602868C16843
:1031200021F48041C16001206070002121700020E5
:1031300032BD0246002031B1042907D0082908D049
:103140000C2909D070471068406B70471068806B7D
:1031500070471068C06B70471068006C7047F0B51E
:103160000368A54FA54AA64CA64DA74EB84218BF66
:10317000B04208D0B0F1804F18BFA84203D0A0429F
:1031800018BF90420ED123F0700C4B6843EA0C0339
:10319000B84218BFB04207D0B0F1804F1CBFA84260
:1031A000A04201D0904203D123F44072CB68134374
:1031B0004A6923F0800313430360B8428B68C362FB
:1031C0000A68826212BFB04209690163012242614A
:1031D000F0BDF0B5026A884F8B4E52085200026271
:1031E000026A436885690C6825F073052C438D6875
:1031F00022F002021543B84218BFB04207D1CA6894
:1032000025F008051543B84225F0040501D0B04269
:1032100005D14A6923F440731A438B691343436011
:103220008461496841630562F0BDF0B5026A724E7F
:1032300022F010020262B042056A436884690A689B
:1032400024F4E64444EA02248A6825F0200545EA8D
:1032500002156D4A18BF904208D1CF6825F080054D
:1032600045EA0715B04225F0400501D0904206D14D
:103270004E698A6923F44063164343EA8603436038
:103280008461496881630562F0BDF0B5026A5A4EF7
:1032900022F480720262056A4368C2690C6822F0F7
:1032A000730214438A6825F4007545EA0225564ADC
:1032B000B04218BF904208D1CF6825F4006545EAB6
:1032C0000725B04225F4806501D0904206D14E69B1
:1032D0008A6923F44053164343EA06134360C461EA
:1032E0004968C1630562F0BD70B5026A424E22F4BE
:1032F00080520262B042046A4268C3690D6823F4D6
:10330000E64343EA05238D6824F4005444EA053477
:103310001CBF3D4DA84204D14D6922F4804242EACF
:1033200085124260C36149680164046270BD10B5D2
:10333000006884684B680A6824F070041C43E40841
:1033400042EAC40484604C68402C0BD0502C1CD042
:10335000602C1FD0702C21D10B698A68C96800F0DD
:1033600094F81BE00A68052A01D1012010BD026A09
:10337000036A5B085B0003628369096923F0F00359
:1033800043EA01138361026208E00A69896800F078
:103390003DF803E00A69896800F05DF8002010BD7F
:1033A000F0B5046A144E640864000462B042846993
:1033B000056A1CBF144FB8420BD0B0F1804F1CBF40
:1033C000104EB04205D00E4FB8421CBF0B4EB0425B
:1033D00003D1A40842EA840201E044F0010263F34D
:1033E000071225F00A0501F00A01826129430162F2
:1033F000F0BD00008800FFFF002C0140000C0040E1
:1034000000080040000400400034014010B5036A89
:10341000046A64086400046223F00A03846924F0E7
:10342000F00444EA0214846144E030B5046A24F0F4
:103430001004046209018469056A24F4407444EAB2
:10344000022463F30F3425F0A00501F0A00184618C
:103450002943016230BD10B5036A23F010030362F3
:103460008369046A23F4704343EA023324F0A0041E
:10347000836144EA0114046210BD826822F0700284
:10348000114341F007018160704710B5846824F44E
:103490007F442143114341EA0321816010BD10B5EF
:1034A00001F01F01036A01248C40A343036202FA66
:1034B00001F1036A1943016210BD000010B5044612
:1034C000042220681CE00446080004D0042907D028
:1034D00008290AD00EE02068C26842F0020208E023
:1034E0002068C26842F0040203E02068C26842F02B
:1034F0000802C2602068C36843F08003C3600422EE
:1035000000F059F82068416C41F400414164816841
:1035100001F00701062903D0016841F001010160B3
:10352000002010BD70B500F13C031A78012A01D1CA
:10353000022070BD01221A7002245C700468656864
:10354000A6684A68096825F070050D43656026F095
:1035500080060068164386600121597000201870AB
:1035600070BD10B590F83C20012A01D1022010BD99
:10357000012280F83C20CC688A684B6824F44074AF
:10358000144324F480641C430A680B6924F4006427
:10359000144324F480541C434A69C96924F4005438
:1035A0001443026824F480440C435464002380F8DC
:1035B0003C30002010BD10B501F01F01036A042447
:1035C0008C40A343036202FA01F1036A19430162CA
:1035D00010BD000070B500F022F801D1022070BDCE
:1035E00000F023F801000FD100F024F85CBF0023A5
:1035F000AB6000F00CF85E6846F080065E60236801
:103600005C68650502D432E00021297070BD002697
:103610002E706FF0040325682B6023687047044602
:1036200004F12405287801287047012028702046DD
:1036300001F0CAB86A68DFF85C120A4042F48052AE
:103640006A602368DFF85022DFF85012934207D1F6
:103650000E6816F4702F03D06B6843F4801302E0F9
:103660006B6823F480136B606B68DE0570479C68A1
:1036700004F4E044B4F5E04F09D1934203D1096862
:1036800011F4702F03D1996841F4021102E0996896
:1036900041F40041996070BD02290AD00CD304297D
:1036A00001D003D308E00068806C70470068406C6C
:1036B00070470068006C70470068C06B7047F8B5D1
:1036C000002300F1240400930A4625780021012DEF
:1036D00001D10220F2BD01232370556883686BB9C4
:1036E000012D08D103689D6B1668AD0DAD0545EA47
:1036F000C6359D6322E000F0C5F81FE01369D0F8DD
:1037000000C0EE1AF61C06EB86061F27B74047F4EA
:103710004017FF43AB420CD3DCF838502F405B1E00
:1037200047EA0357136803FA06F63E43CCF83860BD
:1037300004E0DCF838301F40CCF838700568AB681E
:10374000DE070CD4AE689769564B9D4204BFB7F5AF
:10375000C04F4FF48047544B1E403E43AE60537DF4
:10376000012B0BD19369B3F5E04F05D103685D6878
:1037700045F480655D6001E000F084F8137D012B65
:1037800009D1537D2BB903685D6845F480555D60B0
:1037900001E000F077F816689368056807270A2E9D
:1037A00008D30A3E06EB4606D5F80CC000F05FF8D9
:1037B000EB6006E006EB4606D5F810C000F057F8BF
:1037C0002B611368102B18BF112B04D103689D685F
:1037D00045F400059D605368012B04D015D3032BDD
:1037E0000DD006D311E005686E6900F046F86E61F1
:1037F00010E00568AE6900F040F8AE610AE00568C7
:10380000EE6900F03AF8EE6104E005682E6A00F017
:1038100034F82E621368102B18BF112B23D10068C7
:10382000224B98421AD11E4805682B021BD405680A
:1038300045F4000505601068102814D1144A1C4D89
:103840001368B3FBF5F50A2045430095009800285E
:103850001EBF0098401E0090F8D104E0012160686E
:1038600040F020006060002020700846F2BDB740A4
:103870002CEA0707B3403B437047D368360B43EA53
:1038800006367047616841F0200161600121704790
:1038900010030020FEDFFFFF002801400424014048
:1038A00008240140003C0140FE8FFFFF002401403E
:1038B00040420F0030B53048304A002141608160FD
:1038C000C160002300F13C0100240D784A6045F0FE
:1038D00007050D708B60CB6000F17802284B5360B8
:1038E0009FED211A274B9460D460136182ED191A61
:1038F000B2EE040A81ED050A82ED050AF2EE000A35
:10390000C1ED040A80ED050A9FED180A11780478CC
:1039100082ED150A41F007011170C0ED040ADFEDD8
:10392000140A0021C2ED160AD16544F00704164AB4
:1039300000F8FC4B816002630022144941638263FA
:1039400080ED000A9FED0B0A1149124AC0ED010AF1
:1039500080ED041A80ED100AC0ED180A41668266F7
:1039600080ED1C0A30BD00008FC2DD406666663FF8
:103970006F12833A0000C84294030020CDCC4C3E25
:10398000A69B443B00000841E71D273B52491D39D7
:1039900052499D3917B7D13801F000428B1AA3F173
:1039A0006051B1F5801F0ADBB1F17F6F1FD242EA8F
:1039B000C102C10071F1004142EB507070470B151C
:1039C000C3F10903212B10D2890241EA90518002F0
:1039D0000128494141F0004121FA03F0C3F12003DD
:1039E000994071F1004150417047100070476FF0ED
:1039F000000013EB103F5CBF000E42EAC05070475E
:103A0000C0F3C75181B1FF2906D0C110400721F092
:103A1000E04101F16051704741020CBF40F4E00108
:103A20006FF000410020704700F0004100020AD012
:103A3000B0FA80FC00FA0CF001F16051A1EB0C51DE
:103A400001EBD021400570470EB4C0B5024603A873
:103A500000210190009101AB0121044878440C3011
:103A6000FCF769FB06BC5DF810FB00BF793800006D
:103A700000B551EC100A00F003F800EE100A00BD8A
:103A800010B54FF0004C00F000434900C0F3C7549C
:103A90000A0E1ABFFF2CFF2A2DE0B1EB400F21D2F6
:103AA0004CEAC1114CEA0020090AA41A083C07D9C3
:103AB000B0FBF1FE01FB1E0000021AD0083CF7D853
:103AC0006442E040B0FBF1FE01FB1E0088B1B0FA99
:103AD00080F18840D21D521A06DB43EA102000EB29
:103AE000C25010BD05D010BDD2F10802D04018431D
:103AF00010BD184610BD09421ABFFF2CFF2A0FE067
:103B0000B1EB400FEED20902B1FA81F2914052427C
:103B10002442C7D14002B0FA80F4A0406442C3E717
:103B20006346DA0912EB400F2CBFD843D14218BFCD
:103B3000D843BDE81040AFF30080704710B5A14CEA
:103B40002DED048B94ED029BB0EE490AF0EE690A6C
:103B500000F0E7F951EC100BFFF71EFF08EE100A1A
:103B6000B0EE490AF0EE690A00F0D5F951EC100BFD
:103B7000FFF712FF00EE100A94ED001AD4ED010ACF
:103B800021EE002A61EE082A00EEC82A40EE802AC3
:103B90000020F5EE402A9FED870ADFED860A9FEDB3
:103BA000851AF1EE10FAC8BF0120DFED833A22EE4C
:103BB000233AF6EE001A00F0D9F8C8BF801C9FED3A
:103BC0007F3A22EE033A00F0D1F8C8BF001D411E33
:103BD000042961D8DFE801F003142330490000F024
:103BE000CFF8BFEE083AF0EE624A42EE034AB7EE73
:103BF000085A24EEA33A42EE052A62EEA33A5BE0AD
:103C0000B7EE083A00F0C8F862EEA42A84EE845AAF
:103C1000C2EE842A22EE053AF1EE623A4CE0BFEEA3
:103C2000083A00F0B9F884EE845A62EEA42A22EE33
:103C3000453AC2EE843A3FE0D4ED054A22EEA33A7B
:103C4000FFEE083A22EE232A9FED5D5A94ED044AD6
:103C500023EE243A02EE852A83EE043AC4EE842A47
:103C6000B1EE433A62EE223A26E09FED555AD4ED8A
:103C7000054A94ED044A22EEA33AF7EE083A22EE02
:103C8000232A02EE852A23EE243AC4EE842A83EE08
:103C9000043A62EE623A0FE000F072F8B7EE083ACA
:103CA000F0EE624A42EE034ABFEE085A24EEE33ACF
:103CB00042EE052A62EEE33A33EE232AD4ED052ADA
:103CC000F4EE422AF1EE10FA05D583EE023A33EE15
:103CD000232AC3EE823A33EE232A32EEC22AF5EECD
:103CE000002A62EE222AB0EE622A052903EE212A7A
:103CF0002DD8DFE801F003080F161B24B0EE420AAE
:103D0000F0EE620A0AE0F0EE420AB0EE620A43EE1A
:103D1000A10A11E0F0EE420AB0EE620A03EEA12A17
:103D20000AE0B0EE420A03EEA10A0CE0B0EE420A4D
:103D300003EEA10AF0EE620AB0EE421A07E0B0EE1E
:103D4000420A03EEA12AF0EE420AB0EE621A84EDB6
:103D5000060A00EE100AB8EEC00A84ED081AC4ED97
:103D6000070A84ED090ABDEC048B10BD33EE623AFC
:103D700023EE213AB5EE403AF1EE10FA704700001A
:103D800094ED053AD4ED043A9FED0D4AC3EE233A83
:103D900062EE842A7047000022EE032A9FED085A43
:103DA00094ED044AD4ED054A02EE852A62EEA32A78
:103DB0007047000000000000D7B3DD3FD7B3DDBF80
:103DC000D7B35D3FB80600209FED1C1AF5EE000A40
:103DD00040EE010ABDEEE00AF5EE400A10EE100AD0
:103DE000F1EE10FA48BF401E00EE100AB8EEC00A0D
:103DF00030EEC00ADFED120A20EE200AFDEEC00A06
:103E000010EE900AC0F30800014601EE101AB8EE59
:103E1000411A0C4970EE410A01EB8002B7EE000A2C
:103E200001EB800030EE600A92ED001AD0ED011A2D
:103E300020EE010A00EEA10A704700BF83F9223E7E
:103E400000000044D4680008B5EE400AF1EE10FA14
:103E500006D5DFED1F0AB4EE600AF1EE10FA35DA8E
:103E60009FED1C1A60EE010ABDEEE01AB5EE400AA5
:103E700011EE100AF1EE10FA48BF401E00EE100AD3
:103E8000B8EEC00A30EEC00ADFED130A20EE200AB9
:103E9000FDEEC00A10EE900AC0F30800014601EEE4
:103EA000101AB8EE411A0D4970EE410A01EB80027A
:103EB000B7EE000A01EB800030EE600A92ED001AC6
:103EC000D0ED011A20EE010A00EEA10A704700BFF2
:103ED000CD024CB483F9223E00000044D4680008AF
:103EE00038B5044600F0D6FC14F1010F054602D0A7
:103EF00004480178641800F0CDFC401BA042FAD3BE
:103F000031BD00BF0403002041EC100B01BD80B5A2
:103F100000F074FEF8E780B551EC100B01F072F878
:103F2000F2E780B551EC100B01F06EF8ECE7000001
:103F300000B551EC100B00F003F841EC100B00BD84
:103F400040F2FF7C0B0D4DD0634566D230B421EAC0
:103F5000035141F4801103F2FD3C5FEA5C0C01D394
:103F600000184941890041EA907180004FF44014E3
:103F70000023E202D50AB1F5100107D46D081DD265
:103F8000091B641900184941491BF7D56D080AD26D
:103F90000919641B00184941491BEFD56D08F7D377
:103FA00001E0520817D0C01861419B1AAC410018BB
:103FB0004941801AA941F4D452080AD0C01AA1413B
:103FC0009B186C4100184941801AA941E9D4520854
:103FD000F4D15B1C6C4161084FEA330001EB0C51DA
:103FE00030BC704750EA0103FBD030B4B1FA81F322
:103FF00011B9B0FA80F41B190B3BB3F120042FBFA9
:1040000000FA04F19940C3F1200420FA04F438BF07
:1040100021439840D3F101039DE7634514BF50EA63
:10402000410CDEE711F5801FDBD8D943AFF30080E8
:104030007047000030B595B01022002111A800F0A3
:10404000E5FF082200F04CF91C2200F0AEF8202217
:10405000002109A800F0DAFFDFF82C44DFF82C0477
:10406000206000214FF4FA60E060202201206061AE
:104070006160A2604FF48075A16125612046FEF762
:1040800021FD08B101F090F84FF48050119011A972
:104090002046FEF7CAFF08B101F086F82046FEF779
:1040A00048FD08B101F080F87021009100220192D2
:1040B00069462046FFF736FA08B101F075F860202E
:1040C000002102900391002205910791049206922B
:1040D000089200F036F808B101F066F8042200F00A
:1040E00030F808B101F060F8082200F02AF808B1B1
:1040F00001F05AF8702140F2CF720291039202A9A6
:104100000C2200F01FF808B101F04EF84FF4806166
:104110000A914FF4006020210C9109904FF4005156
:1041200000220E910D9210920B9509A92046FFF7DF
:1041300018FA08B101F038F8204600F06DF915B012
:1041400030BD02A92046FEF7F8BE18B58BB0242278
:1041500000F02BF8082200F0C3F8DFF834434FF0EA
:104160008040002120606160216140F6FF700321E2
:10417000E0600291002001210022A06104910690DC
:1041800008910A90A260039205920792099202A9EF
:104190002046FEF730FD08B101F006F800F02DF8DA
:1041A00008B101F001F80CB010BD002102A800F028
:1041B0002DBF10B586B01022FFF7F7FF082200F0E0
:1041C0008FF8B44CB44820603F2140F2E73000F053
:1041D0007CF808B100F0E8FF4FF48050029002A98B
:1041E0002046FEF722FF08B100F0DEFF00F005F8E0
:1041F00008B100F0D9FF06B010BD00210091019177
:1042000020466946FFF78EB918B58FB010220021FD
:104210000BA800F0FBFE1422002106A800F0F6FE19
:104220000822002104A800F0F1FE00F058F89B4C91
:104230009B4820600F214FF6FF7000F046F808B150
:1042400000F0B2FF4FF480500B900BA92046FEF710
:10425000ECFE08B100F0A8FF2046FEF7ADFC08B167
:1042600000F0A2FF042106915022002108910A913A
:10427000079206A92046FEF730FF08B100F094FF30
:10428000002104910591204604A9FFF74BF908B1DC
:1042900000F08AFF01220192002100910291002288
:1042A000039269462046FEF7CEFD08B100F07CFF80
:1042B000022100910191042269462046FEF7C3FDC8
:1042C00008B100F071FF10B010BD0022E060616025
:1042D000A2602261A2612046FEF7F4BB04461022D0
:1042E0000021684600F092BE18B585B00446102241
:1042F000002101A800F08AFE206800F0C1F809D171
:10430000086840F400600860096801F400610091E9
:10431000009838E0604A90420FD1486840F00200AF
:1043200048600022486800F00200009004210098D4
:104330001D2000F05BFF1D2023E0594A904222D14E
:10434000486840F004004860486800F004000090AD
:1043500000980A6842F008020A600022096801F029
:1043600008010091402100984E4801910292039269
:1043700001A900F083FF002200211E2000F036FF7B
:104380001E2000F050FF06B010BD18B585B0FFF735
:10439000A5FF2168B1F1804F3CD14348416841F00D
:1043A00001014160416801F00101049100F062F8EF
:1043B000036803F0040304930499026842F00802BE
:1043C00002604FF40041006800F0080004900022F1
:1043D00004983648009101920292694600F04EFF1F
:1043E0000820002100900191029169462D4800F0BB
:1043F00045FF2F48016821F4407141F0E06141F42C
:1044000080710160002200211C2000F0EFFE1C20C2
:1044100000F009FF06B010BD18B585B0FFF75EFFCC
:1044200021681A48814223D11F48016841F00801E0
:104430000160026802F00802049200F01BF84FF4D9
:104440006041006800F004000490022204981548BE
:10445000009101920392694600F010FF4FF4E06072
:1044600002210090019103916946104800F006FF77
:1044700006B010BD0499026842F004020260704761
:10448000024A09499042704708050020002C01406B
:10449000480500208805002000040040C8050020D1
:1044A00000080040000C01401810024000080140C4
:1044B000040001407047704770477047704770476D
:1044C00070470000F8B5044600270026002C7AD07B
:1044D00004F12405686828B90021A96028702046E5
:1044E00001F02CF8204600F0B3F96968CA066BD4D5
:1044F000010069D1696821F4885141F002016960C5
:104500002368DFF83013E2698B4204BFB2F5402F15
:104510004FF40022D4F804C0217B42EA0C02D4F804
:1045200008C042EA4102BCF5807F14BFBCF1010F14
:104530004FF4807794F814C0BCF1010F0FD131B95A
:10454000A169491E47EA413747F4006707E06968F7
:1045500041F020016960A96841F00101A960596832
:1045600021F469410F435F602368DFF8CC129F6834
:104570000F4017439F60A168B1F5807F18BF0129E4
:1045800002D12669761E36052168CB6A23F47003B2
:104590001E43CE622468DFF8A412A3680B40934246
:1045A00007D10022AA6001216A6861F301026A60F2
:1045B000F2BD686820F0020040F010006860A86852
:1045C00040F00100A86003E0686840F010006860F7
:1045D0000120F2BD10B5044621684868820623D543
:1045E000084603689A071FD5A06AC20603D4A06ACA
:1045F00040F40070A06200F05CF804BF207B00284B
:104600000BD1486820F020004860A06A20F4807038
:10461000A062A06AC10400F052F8204600F0DAFF60
:1046200021686FF0120008602168486802062CD5E6
:10463000084603685A0728D5A06AC20603D4A06AB0
:1046400040F40050A062886800F4E040B0F5E04F0C
:1046500008D04868420511D400F02BF804BF207B35
:1046600000280BD1486820F080004860A06A20F440
:104670008050A062A06AC10500F021F82046FDF735
:104680004EFB21686FF00C000860226850684106FC
:104690000ED510460268D1070AD5A06A40F48030D2
:1046A000A062204600F097FF21686FF001000860CB
:1046B00010BD886800F46020B0F5602F704703D407
:1046C000A06A40F00100A0627047F8B50023009393
:1046D0000A4600F1240300211C78012C01D102209C
:1046E000F2BD01241C701F27546815680668072C4A
:1046F00008D2641E04EB8404D6F834C000F05EF8DF
:10470000756312E00D2C08D2E41F04EB8404D6F884
:1047100030C000F053F8356307E00D3C04EB84042F
:10472000D6F82CC000F04AF8F5620727166894689E
:1047300005680A2E08D30A3E06EB4606D5F80CC0DB
:1047400000F036F8EC6006E006EB4606D5F810C03F
:1047500000F02EF82C611468102C18BF112C23D1F6
:104760000068384CA0421AD1374805682C021BD487
:10477000056845F4000505601068102814D1304A1A
:10478000324D1468B4FBF5F50A20454300950098B6
:1047900000281EBF0098401E0090F8D104E00121BF
:1047A000586840F020005860002018700846F2BD9C
:1047B000B7402CEA0707B4403C437047A7402CEAB7
:1047C0000707A5403D43704738B5044600200090D8
:1047D00020688168CA072AD481681C4A41F0010117
:1047E000816017480168B1FBF2F2009202E0009884
:1047F000401E009000980028F9D100F04BF80546C3
:1048000020688168C80712D400F044F8401B0328D0
:10481000F6D304F124000022416841F01001416008
:10482000816841F0010181600270012032BD0020E9
:1048300032BD0000003C0140FDF7E1FFFE0E1FFF0E
:1048400010030020002401400824014040420F00D2
:1048500038B5044620688168CA0719D581684908B7
:104860004900816000F016F8054620688168C80795
:104870000ED500F00FF8401B0328F6D3A06A40F0D5
:104880001000A062E06A40F00100E062012032BD49
:10489000002032BD01484068704700BF040300207B
:1048A000F8B52DED048B140082B041EC180B1D46B9
:1048B00000F0DA8031F0004108BF002800F0D48019
:1048C00051EC180B4A00521512F1010F02D10803E6
:1048D00000F0CA80002C9FED689B57D56442654F5D
:1048E0007F4407F5C87708260CE0E00707D5D7E92D
:1048F000002351EC190BFDF733F841EC190B640858
:104900000837761E002C18BF002EEED16A4651ECF7
:10491000180BFCF779FC009E53EC192BFCF7DCFE1E
:104920003246FCF7DDFC41EC180B31F0004108BFCA
:10493000002800F0828051EC180B4A00521512F149
:10494000010F01D1080378D0002C76D06A4651ECD3
:10495000180BFCF759FC009E994A9A4BFDF700F89A
:104960003246FCF7BDFC41EC180B31F0004108BFAA
:10497000002862D051EC180B4A00521512F1010FB9
:1049800001D1080359D0641EE0D156E055DD394FFE
:104990007F4407F1E0070826E00707D5D7E90023A1
:1049A00051EC190BFCF7DCFF41EC190B64100837D4
:1049B000761E002C01DD002EEED16A4651EC180B5C
:1049C000FCF722FC2646009C53EC192BFCF7C8FF91
:1049D0002246FCF785FC41EC180B31F0004108BF82
:1049E00000282AD051EC180B4A00521512F1010F81
:1049F00001D1080321D0002E1FDD6A4651EC180BAF
:104A0000FCF702FC009C704A784BFCF7A9FF224699
:104A1000FCF766FC41EC180B31F0004108BF0028A0
:104A20000BD051EC180B4A00521512F1010F01D1B5
:104A3000080302D0761E002EDFDC51EC180B31F09B
:104A4000004108BF002808D051EC180B4A0052154D
:104A500012F1010F08D1080306D1AFF300801DB198
:104A6000286840F00100286002B051EC180BBDEC42
:104A7000048BF4BD34270000000000000000F03F6C
:104A80002DE9F14D81B00C462DED028B84B093469B
:104A90005FEA030A1CBF0020CAF80000079D07A8B0
:104AA00000F09AFDC11020F00800012801F0010873
:104AB00032D10220009001AB07992246284600F02F
:104AC0001DFE040008BF9FED4A0B1ED00298FCF7A4
:104AD000C1FC022C41EC100B17DB03AF661E9FEDEF
:104AE0003B8B51EC100B53EC182BFCF739FF0446B1
:104AF00057F8040B0D46FCF7ADFC22462B46FCF79D
:104B0000BBFC761E41EC100BEBD1019800EB0B02C5
:104B1000534651EC100B33E0022836D1009001AB24
:104B200007992246284600F0C5FE040008BF9FED05
:104B3000300B1ED00298FCF78DFC022C41EC100BC0
:104B400017DB03AF661E9FED238B51EC100B53EC6C
:104B5000182BFCF705FF044657F8040B0D46FCF72D
:104B600079FC22462B46FCF787FC761E41EC100BA5
:104B7000EBD1019A51EC100BFCF7B2FB53465A46AD
:104B8000FFF78EFE41EC100B0AE0032808BF9FEDF3
:104B9000130B05D004280CBF9FED120B9FED140BD7
:104BA000B8F1000F05D051EC100B81F0004141EC41
:104BB000100B04B051EC100BBDEC028BBDE8FC8D6A
:104BC000436FAC642806C80A3CBF737F0000000036
:104BD00065CDCD41000000000000B04100000000A4
:104BE0000000F07FFFFFFFFFFFFFFF7FDD4F157528
:104BF0000000000000000000002341E70022002127
:104C0000FAE70000F8B52DED068B174641EC180BBE
:104C1000DFF86023DFF86033FCF7A2FE41EC190BEC
:104C20000C4624F00041DFF85423DFF85433FCF73E
:104C300023FB58D29FEDCD0B51EC100B04F0004438
:104C4000214353EC192BFCF717FCFCF7E7FB06009C
:104C500045D0FCF7FFFB0022CB4BFCF781FE41EC7B
:104C6000190B4FF0A042C94BFCF77AFE53EC182BFE
:104C7000FCF702FC04460D4651EC190B4FF0C04204
:104C8000C34BFCF76DFE22462B46FCF7F5FB0446B2
:104C90000D4651EC190B4FF00052BE4BFCF760FE75
:104CA00022462B46FCF7E8FB04460D4651EC190B57
:104CB0000022B94BFCF754FE22462B46FCF7DCFBE6
:104CC00004460D4651EC190B4FF00052AD4BFCF76A
:104CD00047FE22462B46FCF7CFFB41EC180B06F0B3
:104CE0000306F719AEE053EC182B590041EAD271D4
:104CF0004815C91710F1010F14D14FF0FF34A1422C
:104D000008BFA04208D11B0343EA12531203002B31
:104D100008BF002A40F02581BDEC068B20466FF0CD
:104D20000041F4BD22F0000033F0004108BF00282C
:104D300005D1002F00F015819FED988B11E19FEDBB
:104D40008B0B51EC100B04F00044214353EC192B56
:104D5000FCF792FB4B0043EAD073420041EC190B85
:104D6000002B08BF002A19D040F23344A4EB53545F
:104D7000352C04DB00F0000001F000410CE0202C99
:104D800003DD203CE140A14000E001D1002003E030
:104D9000002CC4BFE040A04041EC190B51EC190BB2
:104DA00020F0000231F0004308BF002A43D0002267
:104DB000754BFCF7D5FD41EC1A0B4FF0A042734B3D
:104DC000FCF7CEFD53EC182BFCF756FB04460D46C2
:104DD00051EC1A0B4FF0C0426D4BFCF7C1FD22465F
:104DE0002B46FCF749FB04460D4651EC1A0B4FF0DD
:104DF0000052684BFCF7B4FD22462B46FCF73CFB07
:104E000004460D4651EC1A0B0022634BFCF7A8FD3B
:104E100022462B46FCF730FB04460D4651EC1A0B9C
:104E20004FF00052574BFCF79BFD22462B46FCF7F8
:104E300023FB41EC180B51EC190BFCF7EFFA00F0D7
:104E40000300C71951EC180B21F0004100224FF06C
:104E50007953FCF711FA04D2F8077AD59FED4F8BFE
:104E600077E051EC180B53EC182BFCF779FD41EC73
:104E7000190BF80731D551EC190B4A4A4A4BFCF78C
:104E80006FFD4A4A4A4BFCF7F7FA53EC192BFCF733
:104E900067FD484A484BFCF7EFFA53EC192BFCF737
:104EA0005FFD464A464BFCF7E7FA53EC192BFCF73B
:104EB00057FD444A444BFCF7DFFA53EC192BFCF73F
:104EC0004FFD6FF05102414BFCF7D6FA53EC192B12
:104ED000FCF746FD00223E4B37E051EC180B53EC3B
:104EE000192BFCF73DFD04460D4651EC190B394AD0
:104EF000394BFCF735FD394A394BFCF7BDFA53EC19
:104F0000192BFCF72DFD374A374BFCF7B5FA53EC5C
:104F1000192BFCF725FD354A354BFCF7ADFA53EC60
:104F2000192BFCF71DFD334A334BFCF7A5FA53EC64
:104F3000192BFCF715FD314A314BFCF79DFA22463F
:104F40002B46FCF70DFD53EC182BFCF795FA41ECC2
:104F5000180BB80705D551EC180B81F0004141EC56
:104F6000180B51EC180BBDEC068BF4BD00000000D3
:104F70000000E03F83C8C96D305FE43F0000A0FF40
:104F8000FFFFDF419A833BBB0000303EFB21B9C1EC
:104F9000B41011C026A651BE5C14D3BC00000000A2
:104FA0000000F03F09260A1039BA213E3BA861C62D
:104FB000F97D92BE63AC30909F01FA3EF6FB51162C
:104FC0006CC156BFB10255555555A53FFFFFDFBF18
:104FD0000000F03FB08F2FC310D8E53D8F0C73A1B8
:104FE000E1E55ABE4DADE44FE31DC73E3EE3B519C2
:104FF000A0012ABFFAF010111111813F42555555F9
:105000005555C5BF0122FDE50022FBE510B504465C
:1050100010460A460146204600F050FD204610BDCD
:1050200080B500F07FFD00F016F800F08DFD00F077
:105030002DFAFEF7FFFFFFF788F8FFF7E5F8FFF717
:10504000B8F800F0C9FDFCF713FE0122534954489B
:1050500000F0B5FEFEE700B595B028210BA801F0E1
:1050600069F81421684601F065F8182105A801F0D7
:1050700061F8022101220B910F921021022210915E
:10508000129200214FF46012139114920BA801F0B8
:1050900055F808B100F088F8022101910F204FF473
:1050A00080610090002203910292049202216846DE
:1050B00001F0CEF908B100F077F802214FF4004278
:1050C0000591079205A801F097FA08B100F06CF875
:1050D00015B000BD01B54FF6FF7301226946304897
:1050E00000F013FE009802BDF8B52E4E2B4C32781E
:1050F0002B4DFF2A4FF6FF770DD100223270FF2192
:10510000301D01F017F83B465FF00A0227A1284640
:1051100000F0FBFD3AE02078311D8854521C5FFA04
:1051200082FCB44432709CF803000A282ED13B461E
:10513000D2B2284600F0E9FD284600F025FF2128DC
:10514000FAD0307830440A22817886F804118270CF
:1051500000203070301DFEF7DAFE51EC100BFEF728
:105160001BFC00EE100A96F8040106F501713128C7
:1051700008BF81ED010A03D0322808BF81ED020A81
:1051800081ED000AFF21301D00F0D4FF21462846A2
:10519000BDE8F840012200F012BE000068070020C0
:1051A000080600200000002072B6FEE7CAFDBEDD42
:1051B000D2E7B3F6000000000901020002D428483B
:1051C00081547047274B02F00F021A4402F8041C66
:1051D0007047254B19684FF6FF020002114000F49A
:1051E000E0600843214908431860704770B51E4BC2
:1051F0001C68C4F302230124C3F10705052D2EBF4B
:105200000F2504FA05F56D1E1E1D072E34BF002361
:10521000DB1E2940994004FA03F3BDE870405B1E91
:105220001A401143C8E7010007D4012200F01F0112
:105230000F4B8A40400943F820207047401EB0F1D0
:10524000807F01D3012070470A490B4A4860002340
:10525000F02010708B60072008600020704700006D
:1052600000E400E018ED00E00CED00E00000FA05BD
:1052700000E100E010E000E023ED00E02DE9F84F50
:105280004FF0000E0024714A714BDFF8C881DFF83F
:10529000C8B14FF00F0982460DE0D7683840D060A2
:1052A00007E0C2F808C04D68AD02F6D5D0680743E4
:1052B000D7600EF1010E0F6837FA0EF000F0B680DD
:1052C000012000FA0EFC0CEA07076745F1D1486897
:1052D00038B301281AD002281DD003282ED0112857
:1052E00016D012281AD05D4DA8421CBF5C4DA842B2
:1052F00017D05C4DA8421CBF5B4DA84211D05B4D3E
:10530000A8421CBF5A4DA8420BD018E0CC6816E04A
:10531000CC68241D13E0CC68083410E0CC680C3451
:105320000DE0886808B9042409E0012819BF0824A1
:10533000CAF814C00824CAF810C000E00024B7F569
:10534000807F03D250464FEA8E0C05E0AEF108058F
:105350000AF104004FEA850C056809FA0CF6B5431A
:1053600004FA0CF646EA050CC0F800C04868C00014
:105370009FD5D8F8000040F00100C8F800004FEABF
:105380008E06D8F8005005F00105009506F00C0CCB
:1053900000984FEA9E0053F8205009FA0CF6B543E6
:1053A000DA4508BF002618D0324EB24508BF0126A4
:1053B00013D0314EB24508BF02260ED02F4EB24553
:1053C00008BF032609D02E4EB24508BF042604D0DC
:1053D0002C4EB2450CBF0526062606FA0CF646EA08
:1053E000050C43F820C0F8434D68ED0306D5D2F80C
:1053F00000C047EA0C0CC2F800C002E01568054086
:1054000015604D68D2F804C0AD034CBF47EA0C0CE0
:1054100000EA0C0CC2F804C04D68D2F808C0ED02D6
:105420004CBF47EA0C0C00EA0C0C3AE7BDE8F18FE0
:1054300002B9090401617047134A136801460B421F
:105440001CBF1160FCF770BE7047000000040140F3
:10545000080001401810024000080140000011102F
:105460000000121000002110000022100000311076
:1054700000003210000C01400010014000140140F7
:1054800000180140001C01401404014010B58AB00E
:105490000C22002107A8FFF7B9FD1C220021684655
:1054A000FFF7B4FD464C474820604FF48071A1607F
:1054B0000020012220754FF4602160602273E161B9
:1054C00022612046FEF7FEFF08B1FFF76DFE0520C2
:1054D0000121079008910722099207A92046FFF7AA
:1054E000F4F808B1FFF760FE0721009101220321C3
:1054F000049101924FF48051002206910292ADF87E
:105500001420039200F016F808B1FFF74DFE0621B3
:105510000091022200F00DF808B1FFF745FE0921C5
:105520000091032200F005F808B1FFF73DFE0AB034
:1055300010BD019269462046FEF7C1B818B585B086
:1055400004461022002101A8FFF760FD21681D48D4
:10555000814233D11C48016841F400710160026846
:1055600002F4007200920099026842F004020260A4
:10557000036803F00403009303230099026842F0D8
:1055800008020260E022006800F008000090009924
:105590000192029301A90D48FFF770FE02210191CB
:1055A0000322029201A90A48FFF768FE00220021A7
:1055B0001220FFF71BFE1220FFF735FE06B010BDCC
:1055C0008406002000240140181002400008014019
:1055D000000C0140704770472DE9F84305460C4622
:1055E0002E68002700E0761C307801F079F800285A
:1055F000F9D130782D280CBF08272B2800D1761C34
:10560000307840F020016E2927D1707840F02000DA
:10561000612802BFB07840F020006E2802D02E68CA
:10562000002746E0F61CB046042798F8000028281A
:105630003FD118F8019F484601F05CF80028F8D1E6
:10564000A9F130000A28F4D398F800005F28F0D0C0
:1056500029282ED108F101062BE069292CD1707878
:1056600040F020006E2802BFB07840F0200066288D
:1056700002D02E6800271CE016F8030F40F020002F
:1056800047F00307692802BF707840F020006E28B9
:105690000FD1B07840F02000692802BFF07840F0C8
:1056A0002000742805D1307940F02000792808BF07
:1056B000761DF4B126601CE0302802BF707840F0FF
:1056C0002000782813D1B01C01782E2908BF401C77
:1056D0000078A0F16101062921BFA0F14102062A4C
:1056E00030380A2803D2B61C47F0020701E047F021
:1056F00001072E603846BDE8F28300002DE9F14F26
:105700008CB04FF00008169D05EBC5059246C346C8
:105710002D2DC8BF2D25C3F800B0C3F804B0D9465D
:1057200002E0491C4FF0010908783028F9D0002424
:1057300011E01868401C18600A78302A08D04FF031
:10574000010805E0AC42F4DA30380DF80400641CBE
:10575000491C4FF001090878A0F130020A2AF1D360
:105760000F461E46FCF7ECF9406A39780278914200
:1057700008BF7F1C002C48460ED1397830290BD148
:105780003068401E30607F1C0120F6E7302918BFCA
:105790004FF001087F1C01203978A1F130020A2A5C
:1057A0000AD2AC42F2DAA1F130000DF80400641C18
:1057B0003268521E3260EDE7B8F1000F0DD00DF1E6
:1057C000FF314A5D521C4A5507E00DF1FF32115D71
:1057D00049B93268521C3260641E002CF5DC04BFEB
:1057E0008DF800B00124002856D0092394FBF3F370
:1057F000C4F1090903EBC3034B44092193FBF1F105
:10580000002201EBC101591A1AD04FF0010B17E029
:1058100056F82B1001EB810105EB410146F82B10E6
:105820000CE0092193FBF1F101EBC1011DF80250DD
:10583000591AEDD10BF1010B46F82B505B1C521C91
:10584000A242EEDB397841F02001652924D13946A6
:1058500017F8012F2B2A16BF2D2A17F8014B2B24DE
:1058600000220023124D08E0AB4204DA03EB83026E
:105870000CEB4203303B7F1C012297F800C0ACF1D7
:10588000300EBEF10A0FEFD32D2C08BF5B423468F7
:105890001B19336002B90F46BAF1000F03D000B9EB
:1058A0000C9FCAF8007058460DB0BDE8F08F00BFDD
:1058B00000E1F5052DE9F14F8CB09146DDF85880F7
:1058C000C8EBC8084FF0000AB8F1230FC8BF4FF06B
:1058D0002308C3F800A0C3F804A0002701E0491C76
:1058E000012708783028FAD068A201925FF00004FE
:1058F0006CA200920DF1080B0D461E460EE03068BA
:10590000401C306008E0A045F9DB019A0099801A3C
:10591000085C0BF80400641C6D1C012795F800104E
:105920005AA01622FBF7F0FB0028ECD1FCF708F98F
:10593000406A29780278914208BF6D1CB4B9287872
:10594000302813D13168491E31606D1C0127F6E7FC
:10595000A04509DB019A0099801A085C0BF8040045
:10596000641C3168491E31606D1C0127297816229C
:1059700046A0FBF7C9FB0028EAD1A04517DA1BF8BF
:105980000810072906DD0DF1070111F80820521C47
:1059900001F8082044463268521C326007E00DF1DD
:1059A0000702115D49B93268521C3260641E002C36
:1059B000F5DC04BF8DF808A0012431688900002FB0
:1059C000316055D0072394FBF3F3C4F1070BC3EB0D
:1059D000C3035B44072193FBF1F10022C1EBC1013A
:1059E000591A19D04FF0010A16E056F82A100BEB9D
:1059F000011046F82A000DE0072102A893FBF1F1FF
:105A0000C1EBC10110F802B0591AEED10AF1010A36
:105A100046F82AB05B1C521CA242EDDB297841F00B
:105A20002001702924D1294615F8012F2B2A16BFF1
:105A30002D2A15F8014B2B2400220023124808E0E0
:105A4000834204DA03EB83020CEB4203303B6D1C10
:105A5000012295F800C0ACF1300EBEF10A0FEFD371
:105A60002D2C08BF5B4234681B19336002B90D4608
:105A7000B9F1000F03D007B90C9DC9F8005050468A
:105A80000DB0BDE8F08F000000E1F5053031323394
:105A90003435363738396162636465664142434460
:105AA00045460000000102030405060708090A0B29
:105AB0000C0D0E0F0A0B0C0D0E0F000062F30F22DF
:105AC00062F31F42401810F0030308D0C91A1FD315
:105AD000DB0748BF00F8012D28BF20F8022D130076
:105AE00030B414461546103928BF20E93C00FAD8D6
:105AF000490728BF20E90C0048BF40F8042D890061
:105B000028BF20F8022D48BF00F8012D30BC704797
:105B1000C91818BF00F8012DCB0728BF00F8012DC8
:105B20007047000080B50748016841F0100101602E
:105B30000320FFF74EFB0F2000F0E6FD00F004FE0F
:105B4000002002BD0020024018B585B010220021BF
:105B50006846FFF75BFA1D481D4C016841F00401DF
:105B60000160026802F0040204920499026842F0A3
:105B7000080202600022006800F00800049004217E
:105B800004982046FFF754FC042100910122019261
:105B9000002102910222039269462046FFF76EFB24
:105BA0004FF480600B4900900191002202926946F7
:105BB0002046FFF763FB002201212820FFF716FB98
:105BC0002820FFF730FB06B010BD00BF18100240C0
:105BD000000C01400000111080B5294829490160DE
:105BE0004FF4E13200230C2142608360C360036103
:105BF00041618361C36100F04BF818B1BDE8014019
:105C0000FFF7D2BA01BD18B585B0044610220021B5
:105C10006846FFF7FBF921681A4881422ED11A48DD
:105C20001A4C416841F400314160416801F400318F
:105C300004910499026842F00402026004210068A1
:105C400000F00400049002220498009101920321C4
:105C5000039120466946FFF711FB082000210090C0
:105C60000191029120466946FFF708FB00220121BD
:105C70002620FFF7BBFA2620FFF7D5FA06B010BDA5
:105C800008060020004400401810024000080140AF
:105C900038B5040001D1012032BD00F023F808B965
:105CA00000F024F800F014F800F025F8FFE7416157
:105CB00000F001F832BD2068C16841F40051C160B4
:105CC00000206860202169702020A87000207047A3
:105CD000242068702068C16821F40051C16020460A
:105CE00000F0E5B904F138056878704700212970A3
:105CF0002046FFF788BF2068016921F490410161C7
:105D00002068416921F02A0170472DE9F8430546D2
:105D100005F138070C46787820281646984646D173
:105D2000002C14BF002E012042D0387801283ED02C
:105D3000012139700020786021227A70FEF7AAFDD7
:105D4000AE848146EE8403E0296814F8010B4860B4
:105D5000E88CE0B1E88C411EE9844B46A868CDF898
:105D60000080B0F5805F0DD100F024F8B8B920882C
:105D70002968C0F3080048602869002814BF641C23
:105D8000A41CE5E700F016F80028DDD007E0CDF808
:105D900000804B460022402100F00EF808B103209D
:105DA00006E02020787000213970002000E00220F9
:105DB000BDE8F28300228021284600F0EBB810B540
:105DC00000F138039C78202C22D109B1140001D1B4
:105DD000012010BD1C78012C1AD001241C70816296
:105DE0008285C2850021596022229A70197001684B
:105DF000CA6842F48072CA6001684A6942F00102CE
:105E00004A610068C16841F02001C160002010BDF6
:105E1000022010BD28684169490849004161704766
:105E2000416921F040014161606B704770B50446E3
:105E300020680268014612F00F0FCD68436905F033
:105E4000200002F0200107D1002918BF00285AD0F5
:105E50002046BDE87040E1E0DE0702D415F4907FF3
:105E600051D0D60705D5ED0503D5E66B46F0010602
:105E7000E663550705D5DE0703D5E56B45F002055A
:105E8000E563950705D5DE0703D5E56B45F0040509
:105E9000E563120705D5DB0703D5E26B42F0080284
:105EA000E263E26B002A6ED000291EBF0028204664
:105EB00000F0B4F820684069E16B0A0701D440069D
:105EC0001BD5204600F093F8206841694A060FD59B
:105ED000FFF7A6FF60B10FF235114163606B00F070
:105EE00055FC00284FD0606B416BBDE870400847FF
:105EF0002046BDE8704000F0D1BC204600F0CEFC4A
:105F00000020E06370BD10062CD529062AD594F830
:105F10003900212837D1A068B0F5805F206A0CD104
:105F200001882268C1F30801516020690028206AB5
:105F30000CBF811C411C216204E0411C21622268CB
:105F400000785060E08C401EE08480B2D8B92068B0
:105F5000C16821F08001C1602068C16841F0400142
:105F6000C16070BD50060ED569060CD52068C168A9
:105F700021F04001C1602046202184F83910BDE89D
:105F8000704000F08CBC70BD00F139010878497890
:105F9000084370472DE9F041069C05460E469046A1
:105FA0001F46286801683140B1420CBF0120002023
:105FB000404519D114F1010FF3D024B1FEF76AFC6A
:105FC000C01B8442EDD22868C16821F4D071C16041
:105FD0002022FFF71FFF05F1380020214170827059
:105FE00000210170032000E00020BDE8F08101687D
:105FF000CA6822F49072CA6001684A695208520065
:106000004A61202180F83A1070470000406A002160
:10601000C1850022C28400F041BC000010B590F898
:106020003A10222941D18168B1F5805F2AD1826A74
:106030000169134601BB04686168C1F30801921C41
:1060400082621980C18D491EC18589B259BB016820
:10605000CA6822F02002CA600168CA6822F480720D
:10606000CA6001684A69520852004A61202180F8DA
:106070003A10FFF739F816E00168496801F0FF01AE
:10608000521CDDE701690029816A05D14A1C826240
:1060900003685A680A70D5E74A1C826203685A6826
:1060A00002F07F02F6E7002010BD022010BD70B59F
:1060B0000446192622681169E06821F44051014321
:1060C00011616FF06305D3681849A0680B4021691E
:1060D000034360690B430343D3605169A06921F412
:1060E0004071014312485161824202D100F058FAD6
:1060F00001E000F04DFA464360688000B6FBF0F026
:106100006421B0FBF1F105FB01052D01323564205E
:10611000B5FBF0F000F0F00202EB0112216800F094
:106120000F008018886070BD00000000F3E9FFFFD9
:1061300000380140002200F0B3BB00002DE9F84315
:10614000040016D02078DFF86C64C10713D570689E
:1061500000F00C00042807D0706800F00C0008283C
:1061600041D17068C1033ED53068810303D56068B2
:10617000002800F064812078DFF84874810719D581
:10618000706810F00C0F07D0706800F00C00082841
:1061900061D17068C1035ED43068810703D520697E
:1061A000012840F04C813168606921F0F80141EA32
:1061B000C00131602178080740F18180A069DFF8D3
:1061C0000814002800F0A68001220A60FEF762FB96
:1061D0000546706A810763D4FEF75CFB401B02280A
:1061E000F7D903202EE16068B0F5803F04D1306814
:1061F00040F48030306014E008B930680AE0B0F54F
:10620000A02F306806D140F480203060316841F41E
:10621000803105E020F480303060316821F4802145
:106220003160606858B1FEF735FB05463068810380
:10623000A1D4FEF72FFB401B6528F7D3D1E7FEF76B
:1062400029FB05463068810395D5FEF723FB401BEB
:106250006528F7D3C5E72069A8B101213960FEF7A9
:1062600019FB05463068810705D4FEF713FB401B78
:106270000228F7D9B5E73068616920F0F80040EAF4
:10628000C100306096E73860FEF704FB05463168D0
:1062900088078FD5FEF7FEFA401B0228F7D9A0E742
:1062A000DFF814030168C9084FF47A72B1FBF2F207
:1062B000009200BF0098411E00280091F9D120787B
:1062C00041076ED5F0690025C10009D4F06940F09E
:1062D0008050F0610125F06900F080500090009836
:1062E000DFF8E882D8F80000C10520D4D8F8000013
:1062F00040F48070C8F80000FEF7CCFA8146D8F868
:106300000000C10513D4FEF7C5FAA0EB090065280B
:10631000F5D366E70860FEF7BDFA0546706A8107A7
:10632000CDD5FEF7B7FA401B0228F7D959E7E06848
:10633000012808D008B9306A09E00528306A06D17A
:1063400040F004003062306A40F0010005E040088F
:1063500040003062306A20F00400306241F2893837
:10636000E06860B1FEF796FA8146306A810713D47F
:10637000FEF790FAA0EB09004045F6D331E7FEF7AF
:1063800089FA8146306A810706D5FEF783FAA0EBC9
:1063900009004045F6D324E71DB1F06920F0805094
:1063A000F061E06900284CD0716801F00C01082907
:1063B00038D002282AD100F047F80546306881011C
:1063C00005D5FEF767FA401B0228F7D909E7206ACE
:1063D000B0F5803F05D17168A06821F40031014318
:1063E00071607268206A616A22F4741202430A437F
:1063F0007260012000F029F804463068810120D441
:10640000FEF748FA001B0228F7D9EAE600F01CF86C
:1064100004463068810114D5FEF73CFA001B0228BF
:10642000F7D9DEE601280AD07068226A00F48031CC
:10643000914202BF00F47010616A884201D00120CD
:1064400000E00020BDE8F28300203866FEF722BAA3
:106450002DE9F041040088464ED05D4E00F077F8FB
:1064600002D200F06FF847D12068524D810712D553
:10647000400703D5696841F4E0616960207801074D
:1064800003D5686840F4605068606968A06821F0CE
:10649000F001014369602178C80725D560680128AB
:1064A00002D129688A0303E00228296802D18A01FF
:1064B00002D421E08A071FD56968890840EA810073
:1064C0006860FEF7E7F907466868616800F00C004D
:1064D000B0EB810F08D0FEF7DDF9C01B41F2893126
:1064E0008842F1D303202BE0306800F0070080459C
:1064F00004D200F027F801D0012021E020784107E4
:1065000005D56A68E06822F4E06202436A60217897
:10651000080706D56968206921F4605141EAC00185
:10652000696000F019F86A682A49234BC2F3031224
:10653000895CC84018602248006800F0E5F8002037
:10654000BDE8F0813168C90848EAC10131603068AE
:1065500000F00700404570471F4918480A6802F0DC
:106560000C03082B00D0704710B500BF1DA4C2F368
:106570008343D203E35C08D5096858431DA3C1F3E4
:106580004041595CB0FBF1F010BD1448584310BDB8
:106590000948114A006813681149C3F3022206E052
:1065A00005480D4A006813680D49C3F3C222895C8F
:1065B000C8407047001002401003002000127A000B
:1065C0000C03002000004242800442420070004060
:1065D00000200240347100080410024000093D0010
:1065E0000C73000802030405060708090A0B0C0DCA
:1065F0000E0F1010010200002DE9FC410646354D3A
:106600003078C10750D5A8690024C10009D4A86911
:1066100040F08050A8610124A86900F080500090EB
:1066200000982D4F3868C10511D4386840F4807047
:106630003860FEF72FF980463868C10507D4FEF7A9
:1066400029F9A0EB08006528F6D303203FE0E869AC
:1066500010F440701EBF716801F44071884218D078
:106660001E49E86901220A60002320F440700B6093
:10667000E861C0070DD5FEF70DF90746E869810707
:1066800007D4FEF707F9C01B41F289318842F5D3E0
:10669000DBE7EA69706822F440720243EA611CB1E8
:1066A000A86920F08050A8613078810705D52A6854
:1066B000B06822F4404202432A603178C80605D50A
:1066C0002968706921F48001014329600020BDE838
:1066D000F681000004100240007000404004424275
:1066E00010B50446FBF72AFA01462046096ABDE8C0
:1066F0001040084710B50446FBF720FA0146204633
:106700000969BDE81040084738B50D4D0D4B2A7892
:1067100004464FF47A711868B1FBF2F2B0FBF2F064
:10672000FEF78CFD50B9102C08D2002221464FF004
:10673000FF30FEF75BFDAC60002032BD012032BDB2
:1067400004030020100300200E4881B0016841F0CE
:1067500001010160026802F00102009200994268A2
:1067600042F080524260406800F0805000900098F3
:106770000548016821F0E06141F00071016001B05D
:10678000704700BF1810024004000140F8B590F8AF
:1067900021200024022A00F1340103D004204860A3
:1067A00001245FE00268DFF8C460136823F00E0381
:1067B00013604FF48077026815686D086D001560EE
:1067C0004FF480320368B3424FF4805519D9DFF893
:1067D0009860B34208BF012210D0DFF89460B34242
:1067E00008BF10220AD0DFF88C60B34208BF3A46D7
:1067F00004D0DFF88470BB4208BF2A46DFF87C3043
:1068000027E0DFF87CC063451CD0DFF878E07345F3
:106810001AD0DFF874C0634518D0DFF87070BB423F
:106820000EBF2A46DFF86850AB4210D0DFF8647024
:10683000BB4208BF4FF4801209D0B34207D14FF0DA
:10684000807204E0012202E0102200E03A46DFF804
:1068500048301A60012280F8212080F82040096821
:1068600001B188472046F2BD080402408000024082
:106870001C0402403004024044040240040402406C
:10688000080002401C000240300002404400024068
:10689000580002406C0002400400024070477047FC
:1068A00000B500BF130096469446103928BFA0E8F3
:1068B0000C50FAD85FEA417C28BF0CC048BF40F8B2
:1068C000042BC90728BF20F8022B48BF00F8012B72
:1068D00000BD000000000000920E493CB10AC93C16
:1068E0002BC3163D2EFB483D752B7B3D04A9963DE1
:1068F00080B6AF3D36BDC83D2FBCE13D73B2FA3D19
:1069000087CF093E8340163EB5AB223EA2102F3EF4
:10691000CF6E3B3EC2C5473E0115543E135C603E00
:106920007F9A6C3ECCCF783EC07D823E938E883E6F
:10693000229A8E3E32A0943E86A09A3EE59AA03ED0
:10694000128FA63ED47CAC3EEF63B23E2A44B83EE2
:10695000491DBE3E15EFC33E53B9C93ECA7BCF3E6B
:106960004136D53E80E8DA3E4F92E03E7533E63E52
:10697000BBCBEB3EEA5AF13ECBE0F63E275DFC3E58
:10698000E4E7003F3D9C033F824B063F9BF5083FF9
:106990006B9A0B3FDA390E3FCDD3103F2A68133F75
:1069A000D9F6153FC07F183FC6021B3FD17F1D3F60
:1069B000CBF61F3F9967223F25D2243F5636273F0B
:1069C0001594293F4AEB2B3FDE3B2E3FBB85303FE2
:1069D000C9C8323FF304353F233A373F4268393F55
:1069E0003B8F3B3FF9AE3D3F67C73F3F70D8413FCC
:1069F00001E2433F03E4453F65DE473F12D1493F93
:106A0000F8BB4B3F029F4D3F207A4F3F3D4D513FDA
:106A10004918533F31DB543FE595563F5348583FA3
:106A20006AF2593F1A945B3F532D5D3F05BE5E3FAE
:106A30002146603F97C5613F5A3C633F59AA643F76
:106A4000880F663FD86B673F3CBF683FA7096A3F26
:106A50000C4B6B3F5E836C3F93B26D3F9ED86E3F95
:106A600073F56F3F0809713F5213723F4714733F2C
:106A7000DD0B743F0BFA743FC6DE753F07BA763FF5
:106A8000C58B773FF853783F9812793F9DC7793F80
:106A900002737A3FBE147B3FCDAC7B3F283B7C3FEB
:106AA000C9BF7C3FAC3A7D3FCCAB7D3F23137E3FDB
:106AB000B0707E3F6DC47E3F580E7F3F6D4E7F3F6E
:106AC000AB847F3F0FB17F3F97D37F3F43EC7F3F46
:106AD00011FB7F3F0000803F11FB7F3F43EC7F3F76
:106AE00097D37F3F0FB17F3FAB847F3F6D4E7F3F9A
:106AF000580E7F3F6DC47E3FB0707E3F23137E3FB4
:106B0000CCAB7D3FAC3A7D3FC9BF7C3F283B7C3F4F
:106B1000CDAC7B3FBE147B3F02737A3F9DC7793F6C
:106B20009812793FF853783FC58B773F07BA763F85
:106B3000C6DE753F0BFA743FDD0B743F4714733F9D
:106B40005213723F0809713F73F56F3F9ED86E3F35
:106B500093B26D3F5E836C3F0C4B6B3FA7096A3F5E
:106B60003CBF683FD86B673F880F663F59AA643FB8
:106B70005A3C633F97C5613F2146603F05BE5E3F7B
:106B8000532D5D3F1A945B3F6AF2593F5348583F7B
:106B9000E595563F31DB543F4918533F3D4D513F3A
:106BA000207A4F3F029F4D3FF8BB4B3F12D1493FE8
:106BB00065DE473F03E4453F01E2433F70D8413F74
:106BC00067C73F3FF9AE3D3F3B8F3B3F4268393F90
:106BD000233A373FF304353FC9C8323FBB85303FC6
:106BE000DE3B2E3F4AEB2B3F1594293F5636273F7D
:106BF00025D2243F9967223FCBF61F3FD17F1D3F0F
:106C0000C6021B3FC07F183FD9F6153F2A68133FC5
:106C1000CDD3103FDA390E3F6B9A0B3F9BF5083FFF
:106C2000824B063F3D9C033FE4E7003F275DFC3E6F
:106C3000CBE0F63EEA5AF13EBBCBEB3E7533E63E87
:106C40004F92E03E80E8DA3E4136D53ECA7BCF3EE9
:106C500053B9C93E15EFC33E491DBE3E2A44B83E56
:106C6000EF63B23ED47CAC3E128FA63EE59AA03EC6
:106C700086A09A3E32A0943E229A8E3E938E883E03
:106C8000C07D823ECCCF783E7F9A6C3E135C603EE6
:106C90000115543EC2C5473ECF6E3B3EA2102F3E6B
:106CA000B5AB223E8340163E87CF093E73B2FA3D14
:106CB0002FBCE13D36BDC83D80B6AF3D04A9963D31
:106CC000752B7B3D2EFB483D2BC3163DB10AC93CBD
:106CD000920E493C00000000920E49BCB10AC9BCAA
:106CE0002BC316BD2EFB48BD752B7BBD04A996BDDD
:106CF00080B6AFBD36BDC8BD2FBCE1BD73B2FABD15
:106D000087CF09BE834016BEB5AB22BEA2102FBEF0
:106D1000CF6E3BBEC2C547BE011554BE135C60BEFC
:106D20007F9A6CBECCCF78BEC07D82BE938E88BE6B
:106D3000229A8EBE32A094BE86A09ABEE59AA0BECC
:106D4000128FA6BED47CACBEEF63B2BE2A44B8BEDE
:106D5000491DBEBE15EFC3BE53B9C9BECA7BCFBE67
:106D60004136D5BE80E8DABE4F92E0BE7533E6BE4E
:106D7000BBCBEBBEEA5AF1BECBE0F6BE275DFCBE54
:106D8000E4E700BF3D9C03BF824B06BF9BF508BFF5
:106D90006B9A0BBFDA390EBFCDD310BF2A6813BF71
:106DA000D9F615BFC07F18BFC6021BBFD17F1DBF5C
:106DB000CBF61FBF996722BF25D224BF563627BF07
:106DC000159429BF4AEB2BBFDE3B2EBFBB8530BFDE
:106DD000C9C832BFF30435BF233A37BF426839BF51
:106DE0003B8F3BBFF9AE3DBF67C73FBF70D841BFC8
:106DF00001E243BF03E445BF65DE47BF12D149BF8F
:106E0000F8BB4BBF029F4DBF207A4FBF3D4D51BFD6
:106E1000491853BF31DB54BFE59556BF534858BF9F
:106E20006AF259BF1A945BBF532D5DBF05BE5EBFAA
:106E3000214660BF97C561BF5A3C63BF59AA64BF72
:106E4000880F66BFD86B67BF3CBF68BFA7096ABF22
:106E50000C4B6BBF5E836CBF93B26DBF9ED86EBF91
:106E600073F56FBF080971BF521372BF471473BF28
:106E7000DD0B74BF0BFA74BFC6DE75BF07BA76BFF1
:106E8000C58B77BFF85378BF981279BF9DC779BF7C
:106E900002737ABFBE147BBFCDAC7BBF283B7CBFE7
:106EA000C9BF7CBFAC3A7DBFCCAB7DBF23137EBFD7
:106EB000B0707EBF6DC47EBF580E7FBF6D4E7FBF6A
:106EC000AB847FBF0FB17FBF97D37FBF43EC7FBF42
:106ED00011FB7FBF000080BF11FB7FBF43EC7FBF72
:106EE00097D37FBF0FB17FBFAB847FBF6D4E7FBF96
:106EF000580E7FBF6DC47EBFB0707EBF23137EBFB0
:106F0000CCAB7DBFAC3A7DBFC9BF7CBF283B7CBF4B
:106F1000CDAC7BBFBE147BBF02737ABF9DC779BF68
:106F2000981279BFF85378BFC58B77BF07BA76BF81
:106F3000C6DE75BF0BFA74BFDD0B74BF471473BF99
:106F4000521372BF080971BF73F56FBF9ED86EBF31
:106F500093B26DBF5E836CBF0C4B6BBFA7096ABF5A
:106F60003CBF68BFD86B67BF880F66BF59AA64BFB4
:106F70005A3C63BF97C561BF214660BF05BE5EBF77
:106F8000532D5DBF1A945BBF6AF259BF534858BF77
:106F9000E59556BF31DB54BF491853BF3D4D51BF36
:106FA000207A4FBF029F4DBFF8BB4BBF12D149BFE4
:106FB00065DE47BF03E445BF01E243BF70D841BF70
:106FC00067C73FBFF9AE3DBF3B8F3BBF426839BF8C
:106FD000233A37BFF30435BFC9C832BFBB8530BFC2
:106FE000DE3B2EBF4AEB2BBF159429BF563627BF79
:106FF00025D224BF996722BFCBF61FBFD17F1DBF0B
:10700000C6021BBFC07F18BFD9F615BF2A6813BFC1
:10701000CDD310BFDA390EBF6B9A0BBF9BF508BFFB
:10702000824B06BF3D9C03BFE4E700BF275DFCBE6B
:10703000CBE0F6BEEA5AF1BEBBCBEBBE7533E6BE83
:107040004F92E0BE80E8DABE4136D5BECA7BCFBEE5
:1070500053B9C9BE15EFC3BE491DBEBE2A44B8BE52
:10706000EF63B2BED47CACBE128FA6BEE59AA0BEC2
:1070700086A09ABE32A094BE229A8EBE938E88BEFF
:10708000C07D82BECCCF78BE7F9A6CBE135C60BEE2
:10709000011554BEC2C547BECF6E3BBEA2102FBE67
:1070A000B5AB22BE834016BE87CF09BE73B2FABD10
:1070B0002FBCE1BD36BDC8BD80B6AFBD04A996BD2D
:1070C000752B7BBD2EFB48BD2BC316BDB10AC9BCB9
:1070D000920E49BC0000008010B51148114A0168A9
:1070E00041F47001016010680F4940F00100106028
:1070F00053680E480B4053601468044014601168D4
:1071000021F4802111604FF41F01506820F4FE002B
:10711000506091604FF00060054A106010BD0000A3
:1071200088ED00E0001002400000FFF8FFFFF6FECF
:1071300008ED00E000000000000000000102030470
:1071400006070809FEE7FEE7FEE7FEE7FEE77047F1
:107150007047704700F01EB80748FDF73BBA074874
:10716000FBF7CDBD0648FBF7CABD0648FBF7C7BD18
:107170000548FEF75BBE000084060020480500209D
:1071800088050020C8050020080600204FF4806014
:10719000FEF752B90248416802788A184260704787
:1071A0000403002000000000000000000000244054
:1071B0000000000000005940000000000088C340AB
:1071C0000000000084D797410080E03779C3414335
:1071D000176E05B5B5B89346F5F93FE9034F384D3D
:1071E000321D30F94877825A3CBF737FDD4F1575E9
:1071F00030B4002512E050F8042BD30744BF4A44B2
:10720000521E091F042942F8045BFAD213468C0768
:1072100044BF15809B1CC90748BF1D7050F8041B54
:107220000029E8D130BC704710B5074979441831BE
:10723000064C7C44163404E00A68081D1144884753
:107240000146A142F8D110BD2C000000480000000A
:107250004EF68851CEF20001086840F470000860D4
:10726000BFF34F8FBFF36F8F4FF00170E1EE100A45
:10727000704700007DFFFFFFD8030000940300204B
:1072800000000000779DFFFF64010000FC0000008B
:107290000000002000F00DF8002801D0FFF7C4FF27
:1072A000AFF300800020AFF30080FDF7B9FE00F0DF
:1072B00002F80120704700F001B800000746384688
:1072C000FAF7CCFCFBE700000548014603B468462A
:1072D00080F30988AFF30080FFF7BAFFFFF7DAFF0A
:1072E000A5EDF5FE38B504460D462846FDF7F2FE3D
:1072F000A84218BF0024204632BD00000148804744
:1073000001480047D9700008C97200080000000059
:1073100001020304FFF7FEBFFFF7FEBFFFF7FEBF4A
:10732000FFF7FEBFFFF7FEBFFFF7FEBFFFF7FEBF91
:10733000FFF7FEBFFFF7FEBFFFF7FEBFFFF7FEBF81
:10734000FFF7FEBFFFF7FEBFFFF7FEBFFFF7FEBF71
:10735000FFF7FEBFFFF7FEBFFFF7FEBFFFF7FEBF61
:10736000FFF7FEBFFFF7FEBFFFF7FEBFFFF7FEBF51
:10737000FFF7FEBFFFF7FEBFFFF7FEBFFFF7FEBF41
:10738000FFF7FEBFFFF7FEBFFFF7FEBFFFF7FEBF31
:10739000FFF7FEBFFFF7FEBFFFF7FEBFFFF7FEBF21
:1073A000FFF7FEBFFFF7FEBFFFF7FEBFFFF7FEBF11
:1073B000FFF7FEBFFFF7FEBFFFF7FEBFFFF7FEBF01
:1073C000FFF7FEBFFFF7FEBFFFF7FEBFFFF7FEBFF1
:1073D000FFF7FEBFFFF7FEBFFFF7FEBFFFF7FEBFE1
:1073E000FFF7FEBFFFF7FEBFFFF7FEBFF2FF000192
:1073F000F1E201F802656F12833A08F321803F78C9
:1074000043C0BF341004C8C2000060C008900342EB
:10741000CDCCCC3D14224014400A000020418FC244
:10742000753C0000E0C01CF00106E040016D6118F1
:10743000221008F0050724F400061200080452FF89
:1074400001E38E101420040000061100084C2002F5
:10745000140300204B2002131B000808520D0812D1
:0A746000290852110CF103016188A4
:04000005080072C9B4
:00000001FF
