:020000040800F2
:1000000010060020C94D00086D4C00086F4C000818
:10001000714C0008734C0008754C0008000000008B
:10002000000000000000000000000000774C000805
:10003000794C0008000000007B4C00087D4C000853
:10004000E14D0008E54D0008E94D0008ED4D0008C0
:10005000F14D0008F54D0008F94D0008FD4D000870
:10006000014E0008054E0008094E00080D4E00081C
:10007000114E0008154E0008194E00081D4E0008CC
:10008000214E0008254E0008814C0008294E00082A
:100090002D4E0008314E0008354E0008394E00083C
:1000A0003D4E0008414E0008454E0008494E0008EC
:1000B000874C00088D4C00084D4E0008514E00083A
:1000C000554E0008594E00085D4E0008614E00086C
:1000D000654E0008694E0008934C00086D4E0008FC
:1000E000714E0008754E0008794E00087D4E0008DC
:1000F000814E0008854E0008894E00088D4E00088C
:10010000914E0008954E0008994E00089D4E00083B
:10011000A14E0008A54E0008A94E0008AD4E0008EB
:10012000B14E0008B54E0008B94E0008BD4E00089B
:1001300040F0200070472DE9F14FB0B09246049195
:100140000DF142013A9A2B9199464A7000200AE03B
:100150001AF8011B0498309A90470028049000F088
:1001600041860D98401C0D909AF8000050B125284A
:10017000EED1002100220791089209910A920B9179
:100180000C9204E00D9800F02FBE41F001011AF826
:10019000010F2028F9D023280CD02B2804D02D289B
:1001A00005D0302809D00BE041F00201EFE741F023
:1001B0000401ECE741F00801E9E741F01001E6E74E
:1001C0002A280FD1D9F8002052F8040BC9F80020D2
:1001D00000280F9003D540420F9041F004010AF12E
:1001E000010A14E00F92DFF8083C0AE00F989842E9
:1001F00005DA00EB800402EB4402303A0F920AF178
:10020000010A9AF80020A2F130000A28EED39AF8E9
:1002100000002E2803D04FF0FF320E9229E01AF88A
:10022000010F2A2809D1D9F8000050F8042BC9F889
:1002300000000E920AF1010A1BE02D280CBF0AF102
:10024000010A002000220E92DFF8A44B0BE040B917
:100250000E9AA24205DA02EB820503EB4503303B1E
:100260000E930AF1010A9AF80030A3F130020A2A2B
:10027000EDD3ADF840100FF67C309AF8001000F086
:10028000D1FE08B11AF8010B8DF842009DF842002A
:10029000682805D19AF8000068280CD1622106E090
:1002A0006C2804BF9AF800006C2804D171218DF8E5
:1002B00042100AF1010A12A806901AF801BBBBF11C
:1002C00025012CD01C3900F09481091F022940F22D
:1002D0009081133900F0B884093900F08A81891EB1
:1002E00000F04D85491E00F0FA84491E022940F2B3
:1002F0008081091F00F0F384491F00F0EF80491E40
:1003000000F0A284491E00F0D780C91E0CD0891EBF
:1003100000F09A84C91E00F0978400F03BBD0123D1
:100320000793252100F033BDD9F8000050F8044BA5
:10033000C9F80000002C059440F0AB802B99487858
:10034000002800F0A1804FF0FF340FF6B02000F03D
:1003500075FE241A40F0468500F028BD01236A4648
:1003600002A9304600F00EFE002840F03B85641ED6
:10037000F4D13096079C12AF74B1309E17F8011B70
:100380000498B0470028049000F02C850D98401C7C
:10039000641E0D90F2D130960A9C3021002C8DF80D
:1003A00000100CDD309E01236A4602A9304600F0A1
:1003B000E9FD002840F01685641EF4D13096059FB3
:1003C000089C74B1309E17F8011B0498B0470028B0
:1003D000049000F007850D98401C641E0D90F2D12A
:1003E00030960B9C3021002C8DF800100CDD309ED7
:1003F00001236A4602A9304600F0C4FD002840F0FF
:10040000F184641EF4D1309605980899099C471828
:1004100074B1309E17F8011B0498B047002804906F
:1004200000F0E0840D98401C641E0D90F2D13096CF
:100430000C9C3021002C8DF800100CDD309E012327
:100440006A4602A9304600F09DFD002840F0CA84AB
:10045000641EF4D130969DF8400041077FF584AECC
:100460002020002D8DF800007FF77EAE309C012308
:100470006A4602A9204600F085FD002840F0B284BB
:100480006D1EF4D130946FE60FF65830059000F0F1
:100490008DBC0E9D002D04D5204600F0EFFD0446D6
:1004A00007E02A46204600F005FE002814BF041B82
:1004B0002C46089400F07ABCD9F8001051F8040BCF
:1004C000C9F8001020F00004002121F0FF35CDE92B
:1004D000024512AB0593782100F04DBC2B9948786A
:1004E00020B14FF0FF340FF6CC2030E79DF84200EA
:1004F000622860D0682817D06A283FD06C2806D0C0
:10050000712847D074282CD07A281DD062E0D9F801
:10051000001051F8040BC9F80010002866D14FF004
:10052000FF340FF6A82012E7D9F8001051F8040B99
:10053000C9F8001020B94FF0FF340FF6902006E7FD
:100540000D99018000F032BCD9F8001051F8040B6D
:10055000C9F80010002849D14FF0FF340FF66C2085
:10056000F5E6D9F8001051F8040BC9F8001000287E
:100570003CD14FF0FF340FF65420E8E6D9F80010D4
:1005800051F8040BC9F8001080B94FF0FF340FF692
:100590003C20DCE6D9F8001051F8040BC9F8001033
:1005A00020B94FF0FF340FF62420D0E60D9AD31770
:1005B000C0E90023FAE3D9F8001051F8040BC9F898
:1005C000001020B94FF0FF340FF60020BFE60D9960
:1005D0000170EBE3D9F8001051F8040BC9F80010D2
:1005E00020B94FF0FF340FF6E410B0E60D9901602A
:1005F000DCE39DF842004C2807BFD9F80010CA1D63
:10060000D9F80000C21D22F00702C9F80020D2E983
:1006100000010832C9F80020CDE90201C80F02D05C
:1006200007982D210AE0BDF84000810702D5079800
:100630002B2103E0C00705D50798202112AA1154E9
:10064000401C079012A807994BF0200300EB010C07
:10065000DDE90201CDE92C01612BCDF814C021ACFC
:100660000BD00E98002848BF062105D404BF4BF0DC
:100670002000672801D101210E91DDE902014F0020
:1006800047EAD0777E15FF174FF0FF32974208BF39
:10069000964210D1090341EA10510003002908BF16
:1006A000002808D0ABF1610503211A2D089118D359
:1006B0000FF6381110E0DDE902014A00521512F17F
:1006C000010F11D108030FD1ABF1610503211A2DE0
:1006D00008911FD30FF61C110322604600F016FD8F
:1006E00064E30FF60411F7E7DDE902016A4600F062
:1006F00061FDCDE902014BF02000612811D1059880
:1007000030210170821C0592BBF1610F0CBF782172
:10071000582102E00FF6D801DEE741700798801CEF
:100720000790DDE9020120F0000231F0004308BF2C
:10073000002A02D10026002542E14BF02008B8F142
:10074000610F40F092800E98002847BF212101914F
:10075000401C0190019FDDE92C017F1C0022002339
:10076000DDE9024500F05EFD38BF85F000450099E7
:100770008DF88420091F002F00910DF1850632DDD0
:10078000204629460022002300F066FD2BD21C22C1
:1007900000F07CFD04460D4600F016FEFF1F002F02
:1007A000804609DD00F02CFE02460B462046294615
:1007B00000F0EEFE04460D46F01D0721B8F1000FD3
:1007C0000CDD491E5EBF08F00F0200F8012D4FEA54
:1007D0002818F3D502E0002200F8012D491EFAD5B1
:1007E000C61D002FCCDC0DF18500361A01980DF1E5
:1007F00085048642D8BF304600282FD4B04206DA9E
:100800000DF185010A5C082AA8BF0F2100DA00213A
:10081000024621AB134400E0401E13F80159521E5A
:100820008D42F9D00F2904D10DF185018B5C5B1C41
:100830008B54002A04D50099091D21AC401C00915D
:10084000411E0BD4621813783033DDB23A2DA4BFA9
:100850005B443A3B491E02F80139F4D50E99002950
:1008600040F1AC80421E0E92A8E00099DFF8042708
:1008700047F29750414391FBF2F20092DDE92C459B
:10088000C2F10702002A25F0004504DD2046294672
:1008900000F04CFB0BE052420020DFF8DC1600F0C9
:1008A00045FB02460B462046294600F0E3FE04467F
:1008B0000D46B8F1660F06BF009F0A3706270E984F
:1008C0003F18142FC8BF142730208DF884000DF175
:1008D0008506002F34DD2046294600F0EFFF014653
:1008E0000A4606F1080304200A26B2FBF6F606EBD8
:1008F000860EA2EB4E02303203F8012C0A22B6FB20
:10090000F2F202EB820EA6EB4E063036401E03F8E2
:10091000026DE9D1083F002F03F10806D9DD084632
:1009200000F0DEFF02460B462046294600F030FE6E
:100930000022DFF8483600F0E1FF04460D46CAE722
:100940000DF18500361A0DF1850404E00098401E73
:10095000761E0090641C20783028F7D0B8F1660F1E
:1009600002D10098401C04E0B8F1650F0CBF0120D3
:1009700000200E9940188642B8BF701E00281DD472
:10098000B04204DA215C3429C8BF392100DC3021AF
:100990000246631E9D1800E0401E15F80169521EB4
:1009A0008E42F9D0392902D1A15C491CA154002AF8
:1009B00004D50099491C1C46401C00910646009D28
:1009C00001F072F8406A0778DDF8388030B200280C
:1009D00002DC01260FF220644BF02000662808BFDD
:1009E0006D1C16D0672845D128B210F1040F47DBE3
:1009F000404545DA9DF840006D1C010703D430B234
:100A00004045D8BF804628B2B8EB000848BF4FF039
:100A100000080FFA85FBBBF1000F00F3B4800898C3
:100A2000411C0891302205990A54B8F1000F03DCEB
:100A30009DF84000010704D50898411C08910599CC
:100A40000F5418EB0B0FB8BFC8F100052DB2684268
:100A5000454432B20B909542B8BF2E46059B08988C
:100A600036B2099632462146184400F04FFBAD1BC2
:100A70000C95D2E0BBF1610F17D14FF0700B19E06C
:100A800030B2404504DA9DF840100A0758BF80464E
:100A9000B8F1010848BF4FF00008BBF1670F14BF61
:100AA0004FF0450B4FF0650B04E0BBF1410F08BF61
:100AB0004FF0500B0898411C0891B8F1000F0599B0
:100AC00014F8012B0A5403DC9DF8400001071AD5E5
:100AD0000898411C0891B8F1000F05990F5412DDD8
:100AE000761E30B28045B8BF46460598089B32B2A4
:100AF0002146184400F00AFB089936B27118089193
:100B0000A8EB06000B9005980899084429B2002923
:100B100080F800B003D42B224270821C04E02D2206
:100B200042700D46821C6D4200212CAB28460AE023
:100B300004460A2094FBF0F000EB8005A4EB45048A
:100B400003F8014B491C00B20028F1DC012906DC46
:100B50004BF02000652804BF302002F8010B00296B
:100B60002CAB08D1302002F8010B06E0491E585C7E
:100B7000303002F8010B0029F8DC05990898084488
:100B8000121A099249E030B229B288421CDA05985B
:100B9000089B32B22146184400F0B8FA089936B2E0
:100BA00071180891ABEB0600B8F1000F0B9003DC55
:100BB0009DF84000020704D5059847540999491C3F
:100BC0000991CDF8308028E00598089B2AB221468B
:100BD000184400F09BFA0898761B5844B8F1000FAF
:100BE000089003DC9DF840100A0703D5411C0891CA
:100BF00005990F5430B28045B8BF46460598089B0A
:100C000032B204EB0B01184400F080FA089836B2B7
:100C100030180890A8EB06000B909DF8400000F0FB
:100C20001400102840F0C280079A08980B99821887
:100C300009988A1882180C980F998018884280F2B7
:100C4000B580081A0A90B1E09DF84200622808D0E9
:100C500068280ED06A2814D06C281FD0712810D0B4
:100C60001CE0D9F8001051F8040BC9F80010C0B20C
:100C70001AE0D9F8001051F8040BC9F8001080B23E
:100C800012E0D9F80000C21D22F00702C9F80020C6
:100C9000D2E900010832C9F8002006E0D9F80010B6
:100CA00051F8040BC9F800100021CDE902019DF8AC
:100CB000400001075AD5DDE90223002B08BF002AB6
:100CC00054D04BF02000782850D1079812A9302238
:100CD0000A54401C431C079301F800B046E09DF8FD
:100CE0004200622808D068280ED06A2814D06C28E8
:100CF0001FD0712810D01CE0D9F8001051F8040B57
:100D0000C9F8001040B21AE0D9F8001051F8040BED
:100D1000C9F8001000B212E0D9F80000C21D22F09C
:100D20000702C9F80020D2E900010832C9F8002002
:100D300006E0D9F8001051F8040BC9F80010C117EB
:100D4000CDE90201002902D507982D210AE0BDF85E
:100D50004000810702D507982B2103E0C00705D585
:100D60000798202112AA1154401C079012A8079935
:100D700001440591594602A800F04EF816E0012002
:100D80000790D9F8000050F8041BC9F800008DF84E
:100D900048100BE001212522BBF1000F07918DF8CF
:100DA000482003D0022207928DF849B00F9D079981
:100DB0000A986D1A08992D1A0B986D1A09992D1A0F
:100DC0000C986D1A9DF840102D1A48073FF5D2AACD
:100DD0002021002D8DF800107FF7CCAA309E2C46E4
:100DE000FFF7BCBA4FF0FF3031B0BDE8F08F000024
:100DF000CBCCCC0C686A6C747A4C00007072696E53
:100E000074665F733A2062616420257320617267A3
:100E1000756D656E740000002DE9FC4707468A4633
:100E20003C6950466F2808BF082505D0FFF780F9B8
:100E3000782814BF0A251025D7E900013C268046F2
:100E40008946BAF1640F18BFBAF1690F05D10029BC
:100E500003D5D8F1000869EB4909B9F1000F08BFC3
:100E6000B8F1000F0CD1386B50B9082D3AD197F872
:100E70003800010736D530223B2684F83B2031E08C
:100E80008DF800A0404649462A46EB1700F010FEB8
:100E90003032D0B2761E3A2801960EDAA25540467C
:100EA00049462A46EB1700F003FE80465FEA010937
:100EB00008BFB8F1000F05D108E09DF80000121836
:100EC000513AEBE7F868A1198842DBD3082D09D124
:100ED00097F83800010705D5A05D302802D0761EAE
:100EE0003020A055C6F13C03BB61A119F960386BF5
:100EF000834208DAC31A3B624FF6EF70398F014024
:100F00003987BDE8F38700280ED597F8380000F040
:100F10001400102808D17A6B7969386A521A121AAB
:100F2000D21A002AC8BF3A62BDE8F3872DE9D04340
:100F300006460F4614464FF00008DFF8449012E0D2
:100F4000E00707D542464B463046394600F0D6FC0E
:100F500006460F464046494642464B4600F0CEFC08
:100F6000641080468946002CEAD130463946BDE8F7
:100F7000D0830000A08601000000F03F84D7974195
:100F800000002440F8B505460E4617461C460020D2
:100F90005CB117F8011BB068A847B06030B1F06AC7
:100FA000401CF0620020641EF3D1F2BD4FF0FF3010
:100FB000F2BD00007072696E74665F733A20256E30
:100FC00020646973616C6C6F776564007072696E20
:100FD00074663A2062616420256E20617267756DC7
:100FE000656E7400000000006E616E004E414E00A0
:100FF000696E6600494E460030000EE002684368A4
:10100000024408305FEAC37C44BF4B445B1E52F885
:1010100004CB43F804CB091FF9D150F8041B002975
:10102000ECD17047C9B202788A421AB11CBF10F8DD
:10103000012FF9E718BF002070472E0080B500B9D6
:1010400006A005490B681BB122220021984701E048
:1010500000F046FE222002BD0C020020636F6E737A
:10106000747261696E742068616E646C65723A2096
:10107000626164206D6573736167650000F101034F
:10108000810704D010F8011B820781B1FAD10268F0
:10109000A2F10131914311F0803104BF50F8042FC7
:1010A000F6E709BAB1FA81F100EBD100401CC01A91
:1010B00070470000C9B2830706D0521E22D310F831
:1010C000013B9942F7D11FE0083A13D302F1040221
:1010D00041EA012141EA014150F8043B121F21BFBE
:1010E0004B40A3F1013C2CEA030C1CF0803FF3D0F1
:1010F000C9B2001F083210F8013B521E28BF91EA06
:10110000030FF8D818BF0120401E704762B38B0749
:1011100008D0521E11F8013B00F8013B00F024807A
:101120008B07F6D1830740F0208000BF103A07D329
:1011300030B4B1E83810103AA0E83810F9D230BC19
:10114000530724BFB1E80810A0E8081044BF51F8C5
:10115000043B40F8043BD20724BF31F8022B20F8AF
:10116000022B44BF0B7803707047121F17D35B002C
:1011700009D151F8043B20F8023B1B0C121F20F848
:10118000023BF6D20BE051F8043B00F8013B1B0A8E
:1011900020F8023B1B0C121F00F8013BF3D238BFB2
:1011A000121D521E24BF11F8013B00F8013BF8D874
:1011B0007047000010B5144600F002F8226010BD20
:1011C000C1F30A5343B14A0012F5001F28D2A3F21B
:1011D000FE32A1EB0251704750EA410C20D001F0E1
:1011E000004C31EA0C01B1FA81F204BFB0FA80F38D
:1011F000D2180B3AB2F120032CBF00FA03F1914050
:1012000041EA0C013EBFC2F1200C20FA0CF3194355
:101210009040524240F2FD33D21A01EB0351704725
:101220000022704741EA030C50EA4C0C52EA0C0CC5
:101230004FF4001C09D307D01CEB410F9CBF1CEBE3
:10124000430F8B4208BF824270471CEB430FFBD811
:10125000994208BF9042704741EA030C50EA4C0C97
:1012600052EA0C0C4FF4001C09D307D01CEB410FC1
:101270009CBF1CEB430F994208BF904270471CEB88
:10128000410FFBD88B4208BF82427047124254D4B0
:1012900040F2FF7C1CEA11530FD0634531D09B18FC
:1012A00063453CBF01EB0251704701F0004141EA48
:1012B0000C510020AFF30080704750EA410320D06A
:1012C00001F0004C91EA0C011CD0B1FA81F30B3B08
:1012D0009A420DD9D21A994051EA0C01C3F1200C5F
:1012E00020FA0CFC61449840531C40F2FF7CD7E785
:1012F000914041EA0C01C2F1200C20FA0CF3194391
:1013000090407047B0FA80F31533202BE0D3202AA9
:10131000EED3203A203B9A4209D9D21A00FA03F1BF
:1013200041EA0C010020531C40F2FF7CB8E700FAB0
:1013300002F141EA0C0100207047524240F2FF7C6A
:101340001CEA11530DD06345DBD0B2EB030C3CBF5C
:10135000A1EB025170470CF1010221EA035141F463
:10136000801150EA410CCCD001F0004C352A27DC2A
:1013700030B481EA0C01B2F1200309DAC2F1200392
:10138000044601FA03F5D0402843D1409C400CE0CC
:10139000C3F12002450020FA03F418BF44F0010411
:1013A00021FA03F091400C43002174F1004550F103
:1013B000000051EB0C01244230BC7FF47BAF70473E
:1013C0006146002076E70000C1F30A5340F21E4256
:1013D000D31A0CDDCA0283F3070342EA505242F0EB
:1013E0000042DA4002EBE17282EAE17070476FEA94
:1013F000E17203F2E13008B182F000407047000072
:1014000010F0004160B148BF4042B0FA80F2904015
:10141000D21CC2F5846241EA025202EBD02140059F
:1014200070470000841A71EB030604D26E40001B63
:10143000B141121973414FF4001C1CEB410F34BF32
:101440007CEB430683E00C0DA4EB1356362E00F321
:101450007C80012E45EAC32341DC43EA525312BF8C
:10146000D20292025B08240545EAC12141EA5051AB
:10147000D2EBC020994125D407D1B0FA80F610FAFA
:1014800006F162D00020203608E0B1FA81F6B140C2
:10149000C6F1200220FA02F21143B0404FEAF47480
:1014A000B4EB465434F001064FEA74040AD8D6F57A
:1014B0000016760D04F00044F04061FA06F2504048
:1014C000F1404840C00A40EA415021F0004128BFA5
:1014D0005FEA500550F1000044EBD12135E0DB0A12
:1014E00045EAC121C90AB6F120050EDD42EA0242F1
:1014F000120CC5F1200603FA06F6EB4042EA060597
:101500006D42984161F100010DE062FA06F5F2408A
:10151000554063FA06FC82EA0C02F3405A406D42E1
:10152000904161EB030111F4801F05D1641E620537
:1015300002D06D004041494121F48011430875F10A
:10154000004350F1000041EB045170BC70471CEBAC
:10155000410F15D223F0004352EA43060BD04FEA65
:101560004C0CBCEB410F04D80C0D661E342EB7DDBD
:10157000EBE7801A994150EA410608BF0021E4E7F1
:1015800008BF1CEB430F28BF6FF00001DDE7000030
:1015900070B491EA030F4FF000457FF543AF6B4005
:1015A000841A71EB030603D2001BB1411219734177
:1015B0004FF4001C1CEB410F34BF7CEB430442E0B2
:1015C0000C0DA4EB1356352E4FDC45EAC323DB0A82
:1015D00045EAC121C912B6F120050DDD63FA05F611
:1015E000EB4086EA0305124218BF45F00105C0181A
:1015F00051F100010CD213E062FA06F5F2405540B9
:10160000F3415A40B340F3405A408018594107D340
:1016100049085FEA30005FEA350528BF45F001055B
:1016200001F58011420875F1004250F1000041EBD4
:1016300004514E0016F5001F70BC38BF70470020E3
:10164000090D090570471CEB410F10D252EA430601
:101650000BD0BCEB410F05D80C0DAB43661E342EEE
:10166000B6DD02E0AB438018594170BC704770BCD6
:1016700070470000F0B540F2FF7581EA030C0CF0F2
:10168000004C15EA11541DBF15EA1357AC42AF4286
:10169000E5E0BC41C1F31301C3F31303801A994180
:1016A00043F4801304D2641E001849418018594144
:1016B000C90241EA5051B1FBF3F603FB1611A2FB3C
:1016C0000675D7EBC020A94102D2761E8018594179
:1016D000C90241EA5051B1FBF3FE03FB1E11A2FB0C
:1016E0000E75D7EBC020A94103D2AEF1010E8018D0
:1016F0005941890241EA9051760546EA8E2EB1FBA6
:10170000F3F603FB1611A2FB0675D7EB8020A94167
:1017100002D2761E80185941C90241EA50514EEA60
:10172000060EB1FBF3F603FB1611A2FB0675D7EB11
:10173000C020A94102D2761E80185941C90241EA4F
:101740005051B1FBF3F703FB1711A2FB0735D3EBA5
:10175000C020A94167F100070CBF004247F0010714
:1017600066F3D5274FEA1E31B80814F5806412DD00
:10177000BD0775F1004250EB0E5051EB045111F5CD
:10178000801F5CBF41EA0C01F0BD4CF07F6141F06D
:10179000E0410020F0BDBD076D0840EA0E5041F465
:1017A0008011D4F10104B4F120060ADAC4F1200654
:1017B0000200E04001FA06F3E1401843B24015434D
:1017C0000EE0342C13DCC6F1200445EA40056D0818
:1017D00020FA06F2154321FA06F0A1400D4300213C
:1017E00075F1004250F1000051EB0C01F0BD0020FA
:1017F0005FEA0C01F0BDCFB992185B41B3FA83F7F1
:1018000004BFB2FA82F6BF190B3FB7F120062FBF13
:1018100002FA06F3BB40C7F1200622FA06F638BFEB
:101820003343BA401CB1E419641E33E77F4231F000
:101830000041B1FA81F404BFB0FA80F6A4190B3C60
:10184000B4F120062FBF00FA06F1A140C4F1200632
:1018500020FA06F638BF3143A0403C1B1AE7AC42E1
:101860001ABF05EA1357AF4212E050EA41061CBF07
:1018700052EA4306BFE750EA4107304661461CBFC3
:1018800041EA0551F0BD52EA430C08BFC143F0BD27
:1018900000204FF4001616EB410F98BF16EB430FD4
:1018A00008BF16EB410F24BFC14305E016EB430F01
:1018B0000CBF61464CEA0551F0BD0000400D40F2FE
:1018C0001E4C40EAC120BCEB115C40F0004003D448
:1018D0008CF30701C84070476FEAE1707047000061
:1018E00050B1B0FA80F18840C91CC1F58461090586
:1018F00001EBD021400570470146704730B540F2FA
:10190000FF7C1CEA11541DBF1CEA13556445654554
:101910003FE0641981EA030C6FF35F530CF0004C55
:1019200043F48013C90241F0004141EA505EC50210
:101930001100A5FB020200284FF00000EEFB012081
:101940004FF00001E3FB052118BF42F001024018EF
:1019500000214941E3FB0E01A4F580640D0302D28E
:1019600092184041494154F1010470DD450872F17B
:10197000004250F1000051EB0451A1F5801102D456
:1019800041EA0C0130BD40F2FF7E4CEA0E510020CE
:1019900030BD0CEA1355644518BF654581EA030C58
:1019A0000CF0004C41D050EA410E1CBF52EA430EED
:1019B00002E06146002030BD24422C441BD15FEA86
:1019C000050EF6D0090302BF01460020AEF1140E49
:1019D000B1FA81F5AEEB050401FA05FE0C35C5F14F
:1019E000200100FA05F5C8404EEA000E6FF35F5380
:1019F00043F480139CE733F00043B3FA83F504BF4C
:101A0000B2FA82FE75440B3D641BB5F1200E2FBF68
:101A100002FA0EF3AB40C5F1200E22FA0EFE38BFDB
:101A200043EA0E03AA40641C7CE750EA410E14BF4F
:101A300052EA430E6FF000014FF4001515EB430F0F
:101A40008EBF194615EB410F9DE7B4D830BDD4F1D8
:101A50000104B4F120050FDAC4F12005520828BFB3
:101A600042F0010210FA05FE01FA05F57244E2BFE8
:101A7000E0402843E1400FE0352C9ADCC5F120041A
:101A800052EA400220FA05F218BF42F0010231FA90
:101A900005F0A1400A43002172F1004250F100001C
:101AA00051EB0C0130BD00000048704710000020D1
:101AB000BBBBE1B1B2F5803F80F07E80022A1ED927
:101AC0008C46B1FBF2F102FB11C31B0443EA104345
:101AD000B3FBF2FC02FB1C3380B240EA0343B3FBCE
:101AE000F2F002FB103240EA0C4000237047022A59
:101AF00005D98446B0FBF2F002FB10C270474AB130
:101B000005D100F0010249085FEA30007047002269
:101B10000023704700F0E8B80B000200002100200D
:101B20007047904271EB030CF6D3B3F5803F2FD290
:101B3000F0B5B3FA83F7B1FA81F4A7F10F0E3D1BAC
:101B40005340CEF1200602FA0EF2F3415340B5F1B4
:101B50000F0746D80F3C2C444140C4F12006A0405A
:101B6000F1414140B1FBF3F603FB1611A2FB064520
:101B7000001BA94102D2761E8018594180EA010259
:101B800021FA0EF362FA0EF200215A403046F0BDFF
:101B900030B4B1FBF3FC03FB1C11A2FB0C45001B92
:101BA000A94103D2ACF1010C8018594130BC024666
:101BB0000B46604600217047B2F1807F65D3F0B5D7
:101BC000B2FA82F7B1FA81F4C7F10F063D1B22FA8F
:101BD00006F307F1110EF24120355A40B5F10F0717
:101BE000B8D94140C4F12006A040F1414140B1FBC9
:101BF000F3FC03FB1C11A2FB0C45001BA94103D203
:101C0000BCF1010C801859410F2F12D30F3FC903AB
:101C100041EA5041B1FBF3F603FB1611A2FB064566
:101C2000D4EBC030A94102D2761E8018594146EA51
:101C3000CC3C07B34140C7F12006B840F1414140D8
:101C4000B1FBF3F603FB1611A2FB0645001BA941ED
:101C500002D2761E8018594180EA010221FA0EF361
:101C6000C7F1200462FA0EF20CFA07F05A402CFA7F
:101C700004F13043F0BD80EA010221FA0EF30021A5
:101C800062FA0EF260465A40F0BD8C46B1FBF2F1AA
:101C900002FB11C31B0243EA1063B3FBF2FC02FB1D
:101CA0001C331B024CEA002043EA1063B3FBF2FC36
:101CB00002FB1C331B024CEA002043EA1063B3FB17
:101CC000F2FC02FB1C331B024CEA002043EA1063C7
:101CD000B3FBF2FC02FB1C324CEA002000237047ED
:101CE000012000F003B800007047000080B5AFF39A
:101CF0000080024A11001820ABBEFBE7260002005C
:101D000038B5040001D1012032BD00F055F818B9F2
:101D100000F04EF800F0EEFB0FE00068C16841F003
:101D20000101C160816801F00701062903D0016843
:101D300041F0010101600020704702206870211D00
:101D4000206800F046FA01206870002032BD03D1FF
:101D5000416C41F400414164816801F007010629AA
:101D600003D0016841F001010160002010BD38B5C9
:101D7000040001D1012032BD00F01EF818B900F0B6
:101D800017F800F0A9FCD8E710B500F007F800F04C
:101D90000AF81CBFDFF8C4209042D8E704460122AD
:101DA000206800F03EBB2068DFF8B410884270471E
:101DB000002129702046704704F13C05687870477F
:101DC00020680122042100F02CBBF8B504000E4667
:101DD00001D10120F2BDFFF7EFFF18B9FFF7E8FFCF
:101DE00000F0AFFB022068702168DFF8B0038A685A
:101DF00002408A60211D206800F0EBF92268DFF8BC
:101E0000A0139368D2F818C0176AB06801EA0C01F1
:101E10000843B16940EA0120DFF888130140F06807
:101E20000843F16940EA0121306941EA0010316A52
:101E300040EA013C7068716927F022070743306867
:101E4000034347EA011793602168C1F818C00121D4
:101E50002068076269700020F2BD00000034014074
:101E6000002C014010B5044611B1042909D00EE040
:101E70002068012200F0D5FA2068C16841F0020113
:101E80000EE02068012200F0CCFA206805E000F0A6
:101E900013F8FFF795FF00F009F8C16841F004015D
:101EA000C160206800F010F8002010BD2068C168F3
:101EB00041F00201C160704720680122002100F05A
:101EC000B0BAC16001223068016841F001010160CF
:101ED000704710B50446206801698A0715D5C168A6
:101EE0008A0712D56FF00201016101222277806911
:101EF00010F0030F204602D000F0EFFB03E000F0EB
:101F0000EDFB00F087F800202077206801694A0780
:101F100015D5C1684A0712D56FF00401016102228C
:101F20002277806910F4407F204602D000F0D5FB74
:101F300003E000F0D3FB00F06DF80020207720686C
:101F400001690A0715D5C1680A0712D56FF00801A3
:101F5000016104222277C06910F0030F204602D0ED
:101F600000F0BBFB03E000F0B9FB00F053F80020E9
:101F7000207720680169CA0615D5C168CA0612D53E
:101F80006FF01001016108222277C06910F4407FD0
:101F9000204602D000F0A1FB03E000F09FFB00F020
:101FA00039F80020207720680169CA0708D5C16880
:101FB000CA0705D56FF001010161204600F090FBD2
:101FC000206801690A0608D5C1680A0605D56FF0C0
:101FD00080010161204600F005FF206801694A0682
:101FE00008D5C1684A0605D56FF040010161204659
:101FF00000F0F9FE206801698A060AD5C1688A06E0
:1020000007D56FF0200101612046BDE8104000F0C7
:10201000EBBE10BD204600F0E8BE70B500F063F8DE
:1020200001D1022070BD00F06BF832B1042A17D044
:10203000082A28D00C2A39D04AE03068294600F016
:1020400002F93068816941F0080100F048F821F098
:102050000401816131688A69286902438A6137E035
:102060003068294600F01BF93068816941F400614D
:1020700000F035F821F4806100F031F82A6941EA76
:102080000221816124E03068294600F038F9306887
:10209000C16941F0080100F01EF821F00401C1619E
:1020A0003168CA6928690243CA6111E0306829466B
:1020B00000F054F93068C16941F4006100F00BF898
:1020C00021F4806100F007F82A6941EA0221C16128
:1020D00000F010F870BDC1613068C169704781615E
:1020E000306881697047064606F13C040D46207849
:1020F0000128704701206070002121700020704786
:102100000120207002216170704738B500F055F849
:1021100001D1022032BD0120207002226270DFF85E
:1021200084022A689368034093600868020018BF1D
:1021300010282DD0202818BF302829D0402823D09F
:10214000502816D0602818D0702803D0B0F5005F52
:1021500007D021E000F02CF82868816841F0770171
:1021600005E000F025F82868816841F4804181602D
:1021700012E000F019F850210BE0CA68496828689D
:1021800000F02BF9602104E000F00EF8402100E09F
:102190000146286800F033F915E00000F8BFFFFFA2
:1021A000FCFCFFFF0303FFFFCA684968286805E1DC
:1021B000CB684A688968286829E1054605F13C042E
:1021C00020780128704701206070002121700020D4
:1021D00032BDF0B50368744F744A754C754D764E38
:1021E000B84218BFB04208D0B0F1804F18BFA84223
:1021F00003D0A04218BF90420ED123F0700C4B6860
:1022000043EA0C03B84218BFB04207D0B0F1804F88
:102210001CBFA842A04201D0904203D123F44072D7
:10222000CB6813434A6923F0800313430360B84229
:102230008B68C3620A68826212BFB0420969016397
:1022400001224261F0BDF0B5026A574F5A4E520862
:1022500052000262026A436885690C6825F07305C2
:102260002C438D6822F002021543B84218BFB042D9
:1022700007D1CA6825F008051543B84225F00405C2
:1022800001D0B04205D14A6923F440731A438B69E7
:10229000134343608461496841630562F0BDF0B552
:1022A000026A414E22F010020262B042056A43689F
:1022B00084690A6824F4E64444EA02248A6825F022
:1022C000200545EA02153C4A18BF904208D1CF6864
:1022D00025F0800545EA0715B04225F0400501D0FC
:1022E000904206D14E698A6923F44063164343EA5B
:1022F000860343608461496881630562F0BDF0B57F
:10230000026A294E22F480720262056A4368C26939
:102310000C6822F0730214438A6825F4007545EABC
:102320000225254AB04218BF904208D1CF6825F453
:10233000006545EA0725B04225F4806501D090424A
:1023400006D14E698A6923F44053164343EA0613C3
:102350004360C4614968C1630562F0BD70B5026A3B
:10236000114E22F480520262B042046A4268C3698C
:102370000D6823F4E64343EA05238D6824F40054F2
:1023800044EA05341CBF0C4DA84204D14D6922F427
:10239000804242EA85124260C36149680164046276
:1023A00070BD00008800FFFF002C0140000C0040C1
:1023B00000080040000400400034014010B5036AEA
:1023C000046A64086400046223F00A03846924F048
:1023D000F00444EA021484612EE010B5036A23F08D
:1023E000100303628369046A23F4704343EA0233EF
:1023F00024F0A004836144EA0114046210BD8268E1
:1024000022F07002114341F007018160704710B55E
:10241000846824F47F442143114341EA032181600D
:1024200010BD10B501F01F01036A01248C40A343C5
:10243000036202FA01F1036A1943016210BD000050
:102440009D4881B0016841F001010160026802F01D
:10245000010200920099426842F080524260406856
:1024600000F08050009000989448016821F0E061ED
:1024700041F00071016001B0704718B585B00446A5
:102480001022002101A800F0B1FC21688C48814293
:102490002ED18948016841F400710160026802F49C
:1024A00000720092009900F08DF8009303230099C8
:1024B000026842F0080202608022006800F0080012
:1024C000009000990192029301A97E4800F098FCC7
:1024D000022101910322029201A97B4800F090FCA5
:1024E00000220021122000F0A1FD122000F0BBFD0F
:1024F00006B010BD80B50068744A6F49904209D19A
:10250000086840F400600860096801F40061009107
:10251000009801BD6E4A904212D1486840F0020016
:1025200048600022486800F00200009000210098F6
:102530001D2000F07BFDBDE802401D2000F093BD92
:1025400001BD18B585B000F072F82168B1F1804F77
:1025500036D15948416841F001014160416801F0BC
:1025600001010491049900F02DF804930499026884
:1025700042F0080202604FF40041006800F00800D9
:102580000490002204984F4800910192029200F0BA
:102590004BF800F07DF869464B4800F031FC4748A5
:1025A000016821F4407141F0E06141F48071016003
:1025B000002200211C2000F039FD1C2000F053FDFA
:1025C00006B010BD026842F004020260036803F026
:1025D0000403704718B585B000F029F821683B481E
:1025E00081421ED13448016841F00801016002684F
:1025F00002F00802049200F051F84FF4604100F03C
:1026000053F8314800910192039200F00DF84FF415
:10261000E06002210090019103916946294800F091
:10262000EFFB06B010BD2046694600F0E9BB04464A
:1026300010220021684600F0D9BB18B585B0FFF71D
:10264000F6FF21682348814220D11B481D4C416878
:1026500041F400314160416801F40031049100F01F
:102660001DF8042100F020F800910192032103914C
:10267000FFF7D9FF00F00CF8FFF7D5FF002200218B
:10268000262000F0D3FC262000F0EDFC06B010BDA3
:10269000082000210090019102917047049902687E
:1026A00042F0040202607047006800F004000490E9
:1026B00002220498704700001810024004000140F4
:1026C0000024014000080140000C0140002C0140A2
:1026D000000400400044004070477047704700000D
:1026E0003EB50068DFF8C016884223D1DFF8BC464B
:1026F000A06B401C0A2810D10A25606AA56300F06F
:10270000DDFCCDE90001E06900F0D8FC02460B4693
:102710000FF2BC6000F0F6FC0020A063DFED681A49
:10272000B0EE001AD4ED0D0AB2EE0E0A00F06EF90A
:1027300084ED0D0A37BDDFF87406007B022808BF60
:1027400000F08EB8032808BF00F002B87047000000
:1027500010B5DFF8584600F0DDF884ED0C0A00F003
:10276000F1F884EC030A04F12C0104F1280000F0D4
:1027700063F904F11C0104F1180094ED0C1A00F047
:1027800020F894ED0C0ADFED4F0A30EE201A04F128
:10279000240104F1200000F014F8DFF8140694ED91
:1027A0000C0A60610021216104F1100004F1400174
:1027B00000F08AF804F1480104F14000BDE810403F
:1027C00074E1D4ED0B0A94ED0A0A4BE138B5DFF859
:1027D000E44500212046FFF7D7FA04212046FFF701
:1027E000D3FA08212046FFF7CFFA0021204600F057
:1027F0009DFC0421204600F099FC0821204600F0B1
:1028000095FC2068DFF8B05500F0C6FA20460C2190
:10281000FFF7BAFA2168DFF8A44540F2CF700864E8
:10282000204600F00FFD3C212846FFF71BFB284601
:10283000FFF773FADFF88805FFF76FFA2068416841
:1028400041F08001416000F0BBF8DFF86015022024
:102850000873BDE832400FF2845000F053BC000012
:1028600038B5DFF84845E56B6D1C41F6417085428F
:1028700013D2002161619FED320ADFF84825226101
:1028800004F1400104F1100000F01EF804F14801C9
:1028900004F1400000F00AF910E0DFF82C150020E8
:1028A00008600022206162610025DFF808150868D1
:1028B000426300218163C26303202073E56331BD5D
:1028C0006F12833ADB0F49C038B52DED028B0446F9
:1028D0000D46B0EE408A00F00BFFF0EE408AB0EEFD
:1028E000480A00F007FFD4ED000A94ED011A60EEEB
:1028F000A80A41EE400AC5ED000AD4ED001AD4ED55
:10290000010A21EE800A00EEA80A85ED010ABDEC5D
:10291000028B31BDDFF8B00490ED001A9FED4D0A37
:10292000F0EE400AB8EE411A21EE000ADFED4A1A35
:10293000C0EE211AB1EE042A21EE820A00F0DCBEBC
:102940000000000038B5DFF874442DED068B01213E
:10295000204600F0D9FCDFF874546988401A00B2B0
:10296000FEF74EFD9FED3DAB53EC1A2BFEF7C6FF75
:1029700000F028FF09EE900A0221204600F0C4FC76
:102980002988401A00B2FEF73BFD53EC1A2BFEF7E4
:10299000B5FF00F017FF00EE100AB0EE408AB1EE6E
:1029A000400A30EE690AF0EE698AB0EE409AB0EE65
:1029B000480AF0EE680AB0EE491ABDEC068B31BD4C
:1029C0002DE9F041002600256424DFF8F073022190
:1029D000384600F099FC80460121384600F094FC0E
:1029E00015FA80F5012000F021FF641E16FA88F622
:1029F000EDD1DFF8D80364216422B6FBF1F1B5FB19
:102A0000F2F201804280BDE8F081000030EE602AE1
:102A100021EE211AB4EE421AF1EE10FA02D531EE8F
:102A2000200A7047F1EE411AB4EE612AF1EE10FA75
:102A300048BF30EEC10A704780ED000AB0EE001AC0
:102A400000EE810ADFEDD00A80EE200A81ED000A57
:102A500070470000DB0FC94000F07F4555DB4DF0AB
:102A60004DD3D13F38B52DED048BB0EE409AF0EE4A
:102A7000418AB0EE608A04460D46B0EE680A00F066
:102A800037FEF0EE409AB0EE680A00F033FE69EED1
:102A9000290A48EE000AC4ED000A68EE290A49EE48
:102AA000400AC5ED000ABDEC048B31BD4FF07E52EB
:102AB0004A62DFEDB60A90ED000AC0EE200AC1EDD1
:102AC000000A9FEDB20A90ED011A81EE000A81ED35
:102AD000010A9FEDAE1AD0ED000A80EE811A80ED5A
:102AE000001ADFEDAA0A90ED010A80EE204A80ED7F
:102AF000014A81ED034A9FEDA61A90ED000AD0ED40
:102B0000011AFEEE000A60EE014A41EEA04AC1ED54
:102B1000044A9FEDA01A90ED000AD0ED011A20EEB4
:102B2000010AB5EE404A01EEA00AF1EE10FACCBF60
:102B300001200020F5EE404AF1EE10FACCBF02224F
:102B40000022B5EE400AF1EE10FACCBF04230023B8
:102B500010181B185A1E052A91ED065AD1ED075A76
:102B600091ED086AD1ED116AD1ED0F0A91ED0B1AC2
:102B7000D1ED0D1A91ED0C2A91ED0E3AD1ED103AEE
:102B8000F6EE002A45D8DFE802F0236745A903875F
:102B9000B0EE403AF0EE443A33EE234AD1ED094A22
:102BA000F4EE444AF1EE10FA05D584EE844A24EEA0
:102BB000033A64EE233A34EEC34A34EE634A64EED9
:102BC000226A73EE232A32EEA65A73EEA65A1EE04C
:102BD000B1EE402AF1EE643A32EE234AD1ED094AD1
:102BE000F4EE444AF1EE10FA05D584EE844A24EE60
:102BF000022A64EE233A34EEC24A34EE634A64EEAB
:102C0000226A72EE232A33EEA65A72EEA65AB0EE6C
:102C1000666A84E0B0EE442AF0EE641A32EE214A8D
:102C2000D1ED094AF4EE444AF1EE10FA05D584EEEE
:102C3000844A24EE022A64EE211A34EEC24A34EEAB
:102C4000614A64EE226A72EE212AB0EE665A72EE92
:102C5000A65A31EEA66A62E0B1EE441AF1EE401ACD
:102C600031EE214AD1ED094AF4EE444AF1EE10FA70
:102C700005D584EE844A24EE011A64EE211A34EE5E
:102C8000C14A34EE614A64EE226AB0EE665A71EED1
:102C9000A65A71EE212A1EE0B0EE641AF0EE400A48
:102CA00031EE204AD1ED094AF4EE444AF1EE10FA31
:102CB00005D584EE844A24EE011A64EE200A34EE2F
:102CC000C14A34EE604A64EE226A30EEA65AF0EE53
:102CD000665A71EE202A32EEA66A20E0B1EE643A1E
:102CE000F1EE440A33EE204AD1ED094AF4EE444AAB
:102CF000F1EE10FA05D584EE844A24EE033A64EE30
:102D0000200A34EEC34A34EE604A64EE226A73EE5F
:102D1000202A32EEA65AF0EE665A30EEA66A254810
:102D200081ED065AC1ED075A81ED086AC1ED116ABD
:102D3000C1ED0F0A81ED0B1AC1ED0D1A81ED0C2AC0
:102D400081ED0E3AC1ED103A8B60DFED160A006896
:102D500091ED061A21EE201ABCEEC11A80ED0D1A73
:102D6000D1ED071A61EEA01AFCEEE11AC0ED0E1AC1
:102D700091ED081A61EE200AFCEEE00AC0ED0F0AA0
:102D800081ED050A70470000D7B3DD3F00007042B7
:102D9000D7B35DBFD7B35D3F00214163002282639B
:102DA000C16370470000FA4400040040380100206D
:102DB0000000C04078000020B8000020480000203B
:102DC000F8000020000040402400004008020020DD
:102DD000252E31662C252E31660A00006473610AA7
:102DE00000000000704770477047704710B50446F8
:102DF00010460A460146204600F02CFD204610BD34
:102E00002DE9F84F4FF0000E00246C4A6C4BDFF8B0
:102E1000B481DFF8B4B14FF00F0982460DE0D768F6
:102E20003840D06007E0C2F808C04D68AD02F6D562
:102E3000D0680743D7600EF1010E0F6837FA0EF025
:102E400000F0B680012000FA0EFC0CEA0707674587
:102E5000F1D1486838B301281AD002281DD00328C0
:102E60002ED0112816D012281AD0584DA8421CBFB7
:102E7000574DA84217D0574DA8421CBF564DA842E7
:102E800011D0564DA8421CBF554DA8420BD018E09A
:102E9000CC6816E0CC68241D13E0CC68083410E040
:102EA000CC680C340DE0886808B9042409E00128D6
:102EB00019BF0824CAF814C00824CAF810C000E0DA
:102EC0000024B7F5807F03D250464FEA8E0C05E010
:102ED000AEF108050AF104004FEA850C056809FA0D
:102EE0000CF6B54304FA0CF646EA050CC0F800C02F
:102EF0004868C0009FD5D8F8000040F00100C8F82D
:102F000000004FEA8E06D8F8005005F00105009544
:102F100006F00C0C00984FEA9E0053F8205009FA76
:102F20000CF6B543DA4508BF002618D02D4EB24541
:102F300008BF012613D02C4EB24508BF02260ED082
:102F40002A4EB24508BF032609D0294EB24508BF14
:102F5000042604D0274EB2450CBF0526062606FAE5
:102F60000CF646EA050C43F820C0F8434D68ED0323
:102F700006D5D2F800C047EA0C0CC2F800C002E047
:102F80001568054015604D68D2F804C0AD034CBF0C
:102F900047EA0C0C00EA0C0CC2F804C04D68D2F8E9
:102FA00008C0ED024CBF47EA0C0C00EA0C0C3AE7F3
:102FB000BDE8F18F02B909040161704700040140C6
:102FC00008000140181002400008014000001110E4
:102FD000000012100000211000002210000031102B
:102FE00000003210000C01400010014000140140AC
:102FF00000180140001C01400901020002D42848C9
:1030000081547047274B02F00F021A4402F8041C47
:103010007047254B19684FF6FF020002114000F47B
:10302000E0600843214908431860704770B51E4BA3
:103030001C68C4F302230124C3F10705052D2EBF2C
:103040000F2504FA05F56D1E1E1D072E34BF002343
:10305000DB1E2940994004FA03F3BDE870405B1E73
:103060001A401143C8E7010007D4012200F01F01F4
:103070000F4B8A40400943F820207047401EB0F1B2
:10308000807F01D3012070470A490B4A4860002322
:10309000F02010708B60072008600020704700004F
:1030A00000E400E018ED00E00CED00E00000FA059F
:1030B00000E100E010E000E023ED00E0C0F3C751C4
:1030C00081B1FF2906D0C110400721F0E04101F194
:1030D0006051704741020CBF40F4E0016FF00041C5
:1030E0000020704700F0004100020AD0B0FA80FCD6
:1030F00000FA0CF001F16051A1EB0C5101EBD02171
:10310000400570470EB4C0B5024603A800210190E7
:10311000009101AB0121044878440C30FDF70BF815
:1031200006BC5DF810FB00BF891C000010B504460A
:10313000042220681CE00446080004D0042907D0BB
:1031400008290AD00EE02068C26842F0020208E0B6
:103150002068C26842F0040203E02068C26842F0BE
:103160000802C2602068C36843F08003C360042281
:1031700000F059F82068416C41F4004141648168D5
:1031800001F00701062903D0016841F00101016047
:10319000002010BD70B500F13C031A78012A01D15E
:1031A000022070BD01221A7002245C7004686568F8
:1031B000A6684A68096825F070050D43656026F029
:1031C000800600681643866001215970002018703F
:1031D00070BD10B590F83C20012A01D1022010BD2D
:1031E000012280F83C20CC688A684B6824F4407443
:1031F000144324F480641C430A680B6924F40064BB
:10320000144324F480541C434A69C96924F40054CB
:103210001443026824F480440C435464002380F86F
:103220003C30002010BD10B501F01F01036A0424DA
:103230008C40A343036202FA01F1036A194301625D
:1032400010BD000070B500F022F801D1022070BD61
:1032500000F023F801000FD100F024F85CBF002338
:10326000AB6000F00CF85E6846F080065E60236894
:103270005C68650502D432E00021297070BD00262B
:103280002E706FF0040325682B6023687047044696
:1032900004F1240528780128704701202870204671
:1032A00000F08EBC6A68DFF85C120A4042F480527B
:1032B0006A602368DFF85022DFF85012934207D18A
:1032C0000E6816F4702F03D06B6843F4801302E08D
:1032D0006B6823F480136B606B68DE0570479C6835
:1032E00004F4E044B4F5E04F09D1934203D10968F6
:1032F00011F4702F03D1996841F4021102E099682A
:1033000041F40041996070BD02290AD00CD3042910
:1033100001D003D308E00068806C70470068406CFF
:1033200070470068006C70470068C06B7047F8B564
:10333000002300F1240400930A4625780021012D82
:1033400001D10220F2BD01232370556883686BB957
:10335000012D08D103689D6B1668AD0DAD0545EADA
:10336000C6359D6322E000F0C5F81FE01369D0F870
:1033700000C0EE1AF61C06EB86061F27B74047F47E
:103380004017FF43AB420CD3DCF838502F405B1E94
:1033900047EA0357136803FA06F63E43CCF8386051
:1033A00004E0DCF838301F40CCF838700568AB68B2
:1033B000DE070CD4AE689769564B9D4204BFB7F543
:1033C000C04F4FF48047544B1E403E43AE60537D88
:1033D000012B0BD19369B3F5E04F05D103685D680C
:1033E00045F480655D6001E000F084F8137D012BF9
:1033F00009D1537D2BB903685D6845F480555D6044
:1034000001E000F077F816689368056807270A2E30
:1034100008D30A3E06EB4606D5F80CC000F05FF86C
:10342000EB6006E006EB4606D5F810C000F057F852
:103430002B611368102B18BF112B04D103689D68F2
:1034400045F400059D605368012B04D015D3032B70
:103450000DD006D311E005686E6900F046F86E6184
:1034600010E00568AE6900F040F8AE610AE005685A
:10347000EE6900F03AF8EE6104E005682E6A00F0AB
:1034800034F82E621368102B18BF112B23D100685B
:10349000224B98421AD11E4805682B021BD405689E
:1034A00045F4000505601068102814D1144A1C4D1D
:1034B0001368B3FBF5F50A204543009500980028F2
:1034C0001EBF0098401E0090F8D104E00121606802
:1034D00040F020006060002020700846F2BDB74038
:1034E0002CEA0707B3403B437047D368360B43EAE7
:1034F00006367047616841F0200161600121704724
:103500000C000020FEDFFFFF0028014004240140E2
:1035100008240140003C0140FE8FFFFF00240140D1
:1035200040420F00DFED620A60EE200A10EE902AA2
:1035300022F0004101EE101ADFED5E1AB4EE611ABE
:10354000F1EE10FA25D54FF07C5102F000420A430B
:1035500001EE102A71EE200AFDEEE00A10EE901A3C
:1035600000296AD0FAEEC90A9FED531A00EE810ACB
:10357000DFED521A00EEA10A9FED512A00EE820AF9
:10358000DFED502A00EEA20A9FED4F1A00EE810AED
:1035900053E010EE101A4B001B1613F1010F0AD165
:1035A0004900081610F1010F02D1090240F07F8096
:1035B0009FED460A7047490004D1002877D0B7EE46
:1035C000000A70474FF07C5102F000420A4301EEBE
:1035D000102A71EE200A10EE902A51000DD0090E2B
:1035E000C1F196011829A8BF02F0004203DA0029B0
:1035F000C4BFCA408A4000EE902A10EE901A4900DB
:1036000017D09FED331A20EE811ADFED2B1A01EE51
:10361000210A9FED2A2A01EE020ADFED292A01EE96
:10362000220A9FED283A01EE030ADFED271A01EE88
:10363000210AFDEEE00A10EE901A01F003010818CD
:1036400010EE101A21F0004100EE901A9FED211AA1
:10365000F4EE410AF1EE10FA04D5C10723D5B7EE16
:10366000000A20E0C10760EE000A0ED59FED1A0A9D
:103670009FED1A1A00EE801ADFED191A41EE201A9A
:10368000B7EE000A01EEA00A0DE09FED162ADFED6D
:10369000161A40EE821ADFED152A20EE201A41EEAE
:1036A000A02A01EE220A800748BFB1EE400A704707
:1036B00083F9223F0000004F0000C9C600A0FDC0F2
:1036C0000020A2BA000034B30030C2AEFFFFFF7F7B
:1036D00000008038000080399349B2BA36A02A3DF4
:1036E000DFFFFFBE6E8C4CB94283083CA1AA2ABE04
:1036F000012017E7002015E700B551EC100A00F093
:1037000003F800EE100A00BD10B54FF0004C00F0B9
:1037100000434900C0F3C7540A0E1ABFFF2CFF2A0A
:103720002DE0B1EB400F21D24CEAC1114CEA002050
:10373000090AA41A083C07D9B0FBF1FE01FB1E00E0
:1037400000021AD0083CF7D86442E040B0FBF1FE1A
:1037500001FB1E0088B1B0FA80F18840D21D521AD8
:1037600006DB43EA102000EBC25010BD05D010BDAF
:10377000D2F10802D040184310BD184610BD0942CE
:103780001ABFFF2CFF2A0FE0B1EB400FEED2090267
:10379000B1FA81F2914052422442C7D14002B0FABC
:1037A00080F4A0406442C3E76346DA0912EB400F9D
:1037B0002CBFD843D14218BFD843BDE81040AFF367
:1037C0000080704701F000428B1AA3F16051B1F5FF
:1037D000801F0ADBB1F17F6F1FD242EAC102C10034
:1037E00071F1004142EB507070470B15C3F10903B2
:1037F000212B10D2890241EA9051800201284941CF
:1038000041F0004121FA03F0C3F12003994071F126
:10381000004150417047100070476FF0000013EBFB
:10382000103F5CBF000E42EAC050704738B50446F6
:1038300000F02CFA14F1010F054602D0044801787B
:10384000641800F023FA401BA042FAD331BD00BF38
:103850000000002062F30F2262F31F42401810F0B4
:10386000030308D0C91A1FD3DB0748BF00F8012D96
:1038700028BF20F8022D130030B414461546103925
:1038800028BF20E93C00FAD8490728BF20E90C00EE
:1038900048BF40F8042D890028BF20F8022D48BFFA
:1038A00000F8012D30BC7047C91818BF00F8012D71
:1038B000CB0728BF00F8012D70470000F8B504467B
:1038C00000270026002C7AD004F12405686828B966
:1038D0000021A96028702046FEF7CFFD204600F0A9
:1038E000B3F96968CA066BD4010069D1696821F42B
:1038F000885141F0020169602368DFF83013E26902
:103900008B4204BFB2F5402F4FF40022D4F804C01C
:10391000217B42EA0C02D4F808C042EA4102BCF51D
:10392000807F14BFBCF1010F4FF4807794F814C06E
:10393000BCF1010F0FD131B9A169491E47EA4137E6
:1039400047F4006707E0696841F020016960A968F1
:1039500041F00101A960596821F469410F435F609A
:103960002368DFF8CC129F680F4017439F60A1685F
:10397000B1F5807F18BF012902D12669761E360570
:103980002168CB6A23F470031E43CE622468DFF8FB
:10399000A412A3680B40934207D10022AA60012120
:1039A0006A6861F301026A60F2BD686820F0020093
:1039B00040F010006860A86840F00100A86003E0D3
:1039C000686840F0100068600120F2BD10B5044640
:1039D00021684868820623D5084603689A071FD5E0
:1039E000A06AC20603D4A06A40F40070A06200F08E
:1039F0005CF804BF207B00280BD1486820F0200031
:103A00004860A06A20F48070A062A06AC10400F03F
:103A100052F8204600F040F921686FF0120008606B
:103A20002168486802062CD5084603685A0728D53D
:103A3000A06AC20603D4A06A40F40050A06288685D
:103A400000F4E040B0F5E04F08D04868420511D4DA
:103A500000F02BF804BF207B00280BD1486820F031
:103A600080004860A06A20F48050A062A06AC1056E
:103A700000F021F82046FEF75EFE21686FF00C0092
:103A800008602268506841060ED510460268D107CA
:103A90000AD5A06A40F48030A062204600F0FDF80C
:103AA00021686FF00100086010BD886800F4602094
:103AB000B0F5602F704703D4A06A40F00100A06207
:103AC0007047F8B5002300930A4600F12403002153
:103AD0001C78012C01D10220F2BD01241C701F278B
:103AE000546815680668072C08D2641E04EB840429
:103AF000D6F834C000F05EF8756312E00D2C08D2E1
:103B0000E41F04EB8404D6F830C000F053F83563AA
:103B100007E00D3C04EB8404D6F82CC000F04AF812
:103B2000F56207271668946805680A2E08D30A3ECE
:103B300006EB4606D5F80CC000F036F8EC6006E05F
:103B400006EB4606D5F810C000F02EF82C6114687C
:103B5000102C18BF112C23D10068384CA0421AD168
:103B6000374805682C021BD4056845F4000505603C
:103B70001068102814D1304A324D1468B4FBF5F5A2
:103B80000A2045430095009800281EBF0098401E5B
:103B90000090F8D104E00121586840F020005860FE
:103BA000002018700846F2BDB7402CEA0707B44061
:103BB0003C437047A7402CEA0707A5403D437047A8
:103BC00038B504460020009020688168CA072AD4CE
:103BD00081681C4A41F00101816017480168B1FB0E
:103BE000F2F2009202E00098401E00900098002837
:103BF000F9D100F04BF8054620688168C80712D457
:103C000000F044F8401B0328F6D304F124000022FE
:103C1000416841F010014160816841F0010181601B
:103C20000270012032BD002032BD0000003C014086
:103C3000FDF7E1FFFE0E1FFF0C00002000240140F5
:103C40000824014040420F0038B5044620688168CE
:103C5000CA0719D5816849084900816000F016F843
:103C6000054620688168C8070ED500F00FF8401B94
:103C70000328F6D3A06A40F01000A062E06A40F08A
:103C80000100E062012032BD002032BD01484068E1
:103C9000704700BF00000020704770472DE9F843CF
:103CA000040016D02078DFF86C64C10713D5706863
:103CB00000F00C00042807D0706800F00C00082801
:103CC00041D17068C1033ED53068810303D5606877
:103CD000002800F064812078DFF84874810719D546
:103CE000706810F00C0F07D0706800F00C00082806
:103CF00061D17068C1035ED43068810703D5206943
:103D0000012840F04C813168606921F0F80141EAF6
:103D1000C00131602178080740F18180A069DFF897
:103D20000814002800F0A68001220A60FFF7AEFF09
:103D30000546706A810763D4FFF7A8FF401B02287D
:103D4000F7D903202EE16068B0F5803F04D13068D8
:103D500040F48030306014E008B930680AE0B0F513
:103D6000A02F306806D140F480203060316841F4E3
:103D7000803105E020F480303060316821F480210A
:103D80003160606858B1FFF781FF054630688103F4
:103D9000A1D4FFF77BFF401B6528F7D3D1E7FFF7DE
:103DA00075FF05463068810395D5FFF76FFF401B0F
:103DB0006528F7D3C5E72069A8B101213960FFF76D
:103DC00065FF05463068810705D4FFF75FFF401B9C
:103DD0000228F7D9B5E73068616920F0F80040EAB9
:103DE000C100306096E73860FFF750FF0546316844
:103DF00088078FD5FFF74AFF401B0228F7D9A0E7B5
:103E0000DFF814030168C9084FF47A72B1FBF2F2CB
:103E1000009200BF0098411E00280091F9D120783F
:103E200041076ED5F0690025C10009D4F06940F062
:103E30008050F0610125F06900F0805000900098FA
:103E4000DFF8E882D8F80000C10520D4D8F80000D7
:103E500040F48070C8F80000FFF718FF8146D8F8DA
:103E60000000C10513D4FFF711FFA0EB090065287E
:103E7000F5D366E70860FFF709FF0546706A81071A
:103E8000CDD5FFF703FF401B0228F7D959E7E068BB
:103E9000012808D008B9306A09E00528306A06D13F
:103EA00040F004003062306A40F0010005E0400854
:103EB00040003062306A20F00400306241F28938FC
:103EC000E06860B1FFF7E2FE8146306A810713D4F3
:103ED000FFF7DCFEA0EB09004045F6D331E7FFF722
:103EE000D5FE8146306A810706D5FFF7CFFEA0EBED
:103EF00009004045F6D324E71DB1F06920F0805059
:103F0000F061E06900284CD0716801F00C010829CB
:103F100038D002282AD100F047F8054630688101E0
:103F200005D5FFF7B3FE401B0228F7D909E7206A41
:103F3000B0F5803F05D17168A06821F400310143DC
:103F400071607268206A616A22F4741202430A4343
:103F50007260012000F029F804463068810120D405
:103F6000FFF794FE001B0228F7D9EAE600F01CF8E0
:103F700004463068810114D5FFF788FE001B022833
:103F8000F7D9DEE601280AD07068226A00F4803191
:103F9000914202BF00F47010616A884201D0012092
:103FA00000E00020BDE8F28300203866FFF76EBE17
:103FB0002DE9F041040088464ED05D4E00F077F8C0
:103FC00002D200F06FF847D12068524D810712D518
:103FD000400703D5696841F4E06169602078010712
:103FE00003D5686840F4605068606968A06821F093
:103FF000F001014369602178C80725D56068012870
:1040000002D129688A0303E00228296802D18A01C3
:1040100002D421E08A071FD56968890840EA810037
:104020006860FFF733FE07466868616800F00C00BF
:10403000B0EB810F08D0FFF729FEC01B41F2893198
:104040008842F1D303202BE0306800F00700804560
:1040500004D200F027F801D0012021E020784107A8
:1040600005D56A68E06822F4E06202436A6021785C
:10407000080706D56968206921F4605141EAC0014A
:10408000696000F019F86A682A49234BC2F30312E9
:10409000895CC84018602248006800F05DF8002084
:1040A000BDE8F0813168C90848EAC1013160306873
:1040B00000F00700404570471F4918480A6802F0A1
:1040C0000C03082B00D0704710B500BF1DA4C2F32D
:1040D0008343D203E35C08D5096858431DA3C1F3A9
:1040E0004041595CB0FBF1F010BD1448584310BD7D
:1040F0000948114A006813681149C3F3022206E017
:1041000005480D4A006813680D49C3F3C222895C53
:10411000C8407047001002400C00002000127A00D6
:10412000080000200000424280044242007000402B
:1041300000200240144C00080410024000093D0019
:10414000D84D000802030405060708090A0B0C0DE8
:104150000E0F10100102000038B50D4D0D4B2A78DE
:1041600004464FF47A711868B1FBF2F2B0FBF2F03A
:10417000FEF784FF50B9102C08D2002221464FF0E0
:10418000FF30FEF753FFAC60002032BD012032BD8E
:10419000000000200C00002038B5040001D10120EF
:1041A00032BD00F023F808B900F024F800F014F84C
:1041B00000F025F8FFE7416100F001F832BD20680A
:1041C000C16841F40051C16000206860202169701D
:1041D0002020A87000207047242068702068C168E3
:1041E00021F40051C160204600F0B5B904F1380552
:1041F00068787047002129702046FEF71EBA2068B3
:10420000016921F4904101612068416921F02A018E
:1042100070472DE9F843054605F138070C467878D4
:1042200020281646984646D1002C14BF002E0120A7
:1042300042D0387801283ED00121397000207860C2
:1042400021227A70FFF722FDAE848146EE8403E0DE
:10425000296814F8010B4860E88CE0B1E88C411E35
:10426000E9844B46A868CDF80080B0F5805F0DD199
:1042700000F024F8B8B920882968C0F30800486025
:104280002869002814BF641CA41CE5E700F016F898
:104290000028DDD007E0CDF800804B460022402109
:1042A00000F00EF808B1032006E02020787000210D
:1042B0003970002000E00220BDE8F2830022802156
:1042C000284600F0BAB828684169490849004161A8
:1042D0007047416921F040014161606B704770B5E2
:1042E000044620680268014612F00F0FCD6843694A
:1042F00005F0200002F0200107D1002918BF002896
:104300005AD02046BDE87040DCE0DE0702D415F448
:10431000907F51D0D60705D5ED0503D5E66B46F065
:104320000106E663550705D5DE0703D5E56B45F0C5
:104330000205E563950705D5DE0703D5E56B45F076
:104340000405E563120705D5DB0703D5E26B42F0F0
:104350000802E263E26B002A6ED000291EBF00282B
:10436000204600F0AFF820684069E16B0A0701D4ED
:1043700040061BD5204600F08DF8206841694A06AA
:104380000FD5FFF7A6FF60B10FF229114163606BF3
:1043900000F024F900284FD0606B416BBDE87040FD
:1043A00008472046BDE8704000F0A0B9204600F064
:1043B0009DF90020E06370BD10062CD529062AD592
:1043C00094F83900212837D1A068B0F5805F206AC1
:1043D0000CD101882268C1F30801516020690028CE
:1043E000206A0CBF811C411C216204E0411C216237
:1043F000226800785060E08C401EE08480B2D8B91A
:104400002068C16821F08001C1602068C16841F066
:104410004001C16070BD50060ED569060CD52068FC
:10442000C16821F04001C1602046202184F8391084
:10443000BDE8704000F05BB970BD2DE9F041069C0D
:1044400005460E4690461F46286801683140B14235
:104450000CBF01200020404519D114F1010FF3D009
:1044600024B1FFF713FCC01B8442EDD22868C16859
:1044700021F4D071C1602022FFF725FF05F138003B
:1044800020214170827000210170032000E0002093
:10449000BDE8F0810168CA6822F49072CA600168C0
:1044A0004A69520852004A61202180F83A10704748
:1044B00000000000406A0021C1850022C28400F093
:1044C00015B9000010B590F83A10222941D1816841
:1044D000B1F5805F2AD1826A0169134601BB046885
:1044E0006168C1F30801921C82621980C18D491E66
:1044F000C18589B259BB0168CA6822F02002CA602E
:104500000168CA6822F48072CA6001684A69520868
:1045100052004A61202180F83A1000F0E9F816E0D4
:104520000168496801F0FF01521CDDE701690029BB
:10453000816A05D14A1C826203685A680A70D5E70D
:104540004A1C826203685A6802F07F02F6E7002084
:1045500010BD022010BD70B50446192622681169ED
:10456000E06821F44051014311616FF06305D368A5
:104570001849A0680B402169034360690B4303435A
:10458000D3605169A06921F440710143124851611F
:10459000824202D1FFF7B4FD01E0FFF7A9FD4643D7
:1045A00060688000B6FBF0F06421B0FBF1F105FB20
:1045B00001052D0132356420B5FBF0F000F0F0026A
:1045C00002EB0112216800F00F008018886070BDB6
:1045D00000000000F3E9FFFF00380140F8B590F853
:1045E00021200024022A00F1340103D00420486075
:1045F00001245FE00268DFF8C460136823F00E0353
:1046000013604FF48077026815686D086D001560BF
:104610004FF480320368B3424FF4805519D9DFF864
:104620009860B34208BF012210D0DFF89460B34213
:1046300008BF10220AD0DFF88C60B34208BF3A46A8
:1046400004D0DFF88470BB4208BF2A46DFF87C3014
:1046500027E0DFF87CC063451CD0DFF878E07345C5
:104660001AD0DFF874C0634518D0DFF87070BB4211
:104670000EBF2A46DFF86850AB4210D0DFF86470F6
:10468000BB4208BF4FF4801209D0B34207D14FF0AC
:10469000807204E0012202E0102200E03A46DFF8D6
:1046A00048301A60012280F8212080F820400968F3
:1046B00001B188472046F2BD080402408000024054
:1046C0001C0402403004024044040240040402403E
:1046D000080002401C00024030000240440002403A
:1046E000580002406C0002400400024070477047CE
:1046F0007047000078B595B000F0D8F900F075F972
:104700001022002101A8FEF771FBDFF87C03DFF81F
:104710007C43016841F0040101604FF48076026837
:1047200002F0040200920099026842F0080202605E
:104730000022006800F00800009004210098204644
:10474000FEF738FC0421019101220292002103911D
:104750000222049201A92046FEF752FB0C220021FE
:1047600007A8FEF743FB1C2200F080F90121C84C8A
:10477000C848217320604FF46021E161002020755A
:10478000606001212161A6602046FFF797F808B11B
:1047900000F08AF907200121079008910022099270
:1047A00007A92046FFF78DF908B100F07DF9072130
:1047B00000910122019202210491002202924FF401
:1047C0008055ADF814200392069569462046FEF701
:1047D000AEFD08B100F068F90921009102220192B2
:1047E00069462046FEF7A3FD08B100F05DF91022EE
:1047F000002111A8FEF7FAFA00F037F91C2200F0A8
:10480000F0F82022002109A8FEF7F0FAA248206360
:10481000002161632020A0634FF4FA61E16301206D
:1048200060640021A164266404F13000FDF768FA99
:1048300008B100F039F9119511A904F13000FDF724
:1048400064FC08B100F030F904F13000FDF78FFA94
:1048500008B100F029F97021009100220192694607
:1048600004F13000FEF796FC08B100F01DF960205D
:104870000021029003910022059107910492069273
:10488000089200F0A9F808B100F00EF9042200F037
:10489000A3F808B100F008F9082200F09DF808B16B
:1048A00000F002F9702140F2CF720291039202A946
:1048B0000C2200F092F808B100F0F6F84FF4806195
:1048C0000A914FF4006020210C9109904FF400519F
:1048D00000220E910D9210920B9609A904F130005E
:1048E000FEF777FC08B100F0DFF804F13000FDF7C7
:1048F00071FE242200F075F800F0B7F8002161671E
:104900004FF0804040F6FF712067E16704F18806B0
:1049100000200021A067C4F880003160032001213D
:104920000290002204910891039205920692079248
:1049300009920A9202A904F17000FDF746FA08B143
:1049400000F0B2F800210091019104F17000694675
:10495000FEF720FC08B100F0A7F85048504901606C
:104960004FF4E13200230C2142608360C360036195
:1049700041618361C361FFF70FFC08B100F094F857
:10498000102200F02EF800F070F84648B0623F2187
:10499000F1620020306340F2E731B063306471634C
:1049A000B0342046FDF7ACF908B100F07DF802956F
:1049B00002A92046FDF7A9FB08B100F075F8002117
:1049C0000091019120466946FEF7E4FB08B100F032
:1049D0006BF8FDF7FBFEFEE702A904F13000FDF7DE
:1049E0001CBB002102A8FEF701BA00B595B0282231
:1049F00000210BA8FEF7FAF9142200F037F818226C
:104A0000002105A8FEF7F2F9022101220B910F9275
:104A1000102102221091129200214FF46012139182
:104A200014920BA8FFF73AF908B100F03DF8022103
:104A300001910F204FF480610090002203910292B7
:104A4000049202216846FFF7B3FA08B100F02CF88F
:104A500002214FF400420591079205A800F038F8B2
:104A600008B100F021F815B000BD08220021684609
:104A7000FEF7BCB901B54FF6FF730122694607483E
:104A8000FFF7C7FB009802BD18100240000C014060
:104A90004800002000240140002C0140C8010020F3
:104AA000004400400004004072B6FEE780B50748AD
:104AB000016841F0100101600320FEF7AAFA0F20FF
:104AC000FFF74AFBFDF7BCFC002002BD00200240BE
:104AD0002DE9FC410646354D3078C10750D5A8690F
:104AE0000024C10009D4A86940F08050A8610124C5
:104AF000A86900F08050009000982D4F3868C105DB
:104B000011D4386840F480703860FFF7BFF88046F1
:104B10003868C10507D4FFF7B9F8A0EB080065288D
:104B2000F6D303203FE0E86910F440701EBF7168BF
:104B300001F44071884218D01E49E86901220A60D8
:104B4000002320F440700B60E861C0070DD5FFF72B
:104B50009DF80746E869810707D4FFF797F8C01B5F
:104B600041F289318842F5D3DBE7EA69706822F4C3
:104B700040720243EA611CB1A86920F08050A8612C
:104B80003078810705D52A68B06822F44042024394
:104B90002A603178C80605D52968706921F480013A
:104BA000014329600020BDE8F681000004100240A6
:104BB000007000404004424210B51148114A01689B
:104BC00041F47001016010680F4940F0010010606D
:104BD00053680E480B405360146804401460116819
:104BE00021F4802111604FF41F01506820F4FE0071
:104BF000506091604FF00060054A106010BD0000E9
:104C000088ED00E0001002400000FFF8FFFFF6FE14
:104C100008ED00E0000000000000000001020304B5
:104C20000607080901000000000000001000000055
:104C30000024F400B2100008B2100008B2100008FE
:104C4000B2100008B2100008B2100008B21000083C
:104C5000FFFFFFFFFFFFFFFF3A100008B210000840
:104C6000B2100008FFFFFFFFFFFF0000FEE7FEE7B6
:104C7000FEE7FEE7FEE770477047704700F014B8A4
:104C80000548FEF7A3BE0548FDF723B90448FDF724
:104C900020B90448FFF723BB48000020B8000020DB
:104CA000F8000020C80100200248416802788A18F4
:104CB000426070470000002030B4002512E050F838
:104CC000042BD30744BF4A44521E091F042942F84B
:104CD000045BFAD213468C0744BF15809B1CC9079E
:104CE00048BF1D7050F8041B0029E8D130BC704744
:104CF00010B5074979441831064C7C44163404E059
:104D00000A68081D114488470146A142F8D110BD28
:104D10002C0000004C0000004EF68851CEF200013D
:104D2000086840F470000860BFF34F8FBFF36F8FC7
:104D30004FF00170E1EE100A704700007DFFFFFFA9
:104D4000C80100004800002000000000AFC2FFFFC3
:104D500048000000D0FEFFFF00000020000000001F
:104D600000F00DF8002801D0FFF7C2FFAFF300807C
:104D70000020AFF30080FFF7BDFC00F002F8012037
:104D8000704700F001B8000007463846FCF7AEFF58
:104D9000FBE700000548014603B4684680F3098834
:104DA000AFF30080FFF7B8FFFFF7DAFFA5EDF5FEE0
:104DB00038B504460D462846FFF75CFEA84218BFEA
:104DC0000024204632BD00000148804701480047CA
:104DD000B94B0008954D00080000000001020304D3
:104DE000FFF7FEBFFFF7FEBFFFF7FEBFFFF7FEBFF7
:104DF000FFF7FEBFFFF7FEBFFFF7FEBFFFF7FEBFE7
:104E0000FFF7FEBFFFF7FEBFFFF7FEBFFFF7FEBFD6
:104E1000FFF7FEBFFFF7FEBFFFF7FEBFFFF7FEBFC6
:104E2000FFF7FEBFFFF7FEBFFFF7FEBFFFF7FEBFB6
:104E3000FFF7FEBFFFF7FEBFFFF7FEBFFFF7FEBFA6
:104E4000FFF7FEBFFFF7FEBFFFF7FEBFFFF7FEBF96
:104E5000FFF7FEBFFFF7FEBFFFF7FEBFFFF7FEBF86
:104E6000FFF7FEBFFFF7FEBFFFF7FEBFFFF7FEBF76
:104E7000FFF7FEBFFFF7FEBFFFF7FEBFFFF7FEBF66
:104E8000FFF7FEBFFFF7FEBFFFF7FEBFFFF7FEBF56
:104E9000FFF7FEBFFFF7FEBFFFF7FEBFFFF7FEBF46
:104EA000FFF7FEBFFFF7FEBFFFF7FEBFFFF7FEBF36
:104EB000FFF7FEBFFFF7FEBFFFF7FEBFFFF7FEBF26
:0400000508004D950D
:00000001FF
