###############################################################################
#
# IAR ELF Linker V9.40.1.364/W64 for ARM                  30/Jul/2024  15:29:51
# Copyright 2007-2023 IAR Systems AB.
#
#    Output file  =
#        F:\open\stm32cubmx\6.5kw\bldc-control-keil\foc_new\FOC_new\EWARM\FOC_new\Exe\FOC_new.out
#    Map file     =
#        F:\open\stm32cubmx\6.5kw\bldc-control-keil\foc_new\FOC_new\EWARM\FOC_new\List\FOC_new.map
#    Command line =
#        -f
#        F:\open\stm32cubmx\6.5kw\bldc-control-keil\foc_new\FOC_new\EWARM\FOC_new\Exe\FOC_new.out.rsp
#        (F:\open\stm32cubmx\6.5kw\bldc-control-keil\foc_new\FOC_new\EWARM\FOC_new\Obj\Core_13247989168731456611.dir\arm_common_tables.o
#        F:\open\stm32cubmx\6.5kw\bldc-control-keil\foc_new\FOC_new\EWARM\FOC_new\Obj\Core_13247989168731456611.dir\arm_const_structs.o
#        F:\open\stm32cubmx\6.5kw\bldc-control-keil\foc_new\FOC_new\EWARM\FOC_new\Obj\Core_13247989168731456611.dir\arm_cos_f32.o
#        F:\open\stm32cubmx\6.5kw\bldc-control-keil\foc_new\FOC_new\EWARM\FOC_new\Obj\Core_13247989168731456611.dir\arm_sin_f32.o
#        F:\open\stm32cubmx\6.5kw\bldc-control-keil\foc_new\FOC_new\EWARM\FOC_new\Obj\Core_13247989168731456611.dir\foc.o
#        F:\open\stm32cubmx\6.5kw\bldc-control-keil\foc_new\FOC_new\EWARM\FOC_new\Obj\Core_13247989168731456611.dir\main.o
#        F:\open\stm32cubmx\6.5kw\bldc-control-keil\foc_new\FOC_new\EWARM\FOC_new\Obj\Core_13247989168731456611.dir\motor.o
#        F:\open\stm32cubmx\6.5kw\bldc-control-keil\foc_new\FOC_new\EWARM\FOC_new\Obj\EWARM_18443280873093131863.dir\startup_stm32f103xe.o
#        F:\open\stm32cubmx\6.5kw\bldc-control-keil\foc_new\FOC_new\EWARM\FOC_new\Obj\STM32F1xx_HAL_Driver_9701002599162248031.dir\stm32f1xx_hal.o
#        F:\open\stm32cubmx\6.5kw\bldc-control-keil\foc_new\FOC_new\EWARM\FOC_new\Obj\STM32F1xx_HAL_Driver_9701002599162248031.dir\stm32f1xx_hal_adc.o
#        F:\open\stm32cubmx\6.5kw\bldc-control-keil\foc_new\FOC_new\EWARM\FOC_new\Obj\STM32F1xx_HAL_Driver_9701002599162248031.dir\stm32f1xx_hal_adc_ex.o
#        F:\open\stm32cubmx\6.5kw\bldc-control-keil\foc_new\FOC_new\EWARM\FOC_new\Obj\STM32F1xx_HAL_Driver_9701002599162248031.dir\stm32f1xx_hal_cortex.o
#        F:\open\stm32cubmx\6.5kw\bldc-control-keil\foc_new\FOC_new\EWARM\FOC_new\Obj\STM32F1xx_HAL_Driver_9701002599162248031.dir\stm32f1xx_hal_dma.o
#        F:\open\stm32cubmx\6.5kw\bldc-control-keil\foc_new\FOC_new\EWARM\FOC_new\Obj\STM32F1xx_HAL_Driver_9701002599162248031.dir\stm32f1xx_hal_exti.o
#        F:\open\stm32cubmx\6.5kw\bldc-control-keil\foc_new\FOC_new\EWARM\FOC_new\Obj\STM32F1xx_HAL_Driver_9701002599162248031.dir\stm32f1xx_hal_flash.o
#        F:\open\stm32cubmx\6.5kw\bldc-control-keil\foc_new\FOC_new\EWARM\FOC_new\Obj\STM32F1xx_HAL_Driver_9701002599162248031.dir\stm32f1xx_hal_flash_ex.o
#        F:\open\stm32cubmx\6.5kw\bldc-control-keil\foc_new\FOC_new\EWARM\FOC_new\Obj\STM32F1xx_HAL_Driver_9701002599162248031.dir\stm32f1xx_hal_gpio.o
#        F:\open\stm32cubmx\6.5kw\bldc-control-keil\foc_new\FOC_new\EWARM\FOC_new\Obj\STM32F1xx_HAL_Driver_9701002599162248031.dir\stm32f1xx_hal_gpio_ex.o
#        F:\open\stm32cubmx\6.5kw\bldc-control-keil\foc_new\FOC_new\EWARM\FOC_new\Obj\Core_13247989168731456611.dir\stm32f1xx_hal_msp.o
#        F:\open\stm32cubmx\6.5kw\bldc-control-keil\foc_new\FOC_new\EWARM\FOC_new\Obj\STM32F1xx_HAL_Driver_9701002599162248031.dir\stm32f1xx_hal_pwr.o
#        F:\open\stm32cubmx\6.5kw\bldc-control-keil\foc_new\FOC_new\EWARM\FOC_new\Obj\STM32F1xx_HAL_Driver_9701002599162248031.dir\stm32f1xx_hal_rcc.o
#        F:\open\stm32cubmx\6.5kw\bldc-control-keil\foc_new\FOC_new\EWARM\FOC_new\Obj\STM32F1xx_HAL_Driver_9701002599162248031.dir\stm32f1xx_hal_rcc_ex.o
#        F:\open\stm32cubmx\6.5kw\bldc-control-keil\foc_new\FOC_new\EWARM\FOC_new\Obj\STM32F1xx_HAL_Driver_9701002599162248031.dir\stm32f1xx_hal_tim.o
#        F:\open\stm32cubmx\6.5kw\bldc-control-keil\foc_new\FOC_new\EWARM\FOC_new\Obj\STM32F1xx_HAL_Driver_9701002599162248031.dir\stm32f1xx_hal_tim_ex.o
#        F:\open\stm32cubmx\6.5kw\bldc-control-keil\foc_new\FOC_new\EWARM\FOC_new\Obj\STM32F1xx_HAL_Driver_9701002599162248031.dir\stm32f1xx_hal_uart.o
#        F:\open\stm32cubmx\6.5kw\bldc-control-keil\foc_new\FOC_new\EWARM\FOC_new\Obj\Core_13247989168731456611.dir\stm32f1xx_it.o
#        F:\open\stm32cubmx\6.5kw\bldc-control-keil\foc_new\FOC_new\EWARM\FOC_new\Obj\CMSIS_6603591812247902717.dir\system_stm32f1xx.o
#        --no_out_extension -o
#        F:\open\stm32cubmx\6.5kw\bldc-control-keil\foc_new\FOC_new\EWARM\FOC_new\Exe\FOC_new.out
#        --redirect _Printf=_PrintfFullNoMb --redirect _Scanf=_ScanfFullNoMb
#        --map
#        F:\open\stm32cubmx\6.5kw\bldc-control-keil\foc_new\FOC_new\EWARM\FOC_new\List\FOC_new.map
#        --config
#        F:\open\stm32cubmx\6.5kw\bldc-control-keil\foc_new\FOC_new\EWARM/stm32f103xe_flash.icf
#        --semihosting --entry __iar_program_start --vfe --text_out locale
#        --cpu=Cortex-M4 --fpu=VFPv4_sp) --dependencies=n
#        F:\open\stm32cubmx\6.5kw\bldc-control-keil\foc_new\FOC_new\EWARM\FOC_new\Exe\FOC_new.out.iar_deps
#
###############################################################################

*******************************************************************************
*** RUNTIME MODEL ATTRIBUTES
***

CppFlavor       = *
__CPP_Runtime   = 1
__SystemLibrary = DLib
__dlib_version  = 6


*******************************************************************************
*** HEAP SELECTION
***

The basic heap was selected because --advanced_heap
was not specified and the application did not appear to
be primarily optimized for speed.


*******************************************************************************
*** PLACEMENT SUMMARY
***

"A0":  place at address 0x800'0000 { ro section .intvec };
"P1":  place in [from 0x800'0000 to 0x807'ffff] { ro };
define block CSTACK with size = 1K, alignment = 8 { };
define block HEAP with size = 512, alignment = 8 { };
"P2":  place in [from 0x2000'0000 to 0x2000'ffff] {
          rw, block CSTACK, block HEAP };
initialize by copy { rw };

  Section            Kind         Address    Size  Object
  -------            ----         -------    ----  ------
"A0":                                       0x130
  .intvec            ro code   0x800'0000   0x130  startup_stm32f103xe.o [3]
                             - 0x800'0130   0x130

"P1":                                      0x4d90
  .text              ro code   0x800'0130   0xeca  xprintffull_nomb.o [5]
  .text              ro code   0x800'0ffa    0x2a  copy_init3.o [7]
  .text              ro code   0x800'1024    0x16  strchr.o [7]
  .rodata            const     0x800'103a     0x2  xlocale_c.o [5]
  .text              ro code   0x800'103c    0x40  xfail_s.o [5]
  .text              ro code   0x800'107c    0x36  strlen.o [7]
  .rodata            const     0x800'10b2     0x1  xlocale_c.o [5]
  .text              ro code   0x800'10b4    0x58  memchr.o [7]
  .text              ro code   0x800'110c    0xa6  ABImemcpy.o [7]
  .text              ro code   0x800'11b4    0x70  frexp.o [6]
  .text              ro code   0x800'1224    0x34  DblCmpLe.o [6]
  .text              ro code   0x800'1258    0x34  DblCmpGe.o [6]
  .text              ro code   0x800'128c   0x13a  ldexp.o [6]
  .text              ro code   0x800'13c8    0x36  DblToS32.o [6]
  .text              ro code   0x800'1400    0x22  S32ToDbl.o [6]
  .text              ro code   0x800'1424   0x24e  DblAddSub.o [6]
  .text              ro code   0x800'1674   0x246  DblDiv.o [6]
  .text              ro code   0x800'18bc    0x22  DblToU32.o [6]
  .text              ro code   0x800'18e0    0x1c  U32ToDbl.o [6]
  .text              ro code   0x800'18fc   0x1aa  DblMul.o [6]
  .text              ro code   0x800'1aa8     0x8  xlocale_c.o [5]
  .text              ro code   0x800'1ab0   0x230  I64DivMod.o [7]
  .text              ro code   0x800'1ce0     0x6  abort.o [5]
  .text              ro code   0x800'1ce8     0x2  I64DivZer.o [7]
  .text              ro code   0x800'1cec    0x14  exit.o [8]
  .text              ro code   0x800'1d00   0x73e  stm32f1xx_hal_tim.o [4]
  .text              ro code   0x800'2440   0x298  stm32f1xx_hal_msp.o [2]
  .text              ro code   0x800'26d8     0x2  stm32f1xx_hal_tim.o [4]
  .text              ro code   0x800'26da     0x2  stm32f1xx_hal_tim.o [4]
  .text              ro code   0x800'26dc     0x2  stm32f1xx_hal_tim.o [4]
  .text              ro code   0x800'26e0   0x704  motor.o [2]
  .text              ro code   0x800'2de4     0x2  stm32f1xx_hal_tim_ex.o [4]
  .text              ro code   0x800'2de6     0x2  stm32f1xx_hal_tim.o [4]
  .text              ro code   0x800'2de8     0x2  stm32f1xx_hal_tim_ex.o [4]
  .text              ro code   0x800'2dea     0x2  stm32f1xx_hal_tim.o [4]
  .text              ro code   0x800'2dec    0x14  memset.o [7]
  .text              ro code   0x800'2e00   0x1f8  stm32f1xx_hal_gpio.o [4]
  .text              ro code   0x800'2ff8    0xc4  stm32f1xx_hal_cortex.o [4]
  .text              ro code   0x800'30bc    0x48  FltToDbl.o [6]
  .text              ro code   0x800'3104    0x28  printf.o [5]
  .text              ro code   0x800'312c   0x116  stm32f1xx_hal_tim_ex.o [4]
  .text              ro code   0x800'3244   0x2e0  stm32f1xx_hal_adc_ex.o [4]
  .text              ro code   0x800'3524   0x1d4  cos_sin32.o [6]
  .text              ro code   0x800'36f8    0xcc  fmodf.o [6]
  .text              ro code   0x800'37c4    0x68  DblToFlt.o [6]
  .text              ro code   0x800'382c    0x28  stm32f1xx_hal.o [4]
  .text              ro code   0x800'3854    0x66  ABImemset.o [7]
  .text              ro code   0x800'38bc   0x3d0  stm32f1xx_hal_adc.o [4]
  .text              ro code   0x800'3c8c     0xc  stm32f1xx_hal.o [4]
  .text              ro code   0x800'3c98     0x2  stm32f1xx_hal_adc.o [4]
  .text              ro code   0x800'3c9a     0x2  stm32f1xx_hal_adc.o [4]
  .text              ro code   0x800'3c9c   0x4ba  stm32f1xx_hal_rcc.o [4]
  .text              ro code   0x800'4158    0x40  stm32f1xx_hal.o [4]
  .text              ro code   0x800'4198   0x444  stm32f1xx_hal_uart.o [4]
  .text              ro code   0x800'45dc   0x110  stm32f1xx_hal_dma.o [4]
  .text              ro code   0x800'46ec     0x2  stm32f1xx_hal_uart.o [4]
  .text              ro code   0x800'46ee     0x2  stm32f1xx_hal_uart.o [4]
  .text              ro code   0x800'46f0     0x2  stm32f1xx_hal_uart.o [4]
  .text              ro code   0x800'46f4   0x3b8  main.o [2]
  .text              ro code   0x800'4aac    0x24  stm32f1xx_hal.o [4]
  .text              ro code   0x800'4ad0    0xe8  stm32f1xx_hal_rcc_ex.o [4]
  .text              ro code   0x800'4bb8    0x6c  system_stm32f1xx.o [1]
  Initializer bytes  const     0x800'4c24    0x48  <for P2-1>
  .text              ro code   0x800'4c6c    0x3c  stm32f1xx_it.o [2]
  .text              ro code   0x800'4ca8    0x10  stm32f1xx_hal.o [4]
  .text              ro code   0x800'4cb8    0x38  zero_init3.o [7]
  .text              ro code   0x800'4cf0    0x28  data_init.o [7]
  .text              ro code   0x800'4d18    0x22  fpinit_M.o [6]
  .iar.init_table    const     0x800'4d3c    0x24  - Linker created -
  .text              ro code   0x800'4d60    0x1e  cmain.o [7]
  .text              ro code   0x800'4d7e     0x4  low_level_init.o [5]
  .text              ro code   0x800'4d82     0x4  exit.o [5]
  .text              ro code   0x800'4d88     0xa  cexit.o [7]
  .text              ro code   0x800'4d94    0x1c  cstartup_M.o [7]
  .text              ro code   0x800'4db0    0x16  xprout.o [5]
  .text              ro code   0x800'4dc8    0x10  startup_stm32f103xe.o [3]
  .rodata            const     0x800'4dd8     0x8  system_stm32f1xx.o [1]
  .text              ro code   0x800'4de0     0x4  startup_stm32f103xe.o [3]
  .text              ro code   0x800'4de4     0x4  startup_stm32f103xe.o [3]
  .text              ro code   0x800'4de8     0x4  startup_stm32f103xe.o [3]
  .text              ro code   0x800'4dec     0x4  startup_stm32f103xe.o [3]
  .text              ro code   0x800'4df0     0x4  startup_stm32f103xe.o [3]
  .text              ro code   0x800'4df4     0x4  startup_stm32f103xe.o [3]
  .text              ro code   0x800'4df8     0x4  startup_stm32f103xe.o [3]
  .text              ro code   0x800'4dfc     0x4  startup_stm32f103xe.o [3]
  .text              ro code   0x800'4e00     0x4  startup_stm32f103xe.o [3]
  .text              ro code   0x800'4e04     0x4  startup_stm32f103xe.o [3]
  .text              ro code   0x800'4e08     0x4  startup_stm32f103xe.o [3]
  .text              ro code   0x800'4e0c     0x4  startup_stm32f103xe.o [3]
  .text              ro code   0x800'4e10     0x4  startup_stm32f103xe.o [3]
  .text              ro code   0x800'4e14     0x4  startup_stm32f103xe.o [3]
  .text              ro code   0x800'4e18     0x4  startup_stm32f103xe.o [3]
  .text              ro code   0x800'4e1c     0x4  startup_stm32f103xe.o [3]
  .text              ro code   0x800'4e20     0x4  startup_stm32f103xe.o [3]
  .text              ro code   0x800'4e24     0x4  startup_stm32f103xe.o [3]
  .text              ro code   0x800'4e28     0x4  startup_stm32f103xe.o [3]
  .text              ro code   0x800'4e2c     0x4  startup_stm32f103xe.o [3]
  .text              ro code   0x800'4e30     0x4  startup_stm32f103xe.o [3]
  .text              ro code   0x800'4e34     0x4  startup_stm32f103xe.o [3]
  .text              ro code   0x800'4e38     0x4  startup_stm32f103xe.o [3]
  .text              ro code   0x800'4e3c     0x4  startup_stm32f103xe.o [3]
  .text              ro code   0x800'4e40     0x4  startup_stm32f103xe.o [3]
  .text              ro code   0x800'4e44     0x4  startup_stm32f103xe.o [3]
  .text              ro code   0x800'4e48     0x4  startup_stm32f103xe.o [3]
  .text              ro code   0x800'4e4c     0x4  startup_stm32f103xe.o [3]
  .text              ro code   0x800'4e50     0x4  startup_stm32f103xe.o [3]
  .text              ro code   0x800'4e54     0x4  startup_stm32f103xe.o [3]
  .text              ro code   0x800'4e58     0x4  startup_stm32f103xe.o [3]
  .text              ro code   0x800'4e5c     0x4  startup_stm32f103xe.o [3]
  .text              ro code   0x800'4e60     0x4  startup_stm32f103xe.o [3]
  .text              ro code   0x800'4e64     0x4  startup_stm32f103xe.o [3]
  .text              ro code   0x800'4e68     0x4  startup_stm32f103xe.o [3]
  .text              ro code   0x800'4e6c     0x4  startup_stm32f103xe.o [3]
  .text              ro code   0x800'4e70     0x4  startup_stm32f103xe.o [3]
  .text              ro code   0x800'4e74     0x4  startup_stm32f103xe.o [3]
  .text              ro code   0x800'4e78     0x4  startup_stm32f103xe.o [3]
  .text              ro code   0x800'4e7c     0x4  startup_stm32f103xe.o [3]
  .text              ro code   0x800'4e80     0x4  startup_stm32f103xe.o [3]
  .text              ro code   0x800'4e84     0x4  startup_stm32f103xe.o [3]
  .text              ro code   0x800'4e88     0x4  startup_stm32f103xe.o [3]
  .text              ro code   0x800'4e8c     0x4  startup_stm32f103xe.o [3]
  .text              ro code   0x800'4e90     0x4  startup_stm32f103xe.o [3]
  .text              ro code   0x800'4e94     0x4  startup_stm32f103xe.o [3]
  .text              ro code   0x800'4e98     0x4  startup_stm32f103xe.o [3]
  .text              ro code   0x800'4e9c     0x4  startup_stm32f103xe.o [3]
  .text              ro code   0x800'4ea0     0x4  startup_stm32f103xe.o [3]
  .text              ro code   0x800'4ea4     0x4  startup_stm32f103xe.o [3]
  .text              ro code   0x800'4ea8     0x4  startup_stm32f103xe.o [3]
  .text              ro code   0x800'4eac     0x4  startup_stm32f103xe.o [3]
  .text              ro code   0x800'4eb0     0x4  startup_stm32f103xe.o [3]
  .text              ro code   0x800'4eb4     0x4  startup_stm32f103xe.o [3]
  .text              ro code   0x800'4eb8     0x4  startup_stm32f103xe.o [3]
  .text              ro code   0x800'4ebc     0x4  startup_stm32f103xe.o [3]
  .rodata            const     0x800'4ec0     0x0  zero_init3.o [7]
  .rodata            const     0x800'4ec0     0x0  copy_init3.o [7]
                             - 0x800'4ec0  0x4d90

"P2", part 1 of 3:                           0x48
  P2-1                        0x2000'0000    0x48  <Init block>
    .data            inited   0x2000'0000     0xc  stm32f1xx_hal.o [4]
    .data            inited   0x2000'000c     0x4  system_stm32f1xx.o [1]
    .data            inited   0x2000'0010    0x38  xlocale_c.o [5]
                            - 0x2000'0048    0x48

"P2", part 2 of 3:                          0x1c8
  .bss               zero     0x2000'0048    0xf0  main.o [2]
  .bss               zero     0x2000'0138    0x90  motor.o [2]
  .bss               zero     0x2000'01c8    0x40  main.o [2]
  .bss               zero     0x2000'0208     0x4  motor.o [2]
  .bss               zero     0x2000'020c     0x4  xfail_s.o [5]
                            - 0x2000'0210   0x1c8

"P2", part 3 of 3:                          0x400
  CSTACK                      0x2000'0210   0x400  <Block>
    CSTACK           uninit   0x2000'0210   0x400  <Block tail>
                            - 0x2000'0610   0x400

Unused ranges:

         From           To      Size
         ----           --      ----
   0x800'4ec0   0x807'ffff  0x7'b140
  0x2000'0610  0x2000'ffff    0xf9f0


*******************************************************************************
*** INIT TABLE
***

          Address      Size
          -------      ----
Zero (__iar_zero_init3)
    1 destination range, total size 0x1c8:
          0x2000'0048  0x1c8

Copy (__iar_copy_init3)
    1 source range, total size 0x48:
           0x800'4c24   0x48
    1 destination range, total size 0x48:
          0x2000'0000   0x48



*******************************************************************************
*** MODULE SUMMARY
***

    Module                  ro code  ro data  rw data
    ------                  -------  -------  -------
command line/config:
    -------------------------------------------------
    Total:

F:\open\stm32cubmx\6.5kw\bldc-control-keil\foc_new\FOC_new\EWARM\FOC_new\Obj\CMSIS_6603591812247902717.dir: [1]
    system_stm32f1xx.o          108       12        4
    -------------------------------------------------
    Total:                      108       12        4

F:\open\stm32cubmx\6.5kw\bldc-control-keil\foc_new\FOC_new\EWARM\FOC_new\Obj\Core_13247989168731456611.dir: [2]
    main.o                      952               304
    motor.o                   1'796               148
    stm32f1xx_hal_msp.o         664
    stm32f1xx_it.o               60
    -------------------------------------------------
    Total:                    3'472               452

F:\open\stm32cubmx\6.5kw\bldc-control-keil\foc_new\FOC_new\EWARM\FOC_new\Obj\EWARM_18443280873093131863.dir: [3]
    startup_stm32f103xe.o       544
    -------------------------------------------------
    Total:                      544

F:\open\stm32cubmx\6.5kw\bldc-control-keil\foc_new\FOC_new\EWARM\FOC_new\Obj\STM32F1xx_HAL_Driver_9701002599162248031.dir: [4]
    stm32f1xx_hal.o             168       12       12
    stm32f1xx_hal_adc.o         980
    stm32f1xx_hal_adc_ex.o      736
    stm32f1xx_hal_cortex.o      196
    stm32f1xx_hal_dma.o         272
    stm32f1xx_hal_gpio.o        504
    stm32f1xx_hal_rcc.o       1'210
    stm32f1xx_hal_rcc_ex.o      232
    stm32f1xx_hal_tim.o       1'864
    stm32f1xx_hal_tim_ex.o      282
    stm32f1xx_hal_uart.o      1'098
    -------------------------------------------------
    Total:                    7'542       12       12

dl7M_tlf.a: [5]
    abort.o                       6
    exit.o                        4
    low_level_init.o              4
    printf.o                     40
    xfail_s.o                    64                 4
    xlocale_c.o                   8       59       56
    xprintffull_nomb.o        3'786
    xprout.o                     22
    -------------------------------------------------
    Total:                    3'934       59       60

m7M_tls.a: [6]
    DblAddSub.o                 590
    DblCmpGe.o                   52
    DblCmpLe.o                   52
    DblDiv.o                    582
    DblMul.o                    426
    DblToFlt.o                  104
    DblToS32.o                   54
    DblToU32.o                   34
    FltToDbl.o                   72
    S32ToDbl.o                   34
    U32ToDbl.o                   28
    cos_sin32.o                 468
    fmodf.o                     204
    fpinit_M.o                   34
    frexp.o                     112
    ldexp.o                     314
    -------------------------------------------------
    Total:                    3'160

rt7M_tl.a: [7]
    ABImemcpy.o                 166
    ABImemset.o                 102
    I64DivMod.o                 560
    I64DivZer.o                   2
    cexit.o                      10
    cmain.o                      30
    copy_init3.o                 42
    cstartup_M.o                 28
    data_init.o                  40
    memchr.o                     88
    memset.o                     20
    strchr.o                     22
    strlen.o                     54
    zero_init3.o                 56
    -------------------------------------------------
    Total:                    1'220

shb_l.a: [8]
    exit.o                       20
    -------------------------------------------------
    Total:                       20

    Gaps                         39        2
    Linker created                        36    1'024
-----------------------------------------------------
    Grand Total:             20'039      121    1'552


*******************************************************************************
*** ENTRY LIST
***

Entry                       Address   Size  Type      Object
-----                       -------   ----  ----      ------
.iar.init_table$$Base    0x800'4d3c          --   Gb  - Linker created -
.iar.init_table$$Limit   0x800'4d60          --   Gb  - Linker created -
?main                    0x800'4d61         Code  Gb  cmain.o [7]
ADC1_2_IRQHandler        0x800'4c81    0x6  Code  Gb  stm32f1xx_it.o [2]
ADC3_IRQHandler          0x800'4e8d         Code  Wk  startup_stm32f103xe.o [3]
ADC_ConversionStop_Disable
                         0x800'3c49   0x44  Code  Gb  stm32f1xx_hal_adc.o [4]
ADC_Enable               0x800'3bc1   0x6a  Code  Gb  stm32f1xx_hal_adc.o [4]
AHBPrescTable            0x800'4c14   0x10  Data  Gb  system_stm32f1xx.o [1]
APBPrescTable            0x800'4dd8    0x8  Data  Gb  system_stm32f1xx.o [1]
ApplyRampFunction        0x800'2a0d   0x2c  Code  Gb  motor.o [2]
BusFault_Handler         0x800'4c73    0x2  Code  Gb  stm32f1xx_it.o [2]
CAN1_RX1_IRQHandler      0x800'4e31         Code  Wk  startup_stm32f103xe.o [3]
CAN1_SCE_IRQHandler      0x800'4e35         Code  Wk  startup_stm32f103xe.o [3]
CSTACK$$Base            0x2000'0210          --   Gb  - Linker created -
CSTACK$$Limit           0x2000'0610          --   Gb  - Linker created -
DMA1_Channel1_IRQHandler
                         0x800'4e0d         Code  Wk  startup_stm32f103xe.o [3]
DMA1_Channel2_IRQHandler
                         0x800'4e11         Code  Wk  startup_stm32f103xe.o [3]
DMA1_Channel3_IRQHandler
                         0x800'4e15         Code  Wk  startup_stm32f103xe.o [3]
DMA1_Channel4_IRQHandler
                         0x800'4e19         Code  Wk  startup_stm32f103xe.o [3]
DMA1_Channel5_IRQHandler
                         0x800'4e1d         Code  Wk  startup_stm32f103xe.o [3]
DMA1_Channel6_IRQHandler
                         0x800'4e21         Code  Wk  startup_stm32f103xe.o [3]
DMA1_Channel7_IRQHandler
                         0x800'4e25         Code  Wk  startup_stm32f103xe.o [3]
DMA2_Channel1_IRQHandler
                         0x800'4eb1         Code  Wk  startup_stm32f103xe.o [3]
DMA2_Channel2_IRQHandler
                         0x800'4eb5         Code  Wk  startup_stm32f103xe.o [3]
DMA2_Channel3_IRQHandler
                         0x800'4eb9         Code  Wk  startup_stm32f103xe.o [3]
DMA2_Channel4_5_IRQHandler
                         0x800'4ebd         Code  Wk  startup_stm32f103xe.o [3]
DebugMon_Handler         0x800'4c79    0x2  Code  Gb  stm32f1xx_it.o [2]
EXTI0_IRQHandler         0x800'4df9         Code  Wk  startup_stm32f103xe.o [3]
EXTI15_10_IRQHandler     0x800'4e71         Code  Wk  startup_stm32f103xe.o [3]
EXTI1_IRQHandler         0x800'4dfd         Code  Wk  startup_stm32f103xe.o [3]
EXTI2_IRQHandler         0x800'4e01         Code  Wk  startup_stm32f103xe.o [3]
EXTI3_IRQHandler         0x800'4e05         Code  Wk  startup_stm32f103xe.o [3]
EXTI4_IRQHandler         0x800'4e09         Code  Wk  startup_stm32f103xe.o [3]
EXTI9_5_IRQHandler       0x800'4e39         Code  Wk  startup_stm32f103xe.o [3]
Error_Handler            0x800'4aa9    0x4  Code  Gb  main.o [2]
FLASH_IRQHandler         0x800'4df1         Code  Wk  startup_stm32f103xe.o [3]
FSMC_IRQHandler          0x800'4e91         Code  Wk  startup_stm32f103xe.o [3]
GetCurrentOffset         0x800'29c1   0x4a  Code  Gb  motor.o [2]
HAL_ADCEx_InjectedConfigChannel
                         0x800'332f  0x1b0  Code  Gb  stm32f1xx_hal_adc_ex.o [4]
HAL_ADCEx_InjectedConvCpltCallback
                         0x800'2737   0x18  Code  Gb  motor.o [2]
HAL_ADCEx_InjectedGetValue
                         0x800'3309   0x26  Code  Gb  stm32f1xx_hal_adc_ex.o [4]
HAL_ADCEx_InjectedStart_IT
                         0x800'3245   0x3a  Code  Gb  stm32f1xx_hal_adc_ex.o [4]
HAL_ADC_ConfigChannel    0x800'3ac3   0xe6  Code  Gb  stm32f1xx_hal_adc.o [4]
HAL_ADC_ConvCpltCallback
                         0x800'3c99    0x2  Code  Wk  stm32f1xx_hal_adc.o [4]
HAL_ADC_IRQHandler       0x800'39cd   0xde  Code  Gb  stm32f1xx_hal_adc.o [4]
HAL_ADC_Init             0x800'38bd  0x110  Code  Gb  stm32f1xx_hal_adc.o [4]
HAL_ADC_LevelOutOfWindowCallback
                         0x800'3c9b    0x2  Code  Wk  stm32f1xx_hal_adc.o [4]
HAL_ADC_MspInit          0x800'247b   0x7a  Code  Gb  stm32f1xx_hal_msp.o [2]
HAL_DMA_Abort_IT         0x800'45dd   0xdc  Code  Gb  stm32f1xx_hal_dma.o [4]
HAL_Delay                0x800'382d   0x28  Code  Wk  stm32f1xx_hal.o [4]
HAL_GPIO_Init            0x800'2e01  0x1b4  Code  Gb  stm32f1xx_hal_gpio.o [4]
HAL_GPIO_WritePin        0x800'2fb5    0x8  Code  Gb  stm32f1xx_hal_gpio.o [4]
HAL_GetTick              0x800'3c8d    0xc  Code  Wk  stm32f1xx_hal.o [4]
HAL_IncTick              0x800'4ca9   0x10  Code  Wk  stm32f1xx_hal.o [4]
HAL_Init                 0x800'4aad   0x20  Code  Gb  stm32f1xx_hal.o [4]
HAL_InitTick             0x800'4159   0x40  Code  Wk  stm32f1xx_hal.o [4]
HAL_MspInit              0x800'2441   0x3a  Code  Gb  stm32f1xx_hal_msp.o [2]
HAL_NVIC_EnableIRQ       0x800'3067   0x16  Code  Gb  stm32f1xx_hal_cortex.o [4]
HAL_NVIC_SetPriority     0x800'302d   0x3a  Code  Gb  stm32f1xx_hal_cortex.o [4]
HAL_NVIC_SetPriorityGrouping
                         0x800'3013   0x1a  Code  Gb  stm32f1xx_hal_cortex.o [4]
HAL_RCCEx_PeriphCLKConfig
                         0x800'4ad1   0xda  Code  Gb  stm32f1xx_hal_rcc_ex.o [4]
HAL_RCC_ClockConfig      0x800'3fb1   0xf4  Code  Gb  stm32f1xx_hal_rcc.o [4]
HAL_RCC_GetPCLK1Freq     0x800'40f1   0x10  Code  Gb  stm32f1xx_hal_rcc.o [4]
HAL_RCC_GetPCLK2Freq     0x800'4101    0xe  Code  Gb  stm32f1xx_hal_rcc.o [4]
HAL_RCC_GetSysClockFreq
                         0x800'40b9   0x38  Code  Gb  stm32f1xx_hal_rcc.o [4]
HAL_RCC_GetSysClockFreq::aPLLMULFactorTable
                         0x800'4144   0x10  Data  Lc  stm32f1xx_hal_rcc.o [4]
HAL_RCC_GetSysClockFreq::aPredivFactorTable
                         0x800'4154    0x2  Data  Lc  stm32f1xx_hal_rcc.o [4]
HAL_RCC_OscConfig        0x800'3c9d  0x30c  Code  Gb  stm32f1xx_hal_rcc.o [4]
HAL_SYSTICK_Config       0x800'307d   0x22  Code  Gb  stm32f1xx_hal_cortex.o [4]
HAL_TIMEx_BreakCallback
                         0x800'2de5    0x2  Code  Wk  stm32f1xx_hal_tim_ex.o [4]
HAL_TIMEx_CommutCallback
                         0x800'2de9    0x2  Code  Wk  stm32f1xx_hal_tim_ex.o [4]
HAL_TIMEx_ConfigBreakDeadTime
                         0x800'31d3   0x54  Code  Gb  stm32f1xx_hal_tim_ex.o [4]
HAL_TIMEx_MasterConfigSynchronization
                         0x800'3195   0x3e  Code  Gb  stm32f1xx_hal_tim_ex.o [4]
HAL_TIMEx_PWMN_Start     0x800'312d    0xa  Code  Gb  stm32f1xx_hal_tim_ex.o [4]
HAL_TIM_Base_Init        0x800'1d01   0x1a  Code  Gb  stm32f1xx_hal_tim.o [4]
HAL_TIM_Base_MspInit     0x800'24f5   0x4e  Code  Gb  stm32f1xx_hal_msp.o [2]
HAL_TIM_Base_Start_IT    0x800'1d1b   0x20  Code  Gb  stm32f1xx_hal_tim.o [4]
HAL_TIM_ConfigClockSource
                         0x800'210b   0x90  Code  Gb  stm32f1xx_hal_tim.o [4]
HAL_TIM_Encoder_Init     0x800'1dcb   0x90  Code  Gb  stm32f1xx_hal_tim.o [4]
HAL_TIM_Encoder_MspInit
                         0x800'2543   0x82  Code  Gb  stm32f1xx_hal_msp.o [2]
HAL_TIM_Encoder_Start_IT
                         0x800'1e65   0x3e  Code  Gb  stm32f1xx_hal_tim.o [4]
HAL_TIM_IC_CaptureCallback
                         0x800'26db    0x2  Code  Wk  stm32f1xx_hal_tim.o [4]
HAL_TIM_IRQHandler       0x800'1ed3  0x142  Code  Gb  stm32f1xx_hal_tim.o [4]
HAL_TIM_MspPostInit      0x800'25d5   0x52  Code  Gb  stm32f1xx_hal_msp.o [2]
HAL_TIM_OC_DelayElapsedCallback
                         0x800'26dd    0x2  Code  Wk  stm32f1xx_hal_tim.o [4]
HAL_TIM_PWM_ConfigChannel
                         0x800'201b   0xbc  Code  Gb  stm32f1xx_hal_tim.o [4]
HAL_TIM_PWM_Init         0x800'1d6f   0x1a  Code  Gb  stm32f1xx_hal_tim.o [4]
HAL_TIM_PWM_MspInit      0x800'26d9    0x2  Code  Wk  stm32f1xx_hal_tim.o [4]
HAL_TIM_PWM_PulseFinishedCallback
                         0x800'2deb    0x2  Code  Wk  stm32f1xx_hal_tim.o [4]
HAL_TIM_PWM_Start        0x800'1d89   0x14  Code  Gb  stm32f1xx_hal_tim.o [4]
HAL_TIM_PeriodElapsedCallback
                         0x800'26e1   0x56  Code  Gb  motor.o [2]
HAL_TIM_PeriodElapsedCallback{1}{2}::ms_100
                        0x2000'0170    0x4  Data  Lc  motor.o [2]
HAL_TIM_TriggerCallback
                         0x800'2de7    0x2  Code  Wk  stm32f1xx_hal_tim.o [4]
HAL_UART_ErrorCallback   0x800'46ed    0x2  Code  Wk  stm32f1xx_hal_uart.o [4]
HAL_UART_IRQHandler      0x800'42df  0x15c  Code  Gb  stm32f1xx_hal_uart.o [4]
HAL_UART_Init            0x800'4199   0x1e  Code  Gb  stm32f1xx_hal_uart.o [4]
HAL_UART_MspInit         0x800'263b   0x56  Code  Gb  stm32f1xx_hal_msp.o [2]
HAL_UART_RxCpltCallback
                         0x800'46f1    0x2  Code  Wk  stm32f1xx_hal_uart.o [4]
HAL_UART_Transmit        0x800'4213   0xaa  Code  Gb  stm32f1xx_hal_uart.o [4]
HAL_UART_TxCpltCallback
                         0x800'46ef    0x2  Code  Wk  stm32f1xx_hal_uart.o [4]
HardFault_Handler        0x800'4c6f    0x2  Code  Gb  stm32f1xx_it.o [2]
I2C1_ER_IRQHandler       0x800'4e55         Code  Wk  startup_stm32f103xe.o [3]
I2C1_EV_IRQHandler       0x800'4e51         Code  Wk  startup_stm32f103xe.o [3]
I2C2_ER_IRQHandler       0x800'4e5d         Code  Wk  startup_stm32f103xe.o [3]
I2C2_EV_IRQHandler       0x800'4e59         Code  Wk  startup_stm32f103xe.o [3]
IDQ                     0x2000'0150    0x8  Data  Gb  motor.o [2]
IDQ1                    0x2000'0158    0x8  Data  Gb  motor.o [2]
IQ                      0x2000'016c    0x4  Data  Gb  motor.o [2]
I_ah_beta               0x2000'0160    0x8  Data  Gb  motor.o [2]
Iabc                    0x2000'0138    0xc  Data  Gb  motor.o [2]
MemManage_Handler        0x800'4c71    0x2  Code  Gb  stm32f1xx_it.o [2]
Motor_Align              0x800'2861   0x60  Code  Gb  motor.o [2]
Motor_Align::wTimebase  0x2000'0174    0x4  Data  Lc  motor.o [2]
NMI_Handler              0x800'4c6d    0x2  Code  Gb  stm32f1xx_it.o [2]
PVD_IRQHandler           0x800'4de5         Code  Wk  startup_stm32f103xe.o [3]
PendSV_Handler           0x800'4c7b    0x2  Code  Gb  stm32f1xx_it.o [2]
RCC_IRQHandler           0x800'4df5         Code  Wk  startup_stm32f103xe.o [3]
RTC_Alarm_IRQHandler     0x800'4e75         Code  Wk  startup_stm32f103xe.o [3]
RTC_IRQHandler           0x800'4ded         Code  Wk  startup_stm32f103xe.o [3]
Region$$Table$$Base      0x800'4d3c          --   Gb  - Linker created -
Region$$Table$$Limit     0x800'4d60          --   Gb  - Linker created -
Reset_Handler            0x800'4dc9         Code  Wk  startup_stm32f103xe.o [3]
SDIO_IRQHandler          0x800'4e95         Code  Wk  startup_stm32f103xe.o [3]
SPI1_IRQHandler          0x800'4e61         Code  Wk  startup_stm32f103xe.o [3]
SPI2_IRQHandler          0x800'4e65         Code  Wk  startup_stm32f103xe.o [3]
SPI3_IRQHandler          0x800'4e9d         Code  Wk  startup_stm32f103xe.o [3]
SVC_Handler              0x800'4c77    0x2  Code  Gb  stm32f1xx_it.o [2]
SVPWM                    0x800'2aad  0x2da  Code  Gb  motor.o [2]
State                   0x2000'0144    0x1  Data  Gb  motor.o [2]
SysTick_Handler          0x800'4c7d    0x4  Code  Gb  stm32f1xx_it.o [2]
SystemClock_Config       0x800'49eb   0x80  Code  Gb  main.o [2]
SystemCoreClock         0x2000'000c    0x4  Data  Gb  system_stm32f1xx.o [1]
SystemInit               0x800'4bb9   0x46  Code  Gb  system_stm32f1xx.o [1]
TAMPER_IRQHandler        0x800'4de9         Code  Wk  startup_stm32f103xe.o [3]
TIM1_BRK_IRQHandler      0x800'4e3d         Code  Wk  startup_stm32f103xe.o [3]
TIM1_CC_IRQHandler       0x800'4e49         Code  Wk  startup_stm32f103xe.o [3]
TIM1_TRG_COM_IRQHandler
                         0x800'4e45         Code  Wk  startup_stm32f103xe.o [3]
TIM1_UP_IRQHandler       0x800'4e41         Code  Wk  startup_stm32f103xe.o [3]
TIM2_IRQHandler          0x800'4c87    0x6  Code  Gb  stm32f1xx_it.o [2]
TIM3_IRQHandler          0x800'4c8d    0x6  Code  Gb  stm32f1xx_it.o [2]
TIM4_IRQHandler          0x800'4e4d         Code  Wk  startup_stm32f103xe.o [3]
TIM5_IRQHandler          0x800'4e99         Code  Wk  startup_stm32f103xe.o [3]
TIM6_IRQHandler          0x800'4ea9         Code  Wk  startup_stm32f103xe.o [3]
TIM7_IRQHandler          0x800'4ead         Code  Wk  startup_stm32f103xe.o [3]
TIM8_BRK_IRQHandler      0x800'4e7d         Code  Wk  startup_stm32f103xe.o [3]
TIM8_CC_IRQHandler       0x800'4e89         Code  Wk  startup_stm32f103xe.o [3]
TIM8_TRG_COM_IRQHandler
                         0x800'4e85         Code  Wk  startup_stm32f103xe.o [3]
TIM8_UP_IRQHandler       0x800'4e81         Code  Wk  startup_stm32f103xe.o [3]
TIM_Base_SetConfig       0x800'21d3   0x74  Code  Gb  stm32f1xx_hal_tim.o [4]
TIM_CCxChannelCmd        0x800'2423   0x16  Code  Gb  stm32f1xx_hal_tim.o [4]
TIM_CCxNChannelCmd       0x800'3227   0x1c  Code  Lc  stm32f1xx_hal_tim_ex.o [4]
TIM_ETR_SetConfig        0x800'240f   0x14  Code  Gb  stm32f1xx_hal_tim.o [4]
TIM_ITRx_SetConfig       0x800'23ff   0x10  Code  Lc  stm32f1xx_hal_tim.o [4]
TIM_OC1_SetConfig        0x800'2247   0x58  Code  Lc  stm32f1xx_hal_tim.o [4]
TIM_OC2_SetConfig        0x800'229f   0x60  Code  Gb  stm32f1xx_hal_tim.o [4]
TIM_OC3_SetConfig        0x800'22ff   0x5e  Code  Lc  stm32f1xx_hal_tim.o [4]
TIM_OC4_SetConfig        0x800'235d   0x46  Code  Lc  stm32f1xx_hal_tim.o [4]
TIM_TI1_ConfigInputStage
                         0x800'23bd   0x1e  Code  Lc  stm32f1xx_hal_tim.o [4]
TIM_TI2_ConfigInputStage
                         0x800'23db   0x24  Code  Lc  stm32f1xx_hal_tim.o [4]
UART4_IRQHandler         0x800'4ea1         Code  Wk  startup_stm32f103xe.o [3]
UART5_IRQHandler         0x800'4ea5         Code  Wk  startup_stm32f103xe.o [3]
UART_DMAAbortOnError     0x800'44b5    0xe  Code  Lc  stm32f1xx_hal_uart.o [4]
UART_EndRxTransfer       0x800'4495   0x1c  Code  Lc  stm32f1xx_hal_uart.o [4]
UART_Receive_IT          0x800'44c5   0x92  Code  Lc  stm32f1xx_hal_uart.o [4]
UART_SetConfig           0x800'4557   0x7a  Code  Lc  stm32f1xx_hal_uart.o [4]
UART_WaitOnFlagUntilTimeout
                         0x800'443b   0x5a  Code  Lc  stm32f1xx_hal_uart.o [4]
USART1_IRQHandler        0x800'4e69         Code  Wk  startup_stm32f103xe.o [3]
USART2_IRQHandler        0x800'4c93    0x6  Code  Gb  stm32f1xx_it.o [2]
USART3_IRQHandler        0x800'4e6d         Code  Wk  startup_stm32f103xe.o [3]
USBWakeUp_IRQHandler     0x800'4e79         Code  Wk  startup_stm32f103xe.o [3]
USB_HP_CAN1_TX_IRQHandler
                         0x800'4e29         Code  Wk  startup_stm32f103xe.o [3]
USB_LP_CAN1_RX0_IRQHandler
                         0x800'4e2d         Code  Wk  startup_stm32f103xe.o [3]
UsageFault_Handler       0x800'4c75    0x2  Code  Gb  stm32f1xx_it.o [2]
VDQ                     0x2000'0148    0x8  Data  Gb  motor.o [2]
V_ah_beta               0x2000'0178    0x8  Data  Gb  motor.o [2]
WWDG_IRQHandler          0x800'4de1         Code  Wk  startup_stm32f103xe.o [3]
_LC                      0x800'0131    0x6  Code  Lc  xprintffull_nomb.o [5]
_LitobFullNoMb           0x800'0e19  0x114  Code  Lc  xprintffull_nomb.o [5]
_Locale_lconv           0x2000'0010   0x38  Data  Lc  xlocale_c.o [5]
_PrintfFullNoMb          0x800'0137  0xcb2  Code  Gb  xprintffull_nomb.o [5]
_Prout                   0x800'4db1   0x16  Code  Gb  xprout.o [5]
_PutcharsFullNoMb        0x800'0f85   0x2e  Code  Lc  xprintffull_nomb.o [5]
__NVIC_SetPriority       0x800'2ff9   0x1a  Code  Lc  stm32f1xx_hal_cortex.o [4]
__aeabi_cdcmple          0x800'1225         Code  Gb  DblCmpLe.o [6]
__aeabi_cdrcmple         0x800'1259         Code  Gb  DblCmpGe.o [6]
__aeabi_d2f              0x800'37c5         Code  Gb  DblToFlt.o [6]
__aeabi_d2iz             0x800'13c9         Code  Gb  DblToS32.o [6]
__aeabi_d2uiz            0x800'18bd         Code  Gb  DblToU32.o [6]
__aeabi_ddiv             0x800'1675         Code  Gb  DblDiv.o [6]
__aeabi_dmul             0x800'18fd         Code  Gb  DblMul.o [6]
__aeabi_dsub             0x800'1591         Code  Gb  DblAddSub.o [6]
__aeabi_f2d              0x800'30bd         Code  Gb  FltToDbl.o [6]
__aeabi_i2d              0x800'1401         Code  Gb  S32ToDbl.o [6]
__aeabi_ldiv0            0x800'1ce9         Code  Gb  I64DivZer.o [7]
__aeabi_memcpy           0x800'110d         Code  Gb  ABImemcpy.o [7]
__aeabi_memcpy4          0x800'112d         Code  Gb  ABImemcpy.o [7]
__aeabi_memcpy8          0x800'112d         Code  Gb  ABImemcpy.o [7]
__aeabi_memset           0x800'3855         Code  Gb  ABImemset.o [7]
__aeabi_ui2d             0x800'18e1         Code  Gb  U32ToDbl.o [6]
__aeabi_uldivmod         0x800'1ab1         Code  Gb  I64DivMod.o [7]
__cmain                  0x800'4d61         Code  Gb  cmain.o [7]
__exit                   0x800'1ced   0x14  Code  Gb  exit.o [8]
__iar_Fail_s             0x800'103d   0x1c  Code  Gb  xfail_s.o [5]
__iar_Memchr             0x800'10b5         Code  Gb  memchr.o [7]
__iar_Memset             0x800'3855         Code  Gb  ABImemset.o [7]
__iar_Memset_word        0x800'385d         Code  Gb  ABImemset.o [7]
__iar_Sin32              0x800'3525  0x18c  Code  Lc  cos_sin32.o [6]
__iar_Strchr             0x800'1025         Code  Gb  strchr.o [7]
__iar_copy_init3         0x800'0ffb   0x2a  Code  Gb  copy_init3.o [7]
__iar_cos32              0x800'36f1    0x4  Code  Gb  cos_sin32.o [6]
__iar_cos_medium32       0x800'36f1    0x4  Code  Gb  cos_sin32.o [6]
__iar_cos_mediumf        0x800'36f1    0x4  Code  Gb  cos_sin32.o [6]
__iar_data_init3         0x800'4cf1   0x28  Code  Gb  data_init.o [7]
__iar_fmod32             0x800'3709         Code  Gb  fmodf.o [6]
__iar_frexp              0x800'11c1         Code  Gb  frexp.o [6]
__iar_frexpl             0x800'11c1         Code  Gb  frexp.o [6]
__iar_init_vfp           0x800'4d19         Code  Gb  fpinit_M.o [6]
__iar_ldexp64            0x800'128d         Code  Gb  ldexp.o [6]
__iar_program_start      0x800'4d95         Code  Gb  cstartup_M.o [7]
__iar_scalbln64          0x800'128d         Code  Gb  ldexp.o [6]
__iar_scalbn64           0x800'128d         Code  Gb  ldexp.o [6]
__iar_sin32              0x800'36f5    0x4  Code  Gb  cos_sin32.o [6]
__iar_sin_medium32       0x800'36f5    0x4  Code  Gb  cos_sin32.o [6]
__iar_sin_mediumf        0x800'36f5    0x4  Code  Gb  cos_sin32.o [6]
__iar_softfp___iar_frexp64
                         0x800'11b5         Code  Gb  frexp.o [6]
__iar_softfp_frexp       0x800'11b5         Code  Gb  frexp.o [6]
__iar_softfp_frexpl      0x800'11b5         Code  Gb  frexp.o [6]
__iar_vfp___iar_fmod32   0x800'36f9         Code  Gb  fmodf.o [6]
__iar_vfp_fmodf          0x800'36f9         Code  Gb  fmodf.o [6]
__iar_zero_init3         0x800'4cb9   0x38  Code  Gb  zero_init3.o [7]
__low_level_init         0x800'4d7f    0x4  Code  Gb  low_level_init.o [5]
__vector_table           0x800'0000         Data  Gb  startup_stm32f103xe.o [3]
_call_main               0x800'4d6d         Code  Gb  cmain.o [7]
_exit                    0x800'4d89         Code  Gb  cexit.o [7]
abort                    0x800'1ce1    0x6  Code  Gb  abort.o [5]
angle                   0x2000'0168    0x4  Data  Gb  motor.o [2]
board_config             0x800'27cd   0x92  Code  Gb  motor.o [2]
clarke_transform         0x800'2a39   0x1a  Code  Gb  motor.o [2]
cosf                     0x800'36f1    0x4  Code  Gb  cos_sin32.o [6]
exit                     0x800'4d83    0x4  Code  Gb  exit.o [5]
fmodf                    0x800'3709         Code  Gb  fmodf.o [6]
foc_current_loop         0x800'2751   0x72  Code  Gb  motor.o [2]
get_Iab                  0x800'2945   0x7c  Code  Gb  motor.o [2]
get_encode_angle         0x800'2915   0x2c  Code  Gb  motor.o [2]
hPhaseA_OffSet          0x2000'0208    0x2  Data  Gb  motor.o [2]
hPhaseB_OffSet          0x2000'020a    0x2  Data  Gb  motor.o [2]
hadc1                   0x2000'0048   0x30  Data  Gb  main.o [2]
htim1                   0x2000'0078   0x40  Data  Gb  main.o [2]
htim2                   0x2000'00b8   0x40  Data  Gb  main.o [2]
htim3                   0x2000'00f8   0x40  Data  Gb  main.o [2]
huart2                  0x2000'01c8   0x40  Data  Gb  main.o [2]
inverseParkTransform     0x800'28c9   0x4c  Code  Gb  motor.o [2]
ldexp                    0x800'128d         Code  Gb  ldexp.o [6]
ldexpl                   0x800'128d         Code  Gb  ldexp.o [6]
localeconv               0x800'1aa9    0x4  Code  Gb  xlocale_c.o [5]
main                     0x800'46f5  0x2e4  Code  Gb  main.o [2]
memchr                   0x800'10b5         Code  Gb  memchr.o [7]
memset                   0x800'2ded   0x14  Code  Gb  memset.o [7]
park_transform           0x800'2a65   0x48  Code  Gb  motor.o [2]
printf                   0x800'3105   0x28  Code  Gb  printf.o [5]
putchar                  0x800'4a75   0x14  Code  Gb  main.o [2]
scalbln                  0x800'128d         Code  Gb  ldexp.o [6]
scalblnl                 0x800'128d         Code  Gb  ldexp.o [6]
scalbn                   0x800'128d         Code  Gb  ldexp.o [6]
scalbnl                  0x800'128d         Code  Gb  ldexp.o [6]
scale                    0x800'0f2d   0x46  Code  Lc  xprintffull_nomb.o [5]
sec_hand                0x2000'020c    0x4  Data  Lc  xfail_s.o [5]
sinf                     0x800'36f5    0x4  Code  Gb  cos_sin32.o [6]
strchr                   0x800'1025         Code  Gb  strchr.o [7]
strlen                   0x800'107d         Code  Gb  strlen.o [7]
test_def                0x2000'0180   0x48  Data  Gb  motor.o [2]
uwTick                  0x2000'0004    0x4  Data  Gb  stm32f1xx_hal.o [4]
uwTickFreq              0x2000'0000    0x1  Data  Gb  stm32f1xx_hal.o [4]
uwTickPrio              0x2000'0008    0x4  Data  Gb  stm32f1xx_hal.o [4]


[1] = F:\open\stm32cubmx\6.5kw\bldc-control-keil\foc_new\FOC_new\EWARM\FOC_new\Obj\CMSIS_6603591812247902717.dir
[2] = F:\open\stm32cubmx\6.5kw\bldc-control-keil\foc_new\FOC_new\EWARM\FOC_new\Obj\Core_13247989168731456611.dir
[3] = F:\open\stm32cubmx\6.5kw\bldc-control-keil\foc_new\FOC_new\EWARM\FOC_new\Obj\EWARM_18443280873093131863.dir
[4] = F:\open\stm32cubmx\6.5kw\bldc-control-keil\foc_new\FOC_new\EWARM\FOC_new\Obj\STM32F1xx_HAL_Driver_9701002599162248031.dir
[5] = dl7M_tlf.a
[6] = m7M_tls.a
[7] = rt7M_tl.a
[8] = shb_l.a

  20'039 bytes of readonly  code memory
     121 bytes of readonly  data memory
   1'552 bytes of readwrite data memory

Errors: none
Warnings: none
